:100000000C94EE090C940F0A0C940F0A0C940F0A2E
:100010000C940F0A0C940F0A0C940F0A0C940F0AFC
:100020000C940F0A0C940F0A0C94DC620C94F2608E
:100030000C940F0A0C940F0A0C940F0A0C940F0ADC
:100040000C940F0A0C940F0A0C940F0A0C940F0ACC
:100050000C940F0A0C940F0A0C940F0A0C940F0ABC
:100060000C940F0A0C94D4230C9426240C94FD2396
:100070000C944F240C94A1240C9478240C940F0A13
:100080000C940F0A0C940F0A0C940F0A0C940F0A8C
:100090000C940F0A0C940F0A0C940F0A0C940F0A7C
:1000A0000C940F0A0C940F0A0C940F0A0C940F0A6C
:1000B0000C940F0A0C940F0A0C94D2180C9410177D
:1000C0000C940F0A0C946D160C94AB160C940F0A3A
:1000D0000C940F0A0C940F0A0C940F0A0C940F0A3C
:1000E0000C940F0A0C940F0A0C9445250C94972538
:1000F0000C946E250C94C0250C9412260C94E925C2
:100100000C940F0A0C940F0A0C940F0A0C940F0A0B
:100110000C940F0A0C940F0A0C940F0A0C940F0AFB
:100120000C940F0A0C940F0A0C940F0A0C940F0AEB
:100130000C940F0A0C940F0A0C940F0A0C940F0ADB
:100140000C940F0A0C940F0A0C940F0A0C940F0ACB
:100150000C940F0A0C940F0A0C940F0A0C940F0ABB
:100160000C94CA240C941C250C94F3240C94154E66
:100170000C940F0A0C940F0A0C940F0A0C940F0A9B
:100180000C940F0A0C940F0A0C940F0A0C940F0A8B
:100190000C940F0A0C940F0A0C940F0A0C940F0A7B
:1001A0000C940F0A0C940F0A0C940F0A0C940F0A6B
:1001B0000C940F0A0C940F0A0C940F0A0C940F0A5B
:1001C0000C940F0A0C940F0A0C940F0A0C940F0A4B
:1001D0000C940F0A0C940F0A0C940F0A0C943B26F3
:1001E0000C948D260C9464260C940F0A0C940F0A20
:1001F0000C940F0A0C940F0A0C940F0A381B451B21
:10020000521B5F1B6C1B871B1B1B281BF21CFF1C3C
:100210000D1D1A1D281D5C1D691DE81C084AD73BD1
:100220003BCE016E84BCBFFDC12F3D6C74319ABDC5
:1002300056833DDA3D00C77F11BED9E4BB4C3E91E9
:100240006BAAAABE000000803F07634236B79BD866
:10025000A71A39685618AEBAAB558C1D3CB7CC57A7
:1002600063BD6DEDFD753EF6177231BF0000008075
:100270003F072C7AA5BA6CC590DA3B9365FC8BBC22
:1002800053F810FD3C5692834DBD879D3AB63DCB49
:10029000C9BF5BBE73DA0FC93F05A84CCDB2D44EBF
:1002A000B93836A9020C50B9918688083CA6AAAA8A
:1002B0002ABE000000803F08000000BE92244912C0
:1002C0003EABAAAA2ABECDCCCC4C3E00000080BEDC
:1002D000ABAAAAAA3E00000000BF000000803F00B9
:1002E00000000000084178D3BB4387D1133D190EAD
:1002F0003CC3BD4282AD2B3E68EC8276BED98FE115
:10030000A93E4C80EFFFBE01C4FF7F3F000000000C
:1003100000000C945F1B0C9437190C945B160C9422
:100320007F1A0C94281B0C948A630C941B1B0C944E
:100330005C1D0C940D1D0C94E81C0C941A1D0C945F
:1003400018290C94451B0C9456120C9440560C948E
:10035000A9310C946C1B0C94FF1C0C94281D0C945C
:100360001D0A0C94871B0C94F21C0C94E84D0C9401
:10037000D5150C94794A0C94D3270C94521B0C94E9
:10038000381B0C94D7590C949D0A0C9413290C9487
:10039000691D6E616E00696E660000407A10F35A46
:1003A00000A0724E18090010A5D4E80000E87648B5
:1003B000170000E40B54020000CA9A3B000000E161
:1003C000F505000080969800000040420F000000F4
:1003D000A08601000000102700000000E8030000D4
:1003E00000006400000000000A000000000001009E
:1003F000000000002C76D888DC674F0823DFC1DFBF
:10040000AE59E1B1B796E5E3E453C63AE6519976C1
:1004100096E8E6C28426EB898C9B62ED407C6FFCFB
:10042000EFBC9C9F40F2BAA56FA5F490055A2AF73D
:100430005C936B6CF9676DC11BFCE0E40D47FEF546
:1004400020E6B500D0ED902E0300943577050080AE
:10045000841E080000204E0A000000C80C3333330D
:10046000330F986E12831141EF8D2114893BE655AD
:1004700016CFFEE6DB18D1844B381BF77C1D901D90
:10048000A4BBE424203284725E228100C9F124ECF2
:10049000A1E53D2762616C6C5F6B696C6C006D6FF0
:1004A00064650062616C6C00256875206279746512
:1004B000206D73672066726F6D20253034583A0DB9
:1004C0000A09000942616C6C2049443A202568758C
:1004D0003B207261646975733A202568753B205032
:1004E0006F733A202825642C20256429204020762B
:1004F000656C20282568642C20256864290D0A0075
:10050000094D7920506F733A207B25642C20256497
:100510002C2025647D0D0A00205D000A49443A2004
:100520002530345820543A20256C75205B20004536
:1005300052524F523A204D657373616765206C6566
:100540006E677468203020666F72206D73675F6E0F
:100550006F64652E0D0A004572726F723A204D6508
:10056000737361676573206F766572666C6F772E43
:1005700020546F6F206D616E79206D6573736167B4
:1005800065732072656365697665642E205472799F
:10059000207370656564696E6720757020796F756A
:1005A00072206C6F6F7020696620796F752073659B
:1005B0006520746869732061206C6F742E0D0A00C9
:1005C0004572726F722120576520676F74206168D1
:1005D000656164206F6620746865207461736B20A8
:1005E0006C69737420616E64206E6F77206E6F7417
:1005F00068696E672077696C6C20657865637574CF
:10060000652E0D0A0009545749207761736E2774CF
:100610002072656164792E0D0A000D0A4368616ECF
:100620006E656C73206172652070726F6261626CBE
:100630007920626C6F636B656420627920796F75D5
:10064000722070726576696F7573206D6573736162
:1006500067652E0D0A0041626F7274696E672049EA
:10066000522073656E64207768696C6520747279B6
:10067000696E673A0D0A09004E6F726D616C2073E6
:10068000656E6420626C6F636B65642062792068BC
:10069000702E0D0A004552524F523A204D65737329
:1006A00061676520657863656564732049525F42C0
:1006B00055464645525F53495A452E0D0A0045524C
:1006C000524F5221204D65737361676520746F6FBF
:1006D000206C6F6E673F0D0A004552524F523A2010
:1006E0004D657373616765206C656E677468203053
:1006F00020696E20706572666F726D5F69725F75DA
:10070000706B6565702E0D0A0057616974696E67BC
:1007100020666F7220545749205B25635D2E2E2E74
:100720000D0A00095457492074696D656F7574206E
:100730007768656E2073657474696E67204952200E
:10074000506F77657273205B25635D0D0A00094465
:100750006F6E652077616974696E6720666F7220BD
:100760005457492E20495220706F77657273207359
:100770006574207375636365737366756C6C792E2D
:100780000D0A0049522048617264776172652062E7
:100790007573792C2070726F6261626C7920736559
:1007A0006E64696E672061206D6573736167653F74
:1007B0002043616E277420636865636B20636F6CF0
:1007C0006C6973696F6E732E0D0A00094D61686163
:1007D0006C616E6F6269732044697374616E6365E6
:1007E0003A2025660D0A0020676976696E672070D9
:1007F0006F73207B25642C2025642C2025647D2E9E
:100800000D0A002062757420636F76617220756E28
:10081000696F6E20726573756C74656420696E20F3
:100820006E6F6E2D706F7369746976652D64656681
:10083000696E69746520502E0D0A0020627574205F
:10084000746865206D6168616C616E6F62697320A8
:1008500064697374616E6365202825352E326629BC
:1008600020697320746F6F206C617267652E0D0AAA
:10087000007468696E6B732049276D206174207B5A
:1008800025642C2025642C2025647D002073656E52
:1008900074206D6520616E20756E646566696E6595
:1008A0006420706F736974696F6E2E0D0A002530B5
:1008B000345820002530345820696E697469616CA1
:1008C000697A6564206D6520746F207B25642C2017
:1008D00025642C2025647D2E0D0A002530345820F7
:1008E00073656E74206D6520616E20756E6465663B
:1008F000696E656420706F736974696F6E2E0D0A7E
:1009000000476976696E67207570206F6E206D7381
:100910006720746F2025303458206166746572201A
:100920002568752074726965732E0D0A00253034B0
:10093000582073656E7420706F73206D7367206923
:100940006E206469727320253032685820616674A5
:100950006572202568752074726965732E0D0A0012
:1009600009253034582040207B25362E31662C2036
:1009700025362E31662C202520352E30667D2066CA
:10098000726F6D207B252034642C20252034642C4C
:1009900020252034647D0D0A0043616E2774206198
:1009A000646A757374206F74686572732720706F42
:1009B000736974696F6E7320756E74696C20492059
:1009C0006B6E6F77207768657265204920616D2EA8
:1009D0000D0A0020207B25392E34662C2025392E47
:1009E00034662C2025392E34667D0D0A7D3B0D0A98
:1009F0000020207B25392E34662C2025392E3466A4
:100A00002C2025392E34667D2C0D0A007B0D0A2002
:100A1000207B25392E34662C2025392E34662C2057
:100A200025392E34667D2C0D0A00092568750925A7
:100A3000750D0A004469737420286D6D2920706556
:100A400072206B696C6F737465700D0A00096469BC
:100A5000723A2025687509004D6F746F72205661D7
:100A60006C7565730D0A00496E206F7264657220A3
:100A7000746F20676F20696E2064697265637469A2
:100A80006F6E2025687520666F72202575206D6D4C
:100A90002C2074616B696E672025752073746570F6
:100AA000732E0D0A004572726F723A20446F6E27E2
:100AB0007420686176652063616C69627261746537
:100AC000642076616C75657320666F722074686946
:100AD0007320646972656374696F6E2E0D0A004538
:100AE00072726F7221204661696C656420746F2098
:100AF0007363686564756C652073746F705F6D6F88
:100B00007665207461736B2E004552524F523A2025
:100B100063757272656E745F6F66667365743A2092
:100B2000257520616E6420746F74616C5F74696DEB
:100B3000653A202575206E6F7420657175616C2192
:100B40000D0A000D0A4552524F523A205365726900
:100B5000616C20696E7075742062756666657220BE
:100B60006361706163697479206F66202575206305
:100B7000686172616374657273206578636565642A
:100B800065642E0D0A0021212109476F742031353B
:100B900020636F6E7365637574697665206E6F741C
:100BA00068696E67732066726F6D2073656E736F10
:100BB00072202568752E092121210D0A0045525207
:100BC0004F523A20506F73742D72657475726E2C8B
:100BD000207461736B2073746F7261676520636F3B
:100BE0006E73697374656E637920636865636B20E7
:100BF0006661696C7572652E0D0A00506F73742DF5
:100C000063616C6C2C207461736B202558206861C3
:100C100073206E6578745F70747220706F696E7483
:100C2000696E67206F757473696465206F662061F3
:100C3000727261792E0D0A004552524F523A20507D
:100C400072652D63616C6C2C207461736B207374FE
:100C50006F7261676520636F6E73697374656E632D
:100C60007920636865636B206661696C7572652EB7
:100C70000D0A005072652D63616C6C2C20746173D9
:100C80006B20686173206E6578745F707472207079
:100C90006F696E74696E67206F757473696465201F
:100CA0006F662061727261792E0D0A0009546173BA
:100CB0006B20257020282570292073636865647572
:100CC0006C656420617420256C75207769746820D8
:100CD000706572696F6420256C752C20256C7520F9
:100CE00063757272656E740D0A005461736B2051E6
:100CF000756575652028256875207461736B732C84
:100D00002025687520657865637574696E67293A72
:100D10000D0A004E6577205461736B2025702028E2
:100D2000257029207363686564756C65642061743F
:100D300020256C75207769746820706572696F640E
:100D400020256C752C20256C752063757272656E7C
:100D5000740D0A004552524F5221205461736B208A
:100D60006C697374206861732073656C662D72659D
:100D7000666572656E63652E0D0A004552524F52CC
:100D80003A207363686564756C65725F6D616C6C45
:100D90006F632072657475726E65642061206E6584
:100DA000775F7461736B20706F696E746572206F0A
:100DB000757473696465206F66207468652074615A
:100DC000736B2073746F72616765206172726179F1
:100DD0002E0D0A004552524F523A204E6F20656D3B
:100DE0007074792073706F7420666F756E642069FB
:100DF0006E207363686564756C65725F6D616C6CA1
:100E00006F632C20627574206E756D5F7461736BF7
:100E100073207761736E27742067726561746572E1
:100E2000207468616E206F7220657175616C206D31
:100E300061785F7461736B732E0D0A0009417474DD
:100E4000656D7074696E6720746F20726573746F5E
:100E50007265207461736B5F6C6973742E0D0A097F
:100E6000496620796F75206F6E6C792073656520F7
:100E700074686973206D6573736167652072617250
:100E8000656C792C20646F6E277420776F7272798D
:100E900020746F6F206D7563682E0D0A00455252E5
:100EA0004F523A20496E207363686564756C6572B1
:100EB0005F667265652C2074677420282558292088
:100EC000776173206F7574736964652076616C69EE
:100ED00064205461736B2A2072616E67652E0D0A5F
:100EE000004D657373616765206C656E677468207B
:100EF00077617320257A2063686172732C2077688C
:100F0000696368206578636565647320746865202B
:100F10006D6178696D756D206F6620257500636F52
:100F20006D6D616E6420737472696E673A2025730B
:100F30002C206C656E6774683A20257A0D0A004291
:100F4000726F616463617374696E6720636F6D6D46
:100F5000616E643A20222573222C206F66206C6516
:100F60006E6774682025692E0D0A004D792049446A
:100F70002069733A20253034580D0A000920227365
:100F800065745F6C656420626772203520333020A1
:100F90003022206769766573206120626C75697301
:100FA0006820677265656E2E0D0A0009206F7264F5
:100FB00065722C20696E6469636174696E67207460
:100FC0006865206272696768746E657373206F6606
:100FD00020746865206173736F6369617465642050
:100FE0004C4544732E204578616D706C653A200D38
:100FF0000A0009204C65747465727320722C672C8A
:10100000622C20696E20616E79206F726465722C8B
:1010100020666F6C6C6F7765642062792076616CF6
:1010200075657320302D3235352C20696E20736143
:101030006D65200D0A0009476F7420636F6D6D6147
:101040006E64207365745F6C65642C206275742017
:10105000617267756D656E7473202825732920771A
:1010600065726520696E76616C69642E20466F72C8
:101070006D61742073686F756C642062653A0D0A47
:1010800000476F742061646A7573745F6D6F746F6D
:10109000727320636F6D6D616E642E20646972657A
:1010A0006374696F6E3A202568752C204E65772031
:1010B00053657474696E67733A202825642C202563
:1010C000642C202564290D0A00737472746F6B20E0
:1010D00072657475726E6564204E554C4C206F6E4F
:1010E0002074686972642076616C2E0D0A00737436
:1010F00072746F6B2072657475726E6564204E55E4
:101100004C4C206F6E207365636F6E642076616C4B
:101110002E0D0A00737472746F6B20726574757291
:101120006E6564204E554C4C206F6E20666972735C
:10113000742076616C2E0D0A00426164206469722D
:10114000656374696F6E2E20476F743A2025687549
:101150002E0D0A00737472746F6B20726574757251
:101160006E6564204E554C4C206F6E20646972652C
:101170006374696F6E2E0D0A00476F742073657477
:101180005F6D6F746F727320636F6D6D616E642E2F
:1011900020646972656374696F6E3A202568752CE6
:1011A0002076616C733A202825642C2025642C203D
:1011B0002564290D0A00737472746F6B2072657454
:1011C00075726E6564204E554C4C206F6E207468AD
:1011D0006972642076616C2E0D0A00737472746FEC
:1011E0006B2072657475726E6564204E554C4C2090
:1011F0006F6E207365636F6E642076616C2E0D0ACE
:1012000000737472746F6B2072657475726E6564AE
:10121000204E554C4C206F6E206669727374207698
:10122000616C2E0D0A00426164206469726563740A
:10123000696F6E2E20476F743A202568752E0D0A4F
:1012400000737472746F6B2072657475726E65646E
:10125000204E554C4C206F6E206469726563746932
:101260006F6E2E0D0A00723A202568752C20673AA1
:10127000202568752C20623A202568750D0A0077B4
:10128000616C6B20646972656374696F6E20256898
:10129000752C206E756D5F73746570732025750DE8
:1012A0000A007072696E745F6D6F746F725F736540
:1012B0007474696E67730077726974655F6D6F74BB
:1012C0006F725F73657474696E67730072657365BE
:1012D00074007461736B7300746774006D73675F7F
:1012E000747374006D7367007467745F636D64007A
:1012F000636D640062726F6164636173745F6964DB
:10130000006765745F6964007365745F6C65640091
:10131000726E625F62007365745F646973745F709C
:1013200065725F737465700061646A5F6D6F746F7E
:101330007273007365745F6D6F746F727300737492
:101340006F705F77616C6B00636F6C6C00736574BA
:101350005F6972006765745F7267620077616C6BCA
:10136000006D6F76655F73746570730009436F6D10
:101370006D616E6420282025732029206E6F7420F3
:101380007265636F676E697A65642E0D0A00636427
:10139000696E6F70737578585B6566674546470080
:1013A000616E006E66696E69747900CDCCCC3D0AC1
:1013B000D7233C17B7D13877CC2B329595E6241F2D
:1013C000B14F0A000020410000C84200401C4620E6
:1013D000BCBE4CCA1B0E5AAEC59D740011241FBE64
:1013E000CFEFCDBFDFE3DEBF00E00CBF15E2A0E032
:1013F000B0E2EEEFFDEF00E00BBF02C007900D92F0
:10140000AA30B107D9F72AE2AAE0B5E201C01D92DD
:10141000A635B207E1F70E943F140C94FD7E0C94B0
:1014200000000FB6F894609108047091090480914F
:10143000A0269091A1260FBE08954F925F926F92C1
:101440007F928F929F92AF92BF92CF92DF92EF9254
:10145000FF920F931F93CF93DF937C018B01A0909A
:10146000342AB090352AC091362AD091372AFC010F
:10147000608171816A197B09072E000C880B990B1A
:101480000E9414732B013C01F701628173816C1B74
:101490007D0B072E000C880B990B0E941473A3017F
:1014A00092010E94C7716B017C01F801608171811A
:1014B0006A197B09072E000C880B990B0E94147384
:1014C0004B015C01F801628173816C1B7D0B072E5F
:1014D000000C880B990B0E941473A50194010E94C3
:1014E000C7714B015C019B01AC01C701B6010E94B1
:1014F000267287FD1FC0D1E0C0E0A5019401C7019D
:10150000B6010E94AC7418169CF48D2F9C2FDF91AD
:10151000CF911F910F91FF90EF90DF90CF90BF90F0
:10152000AF909F908F907F906F905F904F900895B5
:10153000D0E0EBCF8FEF9FEFEACFCF93DF93CDB724
:10154000DEB72797CDBFDEBFE4E3FAE28081918169
:1015500089839A83828193818B839C838481958103
:101560008D839E8380E58F8347E0BE016F5F7F4F51
:101570008FE30E944C232796CDBFDEBFDF91CF9132
:1015800008952F923F924F925F926F927F928F9227
:101590009F92AF92BF92CF92DF92EF92FF920F9302
:1015A0001F93CF93DF93CDB7DEB76797CDBFDEBF75
:1015B0000E94110A6B017C012091342A3091352A56
:1015C0002A833B832115304809F42DC28091362AA5
:1015D0009091372A888799878115904809F423C20A
:1015E0008091382A9091392A8115904809F41BC2BC
:1015F00000913E2A10913F2A011520E8120709F4B4
:1016000012C2A090402AB090412AA11430E8B3063B
:1016100009F409C280913A2A90913B2AA0913C2A70
:10162000B0913D2A26013701481A590A6A0A7B0AF5
:101630006091422A6D8BA62F660FBB0BA30192010E
:101640000E9474770E94147320E030E04AE754E46B
:101650000E9430720E94DC726A8B7B8BF801E60F6D
:10166000F71FEC83FD83E0933E2AF0933F2AF0912D
:10167000432AFC8BAF2FFF0FBB0BA30192010E94EB
:1016800074770E94147320E030E04AE754E40E942B
:1016900030720E94DC728B019501260F371F2E835A
:1016A0003F832093402A3093412AC0923A2AD09215
:1016B0003B2AE0923C2AF0923D2AE0907B28F09071
:1016C0007C2868857985621B730B072E000C880BBC
:1016D000990B0E9414734B015C016A817B818C81A0
:1016E0009D81681B790B072E000C880B990B0E94BB
:1016F0001473A50194010E94BF740E94E3726A876B
:101700007B876093DC277093DD27E114F10409F4F3
:1017100067C1EE81FF8128853985E21BF30BEC87D9
:10172000FD878C819D81EA81FB818E1B9F0B8E87BB
:101730009F872E813F81020F131FC801E885F9851D
:101740008E1B9F0B888B998B2A893B898C819D816D
:10175000280F391FEA81FB812E1B3F0B2A8B3B8B05
:10176000F70120813181E0EFF7E21E8A1F8A808134
:1017700091812817390709F482C18E899F890196C2
:101780008E8B9F8B38960C9791F71E8A1F8AEE8955
:10179000FF892280338000811181B1012E813F8138
:1017A000621B730B072E000C880B990B0E9414739D
:1017B0004B015C01B8018C819D81681B790B072E60
:1017C000000C880B990B0E941473A50194010E94D0
:1017D000BF740E94E3726B01EA85FB85E617F70789
:1017E00008F041C148012A813B81821A930A8C8505
:1017F0009D85889DB001899D700D989D700D112467
:101800005101E885F985AE1ABF0A2E853F852A9DCC
:10181000C0012B9D900D3A9D900D1124681B790BF2
:10182000072E000C880B990B0E9414732B013C01AE
:1018300088899989889DB001899D700D989D700D4A
:101840001124EA89FB89EA9DC001EB9D900DFA9D68
:10185000900D1124681B790B072E000C880B990B37
:101860000E9414734B015C01F1E0F98320E030E049
:10187000A901C301B2010E94AC7418160CF00EC18C
:1018800020E030E0A901C301B2010E942672881F46
:101890008827881F6980681A7724739420E030E0D5
:1018A000A901C501B4010E94AC7418160CF0F4C073
:1018B00020E030E0A901C501B4010E942672881F12
:1018C0008827881F781A671409F4CDC08E899F89EC
:1018D0008E839F83C0927728D09278288091E427C6
:1018E00081113CC08091B42680FF38C0982F92713E
:1018F00009F4D6C02C89121614F4817179F1809103
:10190000862881112BC040E060E08FEF0E944A5A88
:101910008FE08093442A40E060E08FEF0E944A5AB3
:101920006091422A6D8B8091432A8C8BE091362AFC
:10193000F091372AE887F9872091342A3091352AA7
:101940002A833B8380913E2A90913F2A8C839D83FA
:10195000EE81FF8122803380008111814885598585
:10196000421953092A813B81021B130B449F9001AA
:10197000459F300D300D1124009FC001019F900D37
:10198000900D1124280F391F6D896403F001659FA4
:10199000F00D11246C896003C001619F900D11242A
:1019A000E80FF91F4E9FC0014F9F900D5E9F900D55
:1019B0001124B9010E942777660F8D89861B8093B9
:1019C000422A0E9FC0010F9F900D1E9F900D112463
:1019D000B9010E942777660F8C89861B8093432A62
:1019E0000C811D810A561F4F0D32114048F4809121
:1019F000402A9091412A8A569F4F8D329140E8F0BB
:101A000080E090E880933E2A90933F2A8093402A7A
:101A10009093412A8093DC279093DD278093772849
:101A2000909378280AC080E090E88093DC27909318
:101A3000DD2780937728909378286796CDBFDEBF07
:101A4000DF91CF911F910F91FF90EF90DF90CF909A
:101A5000BF90AF909F908F907F906F905F904F90CE
:101A60003F902F900895F701E280F380E114F10494
:101A700009F076CEC0927728D0927828B1CF2E89FF
:101A80003F89220F331F220F331F220F331F26518E
:101A9000384D2E8B3F8B7BCE712C0ACF1982F0CE26
:101AA000817109F45BCF3C8937FD58CF28CF8FEF88
:101AB0009FEF8093E5279093E62710927E2810925F
:101AC0007F2810928028109281280E94110A60932A
:101AD0006B2870936C2880936D2890936E284091AA
:101AE000992650919A269A01ADEABBE10E9465774A
:101AF000969587959695879565E2689F9001699F71
:101B0000300D1124CA01821B930B8093E22790931E
:101B1000E327EAEEF7E220E030E840E050E82083F7
:101B20003183228333832483358316821782389648
:101B300068E2E235F60789F721E02093B426109297
:101B4000F2292093E4271092E9271092282A109274
:101B5000292A10922A2A10922B2A10928228109257
:101B60008328109284281092852810927B28109246
:101B70007C2810923A2A10923B2A10923C2A10920A
:101B80003D2A40933E2A50933F2A4093402A509347
:101B9000412A1092422A1092432A1092442A10920B
:101BA000452A1F921F922AE32F932EEE2F939F9385
:101BB0008F9380EF90E29F938F930E94D87D8DB793
:101BC0009EB708968DBF9EBF88EC90E00C94D327FB
:101BD000CF92DF92EF92FF92CF932091DC2730914A
:101BE000DD27211580E83807B1F1C091452A8C2FF7
:101BF00090E0AC014A5E5F4F2417350760F54091D5
:101C0000442A4F3041F1C63178F546E150E0481B97
:101C1000590B2417350708F442C0BC01621B730B33
:101C20006A5E7F4F80E090E00E9412736B017C013E
:101C30006C2F70E080E090E00E94127320E030E0B2
:101C400042E754E40E9430729B01AC01C701B60127
:101C50000E94E47503C060E070E0CB01CF91FF907B
:101C6000EF90DF90CF900895AC01465151092417B1
:101C70003507A8F0BC01621B730B6A5E7F4F80E0E2
:101C800090E00E9412732CE83EE24AEB5CE30E9473
:101C9000E475CF91FF90EF90DF90CF90089560E0D2
:101CA00070E080E89FE3CF91FF90EF90DF90CF90BE
:101CB0000895CF92DF92EF92FF920F931F93CF93ED
:101CC000DF938091E42781113DC08091B42680FF8D
:101CD00039C08371B9F18091342A9091352A8C01F1
:101CE0000A5E1F4F2091B1263091B226201731078E
:101CF0004CF5EC0166976091AE267091AF26C61741
:101D0000D70704F5601771074CF52C173D075CF1F8
:101D1000621B730B072E000C880B990B0E94147327
:101D20006B017C01B8016C1B7D0B072E000C880B2E
:101D3000990B0E9414739B01AC01C701B6010E946C
:101D4000307203C060E070E0CB01DF91CF911F9152
:101D50000F91FF90EF90DF90CF9008952C173D07E3
:101D60002CF0B801D5CF6C1B7D0BD4CF60E070E0B8
:101D700080E89FE3EACFCF92DF92EF92FF92CF937A
:101D8000DF9300D0CDB7DEB71B821A821982809113
:101D9000F229882371F1813079F080E060E040E041
:101DA0000E944A5A2396CDBFDEBFDF91CF91FF90AC
:101DB000EF90DF90CF9008950E94E80D6B017C01B9
:101DC0000E94590E9B01AC01C701B6010E944871E7
:101DD0006B017C0120E030E040E85FE30E94AC74DE
:101DE0001816ACF44FEF4B834A834983842F642F3A
:101DF000D7CFAE014F5F5F4FBE016E5F7F4FCE0109
:101E000003960E94223949816A818B81C9CF2AE0D9
:101E100037ED43E25CE3C701B6010E94AC741816CB
:101E200014F040E0E0CFA701960160E070E08CE4A0
:101E300092E40E94517620E030E040EA50E40E94B3
:101E4000E4750E94E3727727462FCDCFCF92DF92C1
:101E5000EF92FF920F931F93CF93DF9300D000D0A8
:101E6000CDB7DEB7AE014F5F5F4FBE016D5F7F4FF5
:101E7000CE0105960E948A5D0D811E818B819C8119
:101E8000080F191F89819A81080F191F0E94110AD2
:101E90006B017C010A3111050CF043C080919C2636
:101EA00090919D26A0919E26B0919F26A701960114
:101EB000281B390B4A0B5B0BCA01B9010E94127334
:101EC0002AE939E949E95EE30E94E4759B01AC0126
:101ED0006091232A7091242A8091252A9091262AA4
:101EE0000E9448716093232A7093242A8093252AA4
:101EF0009093262A81E080938628C0929C26D092D7
:101F00009D26E0929E26F0929F262696CDBFDEBFAC
:101F1000DF91CF911F910F91FF90EF90DF90CF90C5
:101F2000089509321105BCF480919C2690919D265C
:101F3000A0919E26B0919F26A7019601281B390BE0
:101F40004A0B5B0BCA01B9010E9412732DEC3CECE9
:101F50004CE45EE3B9CF0D331105BCF480919C26AF
:101F600090919D26A0919E26B0919F26A701960153
:101F7000281B390B4A0B5B0BCA01B9010E94127373
:101F80002DEC3CEC4CEC5DE39FCF10928628B5CF56
:101F90000F931F930E94110A00916B2810916C28D7
:101FA00020916D2830916E28601B710B820B930B72
:101FB0006F3E4AE374078105910520F16E5E7A4316
:101FC000810991090251154C2F4F3F4F00936B2807
:101FD00010936C2820936D2830936E2800917E28F2
:101FE00010917F2820918028309181280F5F1F4F0A
:101FF0002F4F3F4F00937E2810937F2820938028F7
:10200000309381282DE831E040E050E00E943B779A
:102010008091E5279091E627A0E0B0E08217930732
:10202000A407B507E9F0C9012093E5273093E62717
:102030002091E2273091E32782179307D9F1859702
:1020400009F445C080913A2A90913B2AA0913C2AFC
:10205000B0913D2A892B8A2B8B2B49F50E94BB0E10
:102060008091B42680FF02C08371F1F480917A28B8
:102070008823A1F020917328309174284091712811
:102080005091722860916F28709170288091752806
:10209000909176280E94173410927A2881E190E07E
:1020A0001F910F910C94C3130E94260FDFCF0E9443
:1020B000C10AD4CF0E94D75920E030E04DE95AE060
:1020C00060EF70E080E090E00E943760BBCF2DE1D0
:1020D0003AE048E050E06DE070E08AEE97E20E945E
:1020E000EF780E94110A9F938F937F936F93809153
:1020F0009A268F93809199268F938BE195E09F93F9
:102100008F930E94EC7D8DB79EB708968DBF9EBFC2
:102110008091B426813109F492C0833109F481C0E1
:10212000813009F495C08AE291E29F938F930E94D7
:10213000D87D0F900F9088E195E09F938F930E9438
:10214000EC7D8091342A9091352A0F900F90811563
:1021500020E8920709F46EC02091362A3091372A80
:10216000211540E8340709F465C04091382A5091A0
:10217000392A411560E8560709F45CC05F934F9314
:102180003F932F939F938F9380E095E09F938F933E
:102190000E94EC7D82EA96E20E94B93980E391E2E6
:1021A0000E941A7E8DB79EB708968DBF9EBF809104
:1021B0003E2A90913F2A811520E8920709F442CFE8
:1021C0002091402A3091412A211540E8340709F432
:1021D00039CF4091432A642F042E000C770B7F9354
:1021E0004F934091422A642F042E000C770B7F936B
:1021F0004F933F932F939F938F938091452A1F92E4
:102200008F938091442A1F928F9383EC94E09F9345
:102210008F930E94EC7D8DB79EB70E968DBF9EBFAB
:1022200011CF8EE191E29F938F930E94D87D0F9002
:102230000F9081CF8EE291E20E941A7EB8CF82E1A8
:1022400091E29F938F930E94D87D0F900F9073CF50
:1022500088E191E29F938F930E94D87D0F900F9019
:102260006ACF8F929F92AF92BF92CF92DF92EF92FE
:10227000FF920F931F93CF936C014A015B01FC0106
:102280008381082F05950595059505950595002EE3
:10229000000C110B102F00279181092BF8E08F0201
:1022A00070011124F594E794F594E794F594E7947C
:1022B000F594E794F594E794FE2CEE24F6019281D0
:1022C000E92AC681C370CC0FCC0F8370C82BCF30E6
:1022D00091F18091E927C817D1F100933E2A10931C
:1022E0003F2AE092402AF092412AC093442AF60104
:1022F00084818093422A85818093432A86818C7FC2
:102300008093452AF4E08F1A9108A108B1088092C1
:102310003A2A90923B2AA0923C2AB0923D2ACF9131
:102320001F910F91FF90EF90DF90CF90BF90AF90F3
:102330009F908F9008958091442A8F3069F0809308
:10234000E92740E060E08FEF0E944A5AC6CF8091B3
:10235000442A8F3011F6E3CF8091E927C813BDCF0F
:10236000DECFEF92FF920F931F93CF93DC0116966F
:10237000ED91FC9117972081223409F476C01996CB
:102380002C9119973289383509F481C08D018681E5
:10239000803509F443C0D80115968C9115978F9319
:1023A00014968C918F931F922F9388EA94E09F93B9
:1023B0008F930E94EC7D0F900F900F900F900F90D5
:1023C0000F90F8018185882301F1C0E08CE4E82EAC
:1023D00081E2F82ED8011696ED91FC911797EC0F3B
:1023E000F11D9081292F092E000C330B3F939F93F1
:1023F000FF92EF920E94D87DCF5F0F900F900F90C9
:102400000F90F8018185C81728F380E391E2CF91FE
:102410001F910F91FF90EF900C941A7E273009F0D6
:10242000BACF85818F9384818F9383818F938281AB
:102430008F9381818F9380818F9315968C911597BF
:102440008F9314968C918F9382E391E29F938F9355
:102450000E94D87D8DB79EB70A968DBF9EBFCF9143
:102460001F910F91FF90EF90089519962C91199755
:10247000273009F087CF4D915D916D917C91CF010F
:10248000CF911F910F91FF90EF900C943111233158
:1024900009F07CCF14966D917C911597CF01CF9167
:1024A0001F910F91FF90EF900C947B384F925F92A9
:1024B0006F927F928F929F92AF92BF92CF92DF9254
:1024C000EF92FF920F931F93CF93DF931F921F9270
:1024D000CDB7DEB78C017B0163EA74E00E94D57C46
:1024E000892B09F0D7C08091342A9091352A811523
:1024F000904809F4F5C08091362A9091372A8115C9
:10250000904809F4EDC08091382A9091392A8115BC
:10251000904809F4E5C080E290E089839A83BE0187
:102520006F5F7F4FC7010E94E97C009709F422C1C9
:102530000E94C37BD82EE82E880FFF08BE016F5F74
:102540007F4F80E090E00E94E97C009709F418C179
:102550000E94C37B8C7FC82E8091342A9091352AAB
:1025600080933E2A90933F2A8091362A9091372A71
:102570008093402A9093412A0E946D4F8C016D2DCB
:10258000DD0C770B880B990B0E9414734B015C01D7
:102590009801A3E8BDE20E9465770024880F991F87
:1025A000001C880F991F001C892F902D48E651E0D0
:1025B000849F9001859F300D949F300D1124B801A8
:1025C000621B730B072E000C880B990B0E9414736F
:1025D00020E030E044E353E40E9430722BED3FE012
:1025E00049E450E40E94E4752B013C0120E030E016
:1025F000A9010E94AC742BED3FE049E450E487FD53
:10260000A8C0C301B2010E9448712BED3FE049EC24
:1026100050E40E945A732BED3FE049E450E40E94DD
:1026200047712B013C010E942B729B01AC01C5013B
:10263000B4010E94E4750E94DC726093422AC301D7
:10264000B2010E94A1769B01AC01C501B4010E94B8
:10265000E4750E94DC726093432A81E08093442AEF
:10266000C092452A0E94110A60933A2A70933B2A2D
:1026700080933C2A90933D2AFF92EF9283E591E26A
:102680009F938F930E94D87D0F900F900F900F9083
:1026900081E03AC06EE974E0C8010E94D57C892BC4
:1026A000B1F4F7018081873609F44BC0803709F017
:1026B00048C01092F229F7018181823609F445C0A1
:1026C000803709F042C01092E42781E01DC064E920
:1026D00074E0C8010E94D57C892B49F180E014C0C8
:1026E00000917A0A10917B0A8FEF90E080937A0A2A
:1026F00090937B0A85E791E20E941A7E112700934E
:102700007A0A10937B0A81E00F900F90DF91CF91AE
:102710001F910F91FF90EF90DF90CF90BF90AF90FF
:102720009F908F907F906F905F904F90089540E0C2
:1027300060E08FEF0E944A5A8FE08093442A81E044
:10274000E3CF81E08093F229B6CF81E08093E42744
:10275000DBCFC301B2010E9447712BED3FE049EC92
:1027600050E40E945A732BED3FE049E450E40E948C
:10277000487157CF4AE0E42EF12C5AE0D52EDECE38
:102780003CE3C32EE9CECF92DF92EF92FF927C0121
:10279000F8940E94110A78949B01AC012E0D3F1D04
:1027A000411D511D69017A0105C078943AE63A95B8
:1027B000F1F700C0F8940E94110A6C157D058E0592
:1027C0009F0598F37894FF90EF90DF90CF90089555
:1027D00040E060E084E60E944A5A84E690E00E946D
:1027E000C31340E064E680E00E944A5A84E690E029
:1027F0000E94C31344E660E080E00E944A5A84E6E7
:1028000090E00E94C3130E943F5A40E060E084E6DB
:102810000E944A5A84E690E00E94C31340E064E6B6
:1028200080E00E944A5A84E690E00E94C31344E686
:1028300060E080E00E944A5A84E690E00E94C31360
:102840000E943F5A40E060E084E60E944A5A84E6D3
:1028500090E00E94C31340E064E680E00E944A5A80
:1028600084E690E00E94C31344E660E080E00E94AA
:102870004A5A84E690E00E94C3130C943F5ACF93C7
:10288000DF93CDB7DEB7CB54D109CDBFDEBFF8940F
:1028900088ED84BF82E0809350008091510081FFD9
:1028A000FCCF88ED84BF81E08093400085E0809379
:1028B00043008091010480FDFCCF8FEF9FEF809358
:1028C0000A0490930B0481E080930004809101043A
:1028D00080FDFCCF109208041092090482E08093DE
:1028E000CA0180E4E0E2F0E29E012F5F3F4F590110
:1028F000D90101900D928A95E1F7D9018E010F5B04
:102900001F4F80E090E04D915D916D917D916BBF87
:10291000FA01479156918427482F42954827042E63
:10292000469546954025042E469540254770082E2D
:10293000892F469507944795902D842706944795AF
:1029400090258427A017B107F1F61092CA01809351
:10295000992690939A260E94005E0E94F14D0E9453
:10296000215A0E94E14E0E9417188091A2008160B6
:102970008093A2008091A20082608093A200809147
:10298000A20084608093A2008091A200806880935E
:10299000A20078940E94F94F0E94375D0E94302770
:1029A0000E9420280E94DF4C0E94024F0E94A43304
:1029B0000E94D91680E091E00E94D3270E94E8137C
:1029C0000E94641F0E94570D86E0382E97E5892EDD
:1029D00095E0992E21E3522E3FE2C32E35E0D32E0F
:1029E00040EC642E45E0742E0E94C80FD801169664
:1029F000AD92BC92179780919B26882309F444C01E
:102A000067C05E9CB0015F9C700D1124FB01EB540C
:102A1000F94D7F0147A550E06554794DD8011696D0
:102A20008D919C9117970E94ED7CF7018081918197
:102A3000A281B381F80180839183A283B383D701FC
:102A400014968D919C911597848395839E968C9175
:102A50009E9780879F968C919F978187D0968C9127
:102A600082878091E02781508093E0274FBEF70155
:102A700087A5D8011696ED91FC911797E80FF11DE7
:102A80001082C8010E94B1118091E0278823B9F01B
:102A9000E090E0274FB6F894EA94F12C5E9CF001A8
:102AA0005F9CF00D1124EB54F94D87A58111A9CF3E
:102AB000DF92CF920E94EC7D0F900F90A2CF809179
:102AC000F129882381F081E090E00E94C3138CCF2C
:102AD0003092E02710929B269F928F920E94EC7D6D
:102AE0000F900F90D1CF0E94110AE091322AF091FD
:102AF000332A2081318142815381DC01CB01821B49
:102B0000930BA40BB50B893B9B40A105B105DCF2EF
:102B10007F926F920E94EC7D0E94425E0F900F9018
:102B2000D2CF2091CF0127FDFCCF8093C0019F71B0
:102B30009093C1011092C20186E08093CA01EBEC30
:102B4000F1E021E030E088ED90E084BF20838091C7
:102B5000C40108952091CF0127FDFCCF2091CF0122
:102B600021FF0BC026E32093CA01EBECF1E041E02A
:102B700050E028ED30E024BF408323E32093CA01D6
:102B80008093C0019F719093C1011092C201609324
:102B9000C40185E38093CA01EBECF1E021E030E071
:102BA00088ED90E084BF20830895BF92CF92DF929A
:102BB000EF92FF920F931F93CF93DF93E091E7275C
:102BC000F091E827C281D381EC17FD0709F46FC0AB
:102BD000C12CD12C76016881798180E090E00E943F
:102BE0001273A70196010E94477120E030E040E790
:102BF00052E40E9430729B01AC01C701B6010E94F1
:102C000048716B017C010A811B81BFB6F894CE012B
:102C10000E941F78BFBEE8018091E7279091E827C6
:102C200080179107C1F6C701B6010E94E372F8014F
:102C30000283138304831583C091200AD091210A53
:102C400080912A0A90912B0AC817D907A0F0C60FC5
:102C5000D71FC134FDE9DF0718F5C093200AD093D0
:102C6000210ADF91CF911F910F91FF90EF90DF909C
:102C7000CF90BF900895C60FD71F80912A0A9091D8
:102C80002B0A8C179D0728F740910E2560910F2580
:102C9000809110250E944A5AC134FDE9DF07E8F20D
:102CA00080E49DE98093200A9093210ADACF8F0176
:102CB00060E070E0BCCF9C0140E460E070E08FE336
:102CC0000E94F22020E030E045ED55E168EC70E034
:102CD00080E090E00E94376008951F920F920FB637
:102CE0000F9211240BB60F922F933F934F935F9344
:102CF0006F937F938F939F93AF93BF93EF93FF93C4
:102D0000E0E4FAE082AD93AD8093102580AD91AD03
:102D100080930F25809178099091790980930E25F1
:102D20004091112560911225809113250E944A5AE5
:102D3000FF91EF91BF91AF919F918F917F916F9193
:102D40005F914F913F912F910F900BBE0F900FBE4F
:102D50000F901F9018951F920F920FB60F9211248B
:102D60000BB60F922F933F934F935F936F937F9385
:102D70008F939F93AF93BF93EF93FF9340910E2553
:102D800060910F25809110250E944A5AFF91EF9182
:102D9000BF91AF919F918F917F916F915F914F9173
:102DA0003F912F910F900BBE0F900FBE0F901F9071
:102DB0001895CF938FEF80931325809312258093DE
:102DC000112588EC90E080930C2590930D258CE8DC
:102DD00080938001E0E0FAE088E08083118281E462
:102DE0009DE986A397A383E08683178210A211A290
:102DF00010A611A612A613A6CFB7F89486E090E00D
:102E00000E948777FC01CFBF8093E7279093E82744
:102E1000108211828283938384839583CF91089556
:102E20001F920F920FB60F9211240BB60F92CF92F2
:102E3000DF92EF92FF920F931F932F933F934F9345
:102E40005F936F937F938F939F93AF93BF93CF9332
:102E5000EF93FF930E94110A6B017C010E946D4F5A
:102E6000AC019C01ADECBCEC0E946577880F892F0A
:102E7000881F990B919560EA689F9001699F300DBA
:102E80001124BA01621B730B80E090E096014BE5C0
:102E900056E10E943760CFB7F8940E94110A6B0187
:102EA0007C0121E234E140E050E00E943B77613157
:102EB0002AE0720708F453C021E234E1261B370BE5
:102EC00080910A0490910B04821B930B8C159D0535
:102ED00048F48091A0269091A12601968093A02687
:102EE0009093A1268091010480FDFCCFC20ED31ED9
:102EF000C0920804D092090480910C0490910D04B2
:102F0000820F931F80930C0490930D04CFBFC901CF
:102F100037FD37C08139910544F412161306B4F514
:102F2000809154008F5F80935400FF91EF91CF9177
:102F3000BF91AF919F918F917F916F915F914F91D1
:102F40003F912F911F910F91FF90EF90DF90CF90C5
:102F50000F900BBE0F900FBE0F901F901895222759
:102F60003327261B370BC616D70608F0BBCF809138
:102F7000A0269091A12601978093A0269093A12648
:102F8000B1CF88279927821B930BC4CF4D976CF63E
:102F900080915400815080935400C7CFCF93DF932A
:102FA000E091462AF091472A9789911130C091E02B
:102FB000978B108E880F8283442359F0DB0180E0C9
:102FC00090E03D91EF01C80FD91F3B830196841714
:102FD000C0F3438B248B158A168A838981110DC017
:102FE0008489882301F1828181600190F081E02D44
:102FF000868381E0DF91CF91089582818E7F019059
:10300000F081E02D868381E0DF91CF91089585E006
:1030100096E09F938F930E94EC7D0F900F9080E03D
:10302000DF91CF91089581E0DF91CF910895E0E2A3
:10303000F6E080E28283858B83E080938106A2E5BF
:10304000B8E2A093462AB093472AE0EAF4E0ED9371
:10305000FC9388EF81838BE9858381E084830895E5
:10306000493010F080E0089520E00C94CE17CF9303
:10307000DF93E091462AF091472A93892489A08121
:10308000B18114968C91149784FD1CC08589891791
:1030900060F086898217F8F083E013968C9381E0C4
:1030A000808F178ADF91CF9108958589EF01C80F2E
:1030B000D11D8B8117968C9385898F5F858BDF91CE
:1030C000CF91089583E013968C9385E0808F178AC3
:1030D000DF91CF9108958281816016968C93DF9164
:1030E000CF910895CF93DF93E091462AF091472A3C
:1030F0008689A081B1818830C0F417968C9117978A
:103100009689EF01C90FD11D8B8786898F5F868BCA
:10311000948986898917A8F087E013968C9381E0BB
:10312000808F178ADF91CF91089583E013968C9357
:1031300082E0808F178AA081B1819489868989175E
:1031400058F782E013968C93DF91CF910895E09128
:10315000462AF091472AA081B18114968C91149748
:10316000982F9C7041F486FD19C087FD19C086E038
:10317000808F178A089514968C91149782FD07C04A
:1031800093E0908F886014968C93178A089594E04A
:10319000908F886014968C93178A08950C94371832
:1031A0000C9472181F920F920FB60F9211240BB647
:1031B0000F922F933F934F935F936F937F938F93D0
:1031C0009F93AF93BF93EF93FF930E94A718FF9134
:1031D000EF91BF91AF919F918F917F916F915F918F
:1031E0004F913F912F910F900BBE0F900FBE0F90FC
:1031F0001F9018955FB7F894E0E0FBE04181282F1D
:1032000030E0D901AC54BE4D9C91909594239183AC
:1032100099E3929FF001939FF00D1124E556F74D2D
:1032200010AE16AA12861386108611861682178291
:10323000220F331FF901EA5FFF4D0190F081E02D6D
:103240009181906491839481906194834091272A25
:1032500021E030E0B90102C0660F771F8A95E2F7DE
:10326000CB01809584238093272A5FBF08952F92F6
:103270003F924F925F926F927F928F929F92AF9206
:10328000BF92CF92DF92EF92FF920F931F93CF9353
:10329000DF93CDB7DEB72D97CDBFDEBFCE01019650
:1032A0006C018CE0D6011D928A95E9F786E0A82E84
:1032B00080E2B82E99EA892E98E2992E3601BFEF66
:1032C000BD87E12CF12C312C29E3422E31E3532E22
:1032D0004E9CD0014F9CB00D1124A556B74DD896E9
:1032E0008C91D89781FF3BC08D858F3F09F460C0DA
:1032F00090E0149602C0815080F02D913C9111977E
:10330000E82FEE0FFF0BEC0DFD1D408151814217A0
:10331000530789F791E0815080F74E9CF0014F9C54
:10332000F00D1124E556F74D24813581D3012D93FD
:103330003C93992309F443C01482158216821782A4
:1033400010861186128613861486158616AA17AA69
:1033500010AED501ED91FC9184818061848333941A
:10336000BFEFEB1AFB0AE2E0AE0EB11CF9E38F0EE1
:10337000911C22E0620E711C8D858F5F8D8796E017
:103380003912A6CF2D96CDBFDEBFDF91CF911F9111
:103390000F91FF90EF90DF90CF90BF90AF909F90F4
:1033A0008F907F906F905F904F903F902F900895F7
:1033B00014968D919C911597D3018D939C93809138
:1033C000E027863028F0B1E0B0939B261092E027EA
:1033D0002FB6F8944E9CF0014F9CF00D1124E55649
:1033E000F74D86A9882309F478C04E9C80014F9C34
:1033F000100D11240556174DD801D6964C91809189
:10340000E027589EC001112450E0B4018554994D25
:103410000E94ED7CE091E027D801D6968C91D6975A
:103420005E9EF0011124EB54F94DE80FF11D168258
:103430002091E0278D919D910D90BC91A02D529EE1
:10344000F0011124EB54F94D80839183A283B3835F
:10345000E091E0275E9EF0011124EB54F94D36A671
:10346000E091E027D80116968D919C9117975E9E6A
:10347000F0011124EB54F94D84839583E091E0270A
:10348000D6968C91D6975E9EF0011124EB54F94D9F
:1034900087A7E091E027D8968C91829581705E9EF7
:1034A000F0011124EB54F94D80ABE091E0275E9ED2
:1034B000F0011124EB54F94D87A58932B8F48091BD
:1034C000E0278F5F8093E0272FBE4E9CF0014F9C3A
:1034D000F00D1124E556F74D2FCFE9EDF6E0FF93FF
:1034E000EF930E94EC7D0F900F907FCFEEEBF6E014
:1034F000FF93EF930E94EC7D0F900F90E0CFEF923F
:10350000FF920F931F93CF93DF93CDB7DEB70DB725
:103510001EB7809155259091562501962DB73EB73F
:10352000281B390B2DBF3EBF8DB79EB701967C017E
:1035300040915525509156254F5F5F4F65E175E2EB
:103540000E94ED7C6091552570915625C7010E941F
:10355000B7638FB7F894109258258FBF0DBF1EBF69
:10356000DF91CF911F910F91FF90EF9008950F93EE
:103570001F93CF93DF93982FC82FD0E089E3989FB4
:10358000D0011124A556B74D1A96ED91FC911B97C9
:10359000E830F10508F449C01A968D919C911B976B
:1035A0000897A80FB91F1E968C9180931425FE01D1
:1035B000EE0FFF1FEA5FFF4DA081B18180911425BE
:1035C0008C9389E38C9FF0018D9FF00D1124E556BB
:1035D000F74D82859385019682879387228533856F
:1035E00086A990E0089628173907D0F01482158232
:1035F0001682178210861186128613861486158607
:1036000016AA17AA10AE14968C911497806114967E
:103610008C93149713968C9113978C7F13968C939D
:10362000DF91CF911F910F9108958827E250FF4FAE
:103630008F4F0C945D7789E38C9FF0018D9FF00D87
:103640001124E556F74D8085918590931425AFCFD1
:1036500089E38C9F80018D9F100D11240556174D15
:10366000F80180AD86FD60C0986F909314259FCFC0
:1036700089E38C9FF0018D9FF00D1124E556F74DE5
:10368000868197818093142592CF89E38C9FF001E6
:103690008D9FF00D1124E556F74D8681978190930B
:1036A000142585CF89E38C9FF0018D9FF00D1124A7
:1036B000E556F74D848195818093142578CF89E371
:1036C0008C9FF0018D9FF00D1124E556F74D8481FC
:1036D0009581909314256BCF89E38C9FF0018D9F8A
:1036E000F00D1124E556F74D86A98F7380931425AC
:1036F00080AD909114258078892B8093142580AD1E
:10370000909114258074892B8093142550CF89E3E0
:103710008C9FF0018D9FF00D1124E556F74D8085AB
:1037200091858093142543CF0E94110AF8012085CA
:103730003185621B730B6F3F710518F4609314257C
:1037400036CF8FEF8093142532CF4F925F926F92D6
:103750007F92AF92BF92CF92DF92EF92FF920F9340
:103760001F93CF93DF93F82EC82FD0E08E01000F68
:10377000111F98012A5F3F4D6901D901ED91FC911C
:10378000E0800E94110A29E32C9FF0012D9FF00D8B
:103790001124E556F74D40805180628073809B0173
:1037A000AC01241935094609570929013A0131E1CB
:1037B000431651046104710498F014821582168234
:1037C000178210861186128613861486158616AA0D
:1037D00017AA10AED601ED91FC91248120612483BB
:1037E00029E32C9FD0012D9FB00D1124A556B74D74
:1037F0006D937D938D939C9313971A96ED91FC9105
:103800001B97E830F10508F495C01A96ED91FC91EC
:103810001B973897EA0FFB1FE6861C968D919C91AB
:103820001D978E25282F22952827022E269526952E
:103830002025022E269520252770082E892F2695D3
:1038400007942795902D8227069427959025822707
:103850001C968D939C931D9789E38C9FF0018D9FFF
:10386000F00D1124E556F74D8285938501968287E8
:1038700093872285338586A990E008962817390713
:1038800008F449C080859185892B09F059C080E0F2
:1038900099E39C9FF0019D9FF00D1124E556F74D93
:1038A00090AD892B80AF2485358584819581648591
:1038B0007585468057804091992650919A26E0ACB4
:1038C000BE2DB0747B2EE6FC04C0C084D184CD280C
:1038D000C9F5E0E028173907F1F189E38C9FF00181
:1038E0008D9FF00D1124E556F74D14821582168236
:1038F000178210861186128613861486158616AADC
:1039000017AA10AEF801EA5FFF4D0190F081E02D9B
:10391000848180618483DF91CF911F910F91FF900B
:10392000EF90DF90CF90BF90AF907F906F905F90BF
:103930004F9008958827EA5FFE4F8F4F0C945D7774
:1039400080E1A6CFC084D184E1E0C416D50609F297
:103950002817390711F6672B09F4BFCF441655060F
:1039600009F4BBCFE111B9CF89E371105FC18C9F1E
:10397000B0018D9F700D1124FB01E556F74D6F01CD
:1039800087A9877087AB80AD87FDE2C0EFB6F8945A
:1039900089E38C9FF0018D9FF00D1124E556F74DC2
:1039A00080AD826080AF80AD816080AFD801AA5FBA
:1039B000BF4D0D90BC91A02D14968C9114978F7EC5
:1039C00014968C9386A9863109F4AEC0EFBEA3CFBE
:1039D00089E38C9FF0018D9FF00D1124E556F74D82
:1039E000E7AA3ACF8E2D90E029E32C9FF0012D9F7E
:1039F000F00D1124E556F74D868397832DCF89E38B
:103A00008C9FF0018D9FF00D1124E556F74D8681B6
:103A100097819E29868397831FCF8E2D90E029E37F
:103A20002C9FF0012D9FF00D1124E556F74D848356
:103A3000958312CF89E38C9FF0018D9FF00D1124A7
:103A4000E556F74D848195819E298483958304CF23
:103A500089E38C9FF0018D9FF00D1124E556F74D01
:103A600080AD9E2D907C892B80AF20AD8681978183
:103A7000207C8227282F22952827022E26952695FE
:103A80002025022E269520252770082E892F269581
:103A900007942795902D82270694279590258227B5
:103AA000848795878E2D8F7386AB86A9893208F41B
:103AB000D3CE81E086ABD0CE8E2D90E029E32C9F33
:103AC000F0012D9FF00D1124E556F74D8087918769
:103AD000C3CE89E38C9FF0018D9FF00D1124E55634
:103AE000F74D808591859E29808791872085318536
:103AF000848595858227282F22952827022E2695B2
:103B000026952025022E269520252770082E892F00
:103B1000269507942795902D822706942795902522
:103B200082278487958798CE868197819F938F93EC
:103B30001F92FF9289EA91E29F938F930E94D87D12
:103B40000F900F900F900F900F900F90EFBEE3CE5D
:103B5000CFB7F89480915825811176C146A950E0DD
:103B60006755774D85E195E20E94ED7CD601D696AA
:103B7000EC91D697F0E0EB5EFA4D1082D6968C91E0
:103B8000D69790E080935525909356258D919D91E1
:103B90000D90BC91A02D80932E2A90932F2AA09354
:103BA000302AB093312AF601868197818093DE27EF
:103BB0009093DF27F092B02687A98093B32681E007
:103BC00080935825CFBF882309F4A5CE20E030E0AC
:103BD0004FE75AE165E070E080E090E00E943760D6
:103BE0004FB7F894A6E0B0E280E090E039E3389F68
:103BF000F001399FF00D1124E556F74D148215821E
:103C000016821782108611861286138614861586F0
:103C100016AA17AA10AEED91FD912481206124838C
:103C200001968630910519F74FBF75CE8C9FF00134
:103C30008D9FF00D1124E556F74D80AD87FFA6CE80
:103C400086A9882309F46CC0813009F064CE4081D4
:103C500051816281738126813781C7A9EFB7F894BA
:103C6000809179288111ECC08091272A8111E8C0C8
:103C7000CF3F09F4E5C020932C2A30932D2AC5307C
:103C800018F484E18C1BC82F8C2F90E00596092E28
:103C9000000CAA0BBB0B481B590B6A0B7B0B409308
:103CA0008728509388286093892870938A2881E018
:103CB000809379288FEF8093272A41E0EFBF442338
:103CC00009F429CEDFB7F894A6E0B0E280E090E0F6
:103CD00059E306C0019612968630910509F4BAC0E0
:103CE000589FF001599FF00D1124E556F74D66815C
:103CF00077812617370771F714821582168217828B
:103D000010861186128613861486158616AA17AA9F
:103D100010AEED91FC911197648160616483DACFFC
:103D2000C681D78167A99FB7F894809157258111E3
:103D300089C0A090200AB090210A6F3F09F482C088
:103D400081E0809357259FBF882309F4E4CD70E07C
:103D50006E5F7F4F072E000C880B990B0E94147327
:103D600020E030E04AEF50E40E94E4750E94E372E4
:103D70006A157B0508F4A1C0FFEBAF1AF2E6BF0A93
:103D8000A61AB70A1FB7F89486E090E00E948777DA
:103D90001FBF009741F1E091E727F091E8270480E9
:103DA000F581E02D20813181A216B30640F4048014
:103DB000F581E02D20813181A216B306C0F3228166
:103DC0003381D90114968D939C931597DC0112963B
:103DD0002D933C9313971496ED93FC931597828340
:103DE0009383AD92BC925FB7F894A6E0B0E280E016
:103DF00090E049E305C0019612968630910531F1B5
:103E0000489FF001499FF00D1124E556F74D26819A
:103E10003781C217D30779F7148215821682178269
:103E200010861186128613861486158616AA17AA7E
:103E300010AEED91FC911197248120612483DBCF9A
:103E400040E03CCF80E07FCF80E0BCCE1092572591
:103E50005FBF61CDDFBF0091872810918828209136
:103E6000892830918A28413059F184E190E08C1BF7
:103E70009109092E000CAA0BBB0BB901A801481B24
:103E8000590B6A0B7B0B40938728509388286093CB
:103E9000892870938A280E94D3588FB7F89410927B
:103EA000272A8FBF20E030E040E456E565E070E06F
:103EB00080E090E00E9437602ECDA61AB70A62CF4C
:103EC00080E090E0DC01D9CFCF93DF9394E490932E
:103ED000420684E080936206909382068093A20655
:103EE0008FB7F8949FEF9093272A8FBFC6E0D0E258
:103EF00062E170E2DE0148E233E020E792E0ED911A
:103F0000FD914383358326839783848180618483F5
:103F10008481886084836A177B0789F71092482A16
:103F20001092492A80E090E039E3389FF001399FF0
:103F3000F00D1124E556F74D148215821682178272
:103F400010861186128613861486158616AA17AA5D
:103F500010AEE991F9912481206124830196863085
:103F6000910519F710922E2A10922F2A1092302ABA
:103F70001092312A1092E02710929B261092582519
:103F80001092572520E030E047E359E16EE370E0FE
:103F900080E090E00E94CE608FB7F8941092272ABC
:103FA0008FBFDF91CF9108952F923F924F925F92F2
:103FB0006F927F928F929F92AF92BF92CF92DF9239
:103FC000EF92FF920F931F93CF93DF93E82E4B0155
:103FD000342E222E88E2841708F4BFC06090992600
:103FE00070909A26F12C80E090E09701082E02C094
:103FF000359527950A94E2F720FDB8C001968630E2
:10400000910599F7E301332019F1F4012FEF230D06
:1040100030E02F5F3F4F280D391D8191C8278C2F2D
:1040200082958C27082E869586958025082E869564
:10403000802587700C2ECD2F869507948795D02DDF
:10404000C82706948795D025C827E217F30729F7D4
:1040500089EAA82E88E2B82E94EBC92E91E2D92ED7
:1040600000E010E0432C512C0BC00F5F1F4FF9E311
:10407000AF0EB11C8FEFC81AD80A0630110541F1F6
:10408000C701002E02C0959587950A94E2F780FF3C
:10409000ECCF89E3809FF001819FF00D1124E5565C
:1040A000F74D80AD806280AF36AAC483D583128677
:1040B000138666827782A201B401C5010E94ED7C5D
:1040C0009091010BF6018081892B8093010BCDCF5C
:1040D000E6E0F0E280E090E049E308C02360139658
:1040E0002C93019632968630910521F19701082E86
:1040F00002C0359527950A94E2F720FFF2CF489F3A
:10410000D001499FB00D1124A556B74D1D921D92A7
:104110001D921C921397A081B18113962C91139735
:104120002110DCCF226013962C93019632968630B4
:104130009105E1F6DF91CF911F910F91FF90EF90E4
:10414000DF90CF90BF90AF909F908F907F906F90B7
:104150005F904F903F902F90089585E996E09F9350
:104160008F930E94EC7D0F900F9038CF29E3289F0A
:10417000F001299FF00D1124E556F74D80AD807CAC
:10418000E301C8278C2F82958C27082E869586956B
:104190008025082E8695802587700C2ECD2F86953C
:1041A00007948795D02DC82706948795D025C827D2
:1041B00080859185C8278C2F82958C27082E86951F
:1041C00086958025082E8695802587700C2ECD2F0C
:1041D000869507948795D02DC82706948795D02576
:1041E000C82711CFAF92BF92CF92EF92FF920F9359
:1041F0001F93CF93DF935B017901CFB6F894909131
:10420000272A911153C0403408F04054082F10E081
:10421000C6E0D0E2E0E0F0E069E351E821E030E020
:10422000D8010E2E02C0B595A7950A94E2F7A0FF1B
:1042300028C0A881B98114969C9114979F7E1496EA
:104240009C936E9FD0016F9FB00D1124A556B74D62
:10425000D8965C93D897D8969C91D8979064D89626
:104260009C93D8971896ED92FC9219979091272AD3
:10427000D9010E2E01C0AA0F0A94EAF7A92BA09328
:10428000272A31962296E630F10551F6CFBE21E07D
:10429000B5010E94D41F81E0DF91CF911F910F9152
:1042A000FF90EF90CF90BF90AF900895CFBE80E089
:1042B000F3CF4F925F926F927F928F929F92AF92C5
:1042C000BF92EF92FF92CF93C82F0E94110A2091C4
:1042D000272A2C2369F083E0CF91FF90EF90BF90C5
:1042E000AF909F908F907F906F905F904F900895C8
:1042F000EC2EF12C20E030E0B0E0A0E0C9E3A70113
:10430000022E02C0559547950A94E2F740FF22C05D
:10431000C29FF001C39FF00D1124E556F74D40AD4B
:1043200045FDA1E0C29FF001C39FF00D1124E556A9
:10433000F74D80809180A280B3802B013C0148180A
:1043400059086A087B0840E144165104610471046D
:1043500008F4B1E02F5F3F4F2630310581F6AA23E4
:1043600011F082E0B9CF81E0B111B6CF80E0B4CFD7
:10437000DF92EF92FF920F931F93CF93DF93F82E6C
:104380008B01E42EE901D090272AD1106DC00E9444
:1043900059218230B8F186E596E09F938F930E9471
:1043A000EC7D0F900F90EE20E1F0E801EA94F12C03
:1043B0008FEFE81AF80AE00EF11E0CE411E2899181
:1043C000282F082E000C330B3F938F931F930F93CE
:1043D0000E94D87D0F900F900F900F90CE15DF05A3
:1043E00071F78AE196E09F938F930E94EC7D0F9086
:1043F0000F908D2DDF91CF911F910F91FF90EF9036
:10440000DF9008954F2D50E0A6E0B0E280E090E00C
:1044100079E361E09A01082E02C0359527950A9448
:10442000E2F720FF13C0ED91FC91119724812F7EBC
:104430002483789FF001799FF00D1124E556F74D04
:1044400060AF20AD206820AFC087D187019612965B
:1044500086309105F9F620E04E2DB8018F2D0E948F
:10446000D41FDD24D394C5CF88E796E09F938F9324
:104470000E94EC7D0F900F90D12CBBCFDF92EF927A
:10448000FF920F931F93CF93DF93C82F8B01E42EDE
:10449000D090272AD1106DC00E9459218230B8F1E6
:1044A00086E596E09F938F930E94EC7D0F900F908E
:1044B000EE20E1F0E801EA94F12C8FEFE81AF80A17
:1044C000E00EF11E0CE411E28991282F082E000C59
:1044D000330B3F938F931F930F930E94D87D0F90C0
:1044E0000F900F900F90CE15DF0571F78AE196E0DF
:1044F0009F938F930E94EC7D0F900F908D2DDF91F5
:10450000CF911F910F91FF90EF90DF9008954C2F66
:1045100050E0A6E0B0E280E090E079E361E09A014B
:10452000082E02C0359527950A94E2F720FF13C0A4
:10453000ED91FC91119724812F7E2483789FF001C7
:10454000799FF00D1124E556F74D60AF20AD20683E
:1045500020AF108611860196129686309105F9F6E5
:1045600020E04E2DB8018C2F0E94D41FDD24D3945F
:10457000C5CF88E796E09F938F930E94EC7D0F90C4
:104580000F90D12CBBCFDF92EF92FF920F931F932E
:10459000CF93DF93F82E8B01E42EE901D090272AE8
:1045A000D11070C00E9459218230B8F186E596E0A2
:1045B0009F938F930E94EC7D0F900F90EE20E1F07F
:1045C000E801EA94F12C8FEFE81AF80AE00EF11EE8
:1045D0000CE411E28991282F082E000C330B3F9335
:1045E0008F931F930F930E94D87D0F900F900F9081
:1045F0000F90CE15DF0571F78AE196E09F938F93B8
:104600000E94EC7D0F900F908D2DDF91CF911F9127
:104610000F91FF90EF90DF9008954F2D50E0E6E06E
:10462000F0E280E090E079E361E09A01082E02C0B8
:10463000359527950A94E2F720FF16C0A081B18135
:1046400014962C9114972F7E14962C93789FD0015A
:10465000799FB00D1124A556B74DD8966C93D89775
:104660001896CD93DC931997019632968630910572
:10467000E1F620E04E2DB8018F2D0E94D41FDD24DD
:10468000D394C2CF88E796E09F938F930E94EC7DEE
:104690000F900F90D12CB8CFDF92EF92FF920F9333
:1046A0001F93CF93DF93C82F8B01E42ED090272A3E
:1046B000D11070C00E9459218230B8F186E596E091
:1046C0009F938F930E94EC7D0F900F90EE20E1F06E
:1046D000E801EA94F12C8FEFE81AF80AE00EF11ED7
:1046E0000CE411E28991282F082E000C330B3F9324
:1046F0008F931F930F930E94D87D0F900F900F9070
:104700000F90CE15DF0571F78AE196E09F938F93A6
:104710000E94EC7D0F900F908D2DDF91CF911F9116
:104720000F91FF90EF90DF9008954C2F50E0E6E05E
:10473000F0E280E090E079E361E09A01082E02C0A7
:10474000359527950A94E2F720FF16C0A081B18124
:1047500014962C9114972F7E14962C93789FD00149
:10476000799FB00D1124A556B74DD8966C93D89764
:1047700018961D921C9219970196329686309105D3
:10478000E1F620E04E2DB8018C2F0E94D41FDD24CD
:10479000D394C2CF88E796E09F938F930E94EC7DDD
:1047A0000F900F90D12CB8CF1F920F920FB60F928F
:1047B00011240BB60F922F933F934F935F936F93F8
:1047C0007F938F939F93AF93BF93EF93FF9380E07B
:1047D0000E94A51BFF91EF91BF91AF919F918F9187
:1047E0007F916F915F914F913F912F910F900BBEF1
:1047F0000F900FBE0F901F9018951F920F920FB63B
:104800000F9211240BB60F922F933F934F935F9308
:104810006F937F938F939F93AF93BF93EF93FF9388
:1048200080E00E94FA18FF91EF91BF91AF919F91A4
:104830008F917F916F915F914F913F912F910F9049
:104840000BBE0F900FBE0F901F9018951F920F92E6
:104850000FB60F9211240BB60F922F933F934F93E5
:104860005F936F937F938F939F93AF93BF93EF93D8
:10487000FF9380E00E94B71AFF91EF91BF91AF9133
:104880009F918F917F916F915F914F913F912F9168
:104890000F900BBE0F900FBE0F901F9018951F9298
:1048A0000F920FB60F9211240BB60F922F933F93D6
:1048B0004F935F936F937F938F939F93AF93BF9328
:1048C000EF93FF9381E00E94A51BFF91EF91BF91B1
:1048D000AF919F918F917F916F915F914F913F9198
:1048E0002F910F900BBE0F900FBE0F901F90189539
:1048F0001F920F920FB60F9211240BB60F922F93A7
:104900003F934F935F936F937F938F939F93AF9357
:10491000BF93EF93FF9381E00E94FA18FF91EF910C
:10492000BF91AF919F918F917F916F915F914F91C7
:104930003F912F910F900BBE0F900FBE0F901F90C5
:1049400018951F920F920FB60F9211240BB60F926B
:104950002F933F934F935F936F937F938F939F9387
:10496000AF93BF93EF93FF9381E00E94B71AFF913B
:10497000EF91BF91AF919F918F917F916F915F91D7
:104980004F913F912F910F900BBE0F900FBE0F9044
:104990001F9018951F920F920FB60F9211240BB60D
:1049A0000F922F933F934F935F936F937F938F93C8
:1049B0009F93AF93BF93EF93FF9382E00E94A51B59
:1049C000FF91EF91BF91AF919F918F917F916F91E7
:1049D0005F914F913F912F910F900BBE0F900FBEA3
:1049E0000F901F9018951F920F920FB60F921124DF
:1049F0000BB60F922F933F934F935F936F937F93D9
:104A00008F939F93AF93BF93EF93FF9382E00E94A6
:104A1000FA18FF91EF91BF91AF919F918F917F9184
:104A20006F915F914F913F912F910F900BBE0F901F
:104A30000FBE0F901F9018951F920F920FB60F92F6
:104A400011240BB60F922F933F934F935F936F9365
:104A50007F938F939F93AF93BF93EF93FF9382E0E6
:104A60000E94B71AFF91EF91BF91AF919F918F91E3
:104A70007F916F915F914F913F912F910F900BBE5E
:104A80000F900FBE0F901F9018951F920F920FB6A8
:104A90000F9211240BB60F922F933F934F935F9376
:104AA0006F937F938F939F93AF93BF93EF93FF93F6
:104AB00083E00E94A51BFF91EF91BF91AF919F9161
:104AC0008F917F916F915F914F913F912F910F90B7
:104AD0000BBE0F900FBE0F901F9018951F920F9254
:104AE0000FB60F9211240BB60F922F933F934F9353
:104AF0005F936F937F938F939F93AF93BF93EF9346
:104B0000FF9383E00E94FA18FF91EF91BF91AF915C
:104B10009F918F917F916F915F914F913F912F91D5
:104B20000F900BBE0F900FBE0F901F9018951F9205
:104B30000F920FB60F9211240BB60F922F933F9343
:104B40004F935F936F937F938F939F93AF93BF9395
:104B5000EF93FF9383E00E94B71AFF91EF91BF910B
:104B6000AF919F918F917F916F915F914F913F9105
:104B70002F910F900BBE0F900FBE0F901F901895A6
:104B80001F920F920FB60F9211240BB60F922F9314
:104B90003F934F935F936F937F938F939F93AF93C5
:104BA000BF93EF93FF9384E00E94A51BFF91EF91C9
:104BB000BF91AF919F918F917F916F915F914F9135
:104BC0003F912F910F900BBE0F900FBE0F901F9033
:104BD00018951F920F920FB60F9211240BB60F92D9
:104BE0002F933F934F935F936F937F938F939F93F5
:104BF000AF93BF93EF93FF9384E00E94FA18FF9165
:104C0000EF91BF91AF919F918F917F916F915F9144
:104C10004F913F912F910F900BBE0F900FBE0F90B1
:104C20001F9018951F920F920FB60F9211240BB67A
:104C30000F922F933F934F935F936F937F938F9335
:104C40009F93AF93BF93EF93FF9384E00E94B71AB3
:104C5000FF91EF91BF91AF919F918F917F916F9154
:104C60005F914F913F912F910F900BBE0F900FBE10
:104C70000F901F9018951F920F920FB60F9211244C
:104C80000BB60F922F933F934F935F936F937F9346
:104C90008F939F93AF93BF93EF93FF9385E00E9411
:104CA000A51BFF91EF91BF91AF919F918F917F9144
:104CB0006F915F914F913F912F910F900BBE0F908D
:104CC0000FBE0F901F9018951F920F920FB60F9264
:104CD00011240BB60F922F933F934F935F936F93D3
:104CE0007F938F939F93AF93BF93EF93FF9385E051
:104CF0000E94FA18FF91EF91BF91AF919F918F9110
:104D00007F916F915F914F913F912F910F900BBECB
:104D10000F900FBE0F901F9018951F920F920FB615
:104D20000F9211240BB60F922F933F934F935F93E3
:104D30006F937F938F939F93AF93BF93EF93FF9363
:104D400085E00E94B71AFF91EF91BF91AF919F91BB
:104D50008F917F916F915F914F913F912F910F9024
:104D60000BBE0F900FBE0F901F9018954F925F9241
:104D70007F928F929F92AF92BF92CF92EF92FF92CB
:104D80001F93CF93DF93782EEB01C42E0E94110A5C
:104D90004B015C01EC2C0C2C000CFF0889E0482E28
:104DA00087E0582E10E01AC00E94110ADC01CB01E6
:104DB00088199909AA09BB09893E9340A105B10543
:104DC00050F50E94110ADC01CB0188199909AA0942
:104DD000BB0985369105A105B10578F5E091462A14
:104DE000F091472A87898111DFCF46E0BE01872DE8
:104DF0000E9430188823B1F2810FDF91CF911F916B
:104E0000FF90EF90CF90BF90AF909F908F907F904A
:104E10005F904F9008958C2D0C2C000C990B9F9354
:104E2000CF9283E297E09F938F930E94EC7D0F9047
:104E30000F900F900F9080E0E0CF112331F08AE0C7
:104E400090E00E94C31311E0C9CFFF92CF925F920E
:104E50004F920E94EC7D0F900F900F900F90EFCF2C
:104E6000CF93DF93A0EAB6E093EF11969C9311974E
:104E7000E0E0FBE082E0848380818360808383EDD7
:104E800087A386A389E681A783A785A787A780A78D
:104E900082A79183C0E4D6E098E8998320E636E0C3
:104EA00088E0F901818340E856E0FA019183119688
:104EB0008C9311979E83F9018683FA019683169647
:104EC0008C93169780E48B8B8F8BF901838BFA017F
:104ED000838B878B53968C93DF91CF910895CF93DB
:104EE000DF9390E09C01220F331FF901EA5FFF4D31
:104EF000A081B18114964C911497FC01E75AFA4DA8
:104F00004083E0E0FBE04181EC01C453DE4D588179
:104F1000652F609546234183E0EAF6E051834481A2
:104F2000452B448314961C92F901E654FE4D0190E2
:104F3000F081E02DDC01AA53BE4D8C9181839481D8
:104F4000809589238483DF91CF91089590E09C011F
:104F5000220F331FF901E654FE4D0190F081E02D40
:104F60005481DC01AA53BE4D4C91452B4483F90179
:104F7000EA5FFF4D0190F081E02DDC01A75ABA4DA8
:104F80002C912483E0EAF6E02481DC01A453BE4D99
:104F90003C91932F909592239483E0E0FBE08181F4
:104FA000832B81830895FF920F931F93CF93DF93F9
:104FB00000D000D0CDB7DEB7813021E09207E0F419
:104FC0002091482A3091492A82179307A9F08C0131
:104FD00019838A83812F80618B830C83812F806664
:104FE0008D830E8341E6BE016F5F7F4F8CE20E948E
:104FF000B626F82E811109C02696CDBFDEBFDF91FF
:10500000CF911F910F91FF90089542E6BE016F5F0F
:105010007F4F8EE20E94B626882371F390E08F0DB9
:10502000911D029741F08EE497E09F938F930E9429
:10503000EC7D0F900F900093482A1093492ADCCF03
:10504000E0E2F6E08CEF828387E0858B868B878BAE
:10505000848B828B838BE0E4F2E090E2928390E198
:105060009183848383E180A384E081A384B58487D2
:1050700085B5858781E08083EFE5F5E210821182B6
:10508000128213821482158216821782108611866C
:105090001286138620E030E043E159E268EE73E0C7
:1050A00080E090E00E94376020E030E048E159E283
:1050B0006FE175E180E090E00E94CE6008952F924C
:1050C0003F924F925F926F927F928F929F92AF9298
:1050D000BF92CF92DF92EF92FF920F931F93CF93E5
:1050E000DF93CDB7DEB7362E4DB65EB6062F10E095
:1050F000000F111F2DB73EB74CE0649F20193109F6
:1051000011242DBF3EBFEDB7FEB731964F01A3ED81
:10511000B1E2AF0168E2EE24E394309161023770AE
:105120003093610220916102262B2093610233208B
:10513000C9F0FA0130E0FFB6F894209160022068CF
:1051400020936002209163022223E1F360915002D8
:105150007091510261937193E0926302FFBE3F5FD1
:105160003312E9CF400F511FF1E2A83DBF0711F004
:105170006D91D3CF540124E0A20EB11C2FE5622E15
:1051800025E2722E7C01C12CD12C3EEF232E230C64
:1051900021C0F2E03F1609F442C00C9DF0010D9DC4
:1051A000F00D1C9DF00D1124E80DF91D80819181F9
:1051B000F70180839183FFEFCF1ADF0AA00EB11EA3
:1051C00022E0620E711C32E0E30EF11C46E0C416D0
:1051D000D10481F032E03315E0F6622DC5010E9462
:1051E000385CF30120813181821B930BF7018083AE
:1051F0009183E1CF4DBE5EBEDF91CF911F910F91A4
:10520000FF90EF90DF90CF90BF90AF909F908F90E6
:105210007F906F905F904F903F902F90089561E046
:10522000C5010297DCCF6DE08FE595E20C945F2815
:10523000EF92FF920F931F93CF93DF93CDB7DEB71B
:105240002C97CDBFDEBF9FB7F8948091272A81119C
:1052500035C08FEF8093272A9FBF8E010F5F1F4FAE
:105260003FE5E32E35E2F32EF701D80180819181ED
:105270008D939D931192119285E2EB36F807B1F769
:105280006DE08FE595E20E945F280BC095958795AC
:10529000F701819391937F01FBE6EF16F5E2FF069C
:1052A000C1F0F801219131918F01F7018081918145
:1052B000820F931F97FFEACF0196E8CF9FBF2C96EE
:1052C000CDBFDEBFDF91CF911F910F91FF90EF9087
:1052D00008958FB7F8941092272A8FBFF0CFBF920E
:1052E000CF92DF92EF92FF920F931F93CF93DF93B2
:1052F000CDB7DEB76897CDBFDEBFB82E092F8FE3DD
:105300000E945921882309F466C081E08093D32844
:1053100080930C298093452980937E298093B72917
:105320008093F029C090482AD090492A80E091E0EB
:105330000E94D3277E018DE0E80EF11C65E0C701D5
:105340000E945F2810E0812F0E946F271F5F163098
:10535000D1F78FEC97E00197F1F7000000C065E00E
:10536000CE0101960E945F2810E0812F0E94A6279F
:105370001F5F1630D1F7FE01319697016B2D702F0C
:1053800081919191D9014D915D919D01841B950B66
:10539000DB018D939D93BD01EE15FF0589F7C601D5
:1053A0000E94D3271092D32810920C2910924529DD
:1053B00010927E291092B7291092F0296896CDBFDD
:1053C000DEBFDF91CF911F910F91FF90EF90DF90A3
:1053D000CF90BF90089583E897E09F938F930E94AA
:1053E000EC7D0F900F90EACFCF93DF93CDB7DEB770
:1053F0002C97CDBFDEBFCE0101960E946F29FE0122
:105400003196AFE5B5E240E050E080E06191719106
:105410002D913D91620F731F21E030E06F3F774087
:1054200014F420E030E0042E01C0220F0A94EAF7C1
:10543000822B4F5F5F4F4630510541F72C96CDBF11
:10544000DEBFDF91CF9108952F923F924F925F92EE
:105450006F927F928F929F92AF92BF92CF92DF9284
:10546000EF92FF920F931F93CF93DF938C014B0129
:1054700020E030E040E05EE3FC01608171818281E8
:1054800093810E94E4757B01D82FC92FCB01AD2FEA
:10549000BC2FF80180839183A283B38320E030E0A6
:1054A00040E85DE364817581868197810E94E4759F
:1054B000F801648375838683978320E030E040E8B9
:1054C00051E460857185828593850E94E475F801B9
:1054D000608771878287938720E030E040E05EE359
:1054E00060897189828993890E94E475F801608BD3
:1054F000718B828B938B20E030E040E851E464892B
:105500007589868997890E94E475F801648B758B8B
:10551000868B978B20E030E040E853E460A171A1D6
:1055200082A193A10E94E475F80160A371A382A3F4
:1055300093A36801A12CB12C212C20E03FEF4FE771
:1055400057E4B7018D2F9C2F0E94AC7418162CF4D1
:10555000E12CFF24FA94DFE7C7E4A7016D2F7C2F2D
:10556000F60140835183628373832394F3E02F1603
:1055700009F447C0322C7501EE0CFF1CEA0CFB1C31
:105580001FC020E030E040E057ECC301B2010E94B0
:10559000267287FF05C0412C512C612C27EC722EFE
:1055A000CE0DDF1DCC0FDD1FCC0FDD1FC00FD11FB7
:1055B000488259826A827B82339483E0381609F1EB
:1055C000C32DD0E0F701EC0FFD1FEE0FFF1FEE0F14
:1055D000FF1FE00FF11F408051806280738020E048
:1055E0003EEF4FEF56E4C301B2010E94AC741816AF
:1055F00044F6412C9EEF592E66246A9496E4792E47
:10560000CFCF8FEFA81AB80AE0E1CE0ED11CF3E09D
:10561000AF16B10431F0F601E080F180D281C38190
:105620008CCFF80160817181828193810E94E37245
:10563000F40160837183F8016481758186819781AB
:105640000E94DC72F40162837383F80160857185C6
:10565000828593850E94DC72F40164837583F8016E
:1056600060897189828993890E94E372F40166835B
:105670007783F80164897589868997890E94DC722D
:10568000F40160877187F80160A171A182A193A1E3
:105690000E94E372F40162877387DF91CF911F91BB
:1056A0000F91FF90EF90DF90CF90BF90AF909F90C1
:1056B0008F907F906F905F904F903F902F900895C4
:1056C0004F925F926F927F928F929F92AF92BF9212
:1056D000CF92DF92EF92FF920F931F93CF93DF93BE
:1056E000CDB7DEB72A97CDBFDEBF89879A878B01FA
:1056F000FB0162817381072E000C880B990B0E94BD
:1057000014732B013C01F80164817581072E000C94
:10571000880B990B0E9414734B015C01F8016681A0
:10572000778180E090E00E9412736B017C01F801A8
:1057300060857185072E000C880B990B0E941473ED
:1057400069837A838B839C83F8016285738580E00B
:1057500090E00E9412736D837E838F839887F80197
:105760006081718180E090E00E94127320E030E05F
:1057700040E051E40E94E475E985FA856083718315
:105780008283938320E030E040E851E4C301B2011A
:105790000E94E4752B013C01E985FA8564837583D9
:1057A0008683978320E030E040E85DE3C501B401E3
:1057B0000E94E4754B015C01E985FA856087718779
:1057C00082879387448655866686778620E030E018
:1057D00040E051E4C701B6010E94E475E985FA850D
:1057E000608B718B828B938B20E030E040E85DE32F
:1057F00069817A818B819C810E94E475E985FA85B3
:10580000648B758B868B978B808E918EA28EB38ED8
:10581000648F758F868F978F20E030E040E85BE3E0
:105820006D817E818F8198850E94E475E985FA8576
:1058300060A371A382A393A32A96CDBFDEBFDF919D
:10584000CF911F910F91FF90EF90DF90CF90BF907D
:10585000AF909F908F907F906F905F904F90089542
:10586000CF92DF92EF92FF920F931F93CF93DF932C
:105870008C01EB01CC80DD80EE80FF80C701B6019A
:105880000E942B729B01AC01688179818A819B8186
:105890000E94E475F8016083718382839383C7015A
:1058A000B6010E94A1769B01AC01688179818A8151
:1058B0009B810E94E475F8016483758386839783D6
:1058C00088859985AA85BB8580879187A287B387BC
:1058D000DF91CF911F910F91FF90EF90DF90CF90CC
:1058E00008952F923F924F925F926F927F928F9284
:1058F0009F92AF92BF92CF92DF92EF92FF920F935F
:105900001F93CF93DF93CDB7DEB7C85FD140CDBF34
:10591000DEBF8C017B016091342A7091352A072EFD
:10592000000C880B990B0E941473C351DE4F6883DF
:1059300079838A839B83CD5ED1406091362A7091B2
:10594000372A072E000C880B990B0E941473CF5036
:10595000DE4F688379838A839B83C15FD1406091E6
:10596000382A7091392A072E000C880B990B0E9457
:10597000147320E030E044E353E40E9430722BEDD6
:105980003FE049E450E40E94E4754B015C0120E0F3
:1059900030E0A9010E94AC742BED3FE049E450E4F3
:1059A00087FDD0C2C501B4010E9448712BED3FE0D4
:1059B00049EC50E40E945A732BED3FE049E450E477
:1059C0000E944771CB50DE4F688379838A839B8323
:1059D000C55FD140F801808191818115F0E89F0772
:1059E00009F491C2F801228133812115F0E83F07C3
:1059F00009F489C2F801448155814115F0E85F0737
:105A000009F481C25F934F933F932F939F938F939A
:105A100081E798E09F938F930E94EC7DF80160816D
:105A20007181072E000C880B990B0E941473CF51C3
:105A3000DE4F688379838A839B83C15ED140F801FE
:105A400062817381072E000C880B990B0E941473DE
:105A5000CB51DE4F688379838A839B83C55ED140B7
:105A6000F80164817581072E000C880B990B0E9448
:105A7000147320E030E044E353E40E9430722BEDD5
:105A80003FE049E450E40E94E4754B015C01CDBF66
:105A9000DEBF20E030E0A9010E94AC742BED3FE0B6
:105AA00049E450E487FD5EC3C501B4010E9448711A
:105AB0002BED3FE049EC50E40E945A732BED3FE0A0
:105AC00049E450E40E944771C751DE4F68837983EF
:105AD0008A839B83C95ED14062EA76E2CE01835716
