:100000000C9411080C9432080C9432080C943208A9
:100010000C9432080C9432080C9432080C94320878
:100020000C9432080C9432080C94A0350C94AC3328
:100030000C9432080C9432080C9432080C94320858
:100040000C9432080C9432080C9432080C94320848
:100050000C9432080C9432080C9432080C94320838
:100060000C9432080C94E2160C9434170C940B1771
:100070000C945D170C94AF170C9486170C943208EF
:100080000C9432080C9432080C9432080C94320808
:100090000C9432080C9432080C9432080C943208F8
:1000A0000C9432080C9432080C9432080C943208E8
:1000B0000C9432080C9432080C949C0D0C94ED0BAB
:1000C0000C9432080C944A0B0C94880B0C94320854
:1000D0000C9432080C9432080C9432080C943208B8
:1000E0000C9432080C9432080C9453180C94A518F4
:1000F0000C947C180C94CE180C9420190C94F718BE
:100100000C9432080C9432080C9432080C94320887
:100110000C9432080C9432080C9432080C94320877
:100120000C9432080C9432080C9432080C94320867
:100130000C9432080C9432080C9432080C94320857
:100140000C9432080C9432080C9432080C94320847
:100150000C9432080C9432080C9432080C94320837
:100160000C94D8170C942A180C9401180C94DC20C9
:100170000C9432080C9432080C9432080C94320817
:100180000C9432080C9432080C9432080C94320807
:100190000C9432080C9432080C9432080C943208F7
:1001A0000C9432080C9432080C9432080C943208E7
:1001B0000C9432080C9432080C9432080C943208D7
:1001C0000C9432080C9432080C9432080C943208C7
:1001D0000C9432080C9432080C9432080C9449198F
:1001E0000C949B190C9472190C9432080C943208DC
:1001F0000C9432080C9432080C9432082C0F390FEE
:10020000460F530F600F060F130F55146214D813C7
:10021000E513F3132714CB13084AD73B3BCE016EEB
:1002200084BCBFFDC12F3D6C74319ABD56833DDA4D
:100230003D00C77F11BED9E4BB4C3E916BAAAABE5C
:10024000000000803F07634236B79BD8A71A396881
:100250005618AEBAAB558C1D3CB7CC5763BD6DED8F
:10026000FD753EF6177231BF000000803F05A84CB7
:10027000CDB2D44EB93836A9020C50B9918688084F
:100280003CA6AAAA2ABE000000803F08000000BECB
:10029000922449123EABAAAA2ABECDCCCC4C3E0039
:1002A000000080BEABAAAAAA3E00000000BF00006A
:1002B00000803F0000000000084178D3BB4387D195
:1002C000133D190E3CC3BD4282AD2B3E68EC8276D5
:1002D000BED98FE1A93E4C80EFFFBE01C4FF7F3F36
:1002E0000000000000000C9455140C94AF200C94F6
:1002F000D8130C9462140C94380B0C94CB130C94FC
:10030000390F0C94460F0C94060F0C94BD1B0C94E3
:10031000600F0C94B20A0C94671A0C94401D0C9454
:10032000482C0C94C21B0C942C0F0C9427140C9486
:10033000130F0C944E360C94E5130C94CF280C94A8
:10034000530F0C945C0E0C94F3136E616E00696E87
:10035000660000407A10F35A00A0724E180900108F
:10036000A5D4E80000E87648170000E40B5402002A
:1003700000CA9A3B000000E1F50500008096980055
:10038000000040420F000000A0860100000010277E
:1003900000000000E803000000006400000000000E
:1003A0000A00000000000100000000002C76D88840
:1003B000DC674F0823DFC1DFAE59E1B1B796E5E353
:1003C000E453C63AE651997696E8E6C28426EB896C
:1003D0008C9B62ED407C6FFCEFBC9C9F40F2BAA509
:1003E0006FA5F490055A2AF75C936B6CF9676DC1A1
:1003F0001BFCE0E40D47FEF520E6B500D0ED902EA5
:100400000300943577050080841E080000204E0A02
:10041000000000C80C333333330F986E1283114140
:10042000EF8D2114893BE65516CFFEE6DB18D1840B
:100430004B381BF77C1D901DA4BBE4242032847232
:100440005E228100C9F124ECA1E53D274552524FBF
:10045000523A204D657373616765206C656E6774F1
:1004600068203020666F72206D73675F6E6F646501
:100470002E0D0A004572726F723A204D65737361DA
:10048000676573206F766572666C6F772E20546F88
:100490006F206D616E79206D657373616765732080
:1004A00072656365697665642E2054727920737075
:1004B000656564696E6720757020796F7572206C50
:1004C0006F6F7020696620796F7520736565207481
:1004D0006869732061206C6F742E0D0A004572727A
:1004E0006F722120576520676F74206168656164B1
:1004F000206F6620746865207461736B206C69736B
:100500007420616E64206E6F77206E6F7468696E00
:10051000672077696C6C20657865637574652E0D4E
:100520000A0009545749207761736E277420726559
:100530006164792E0D0A0057616974696E672066DF
:100540006F7220545749207C2025730D0A000954EE
:1005500057492074696D656F7574207C2025730D73
:100560000A004552524F52212042756666657265F7
:100570006420696E636F6D696E67206D657373616A
:1005800067657320636F6E73756D696E6720746F36
:100590006F206D756368206D656D6F72792E2041D7
:1005A0006C6C6F772068616E646C655F6D7367203B
:1005B000746F2062652063616C6C6564206D6F727E
:1005C00065206672657175656E746C792E0D0A0012
:1005D0004552524F52212053686F756C64204E4F24
:1005E0005420626520616464696E672061206D65D6
:1005F00073736167652077697468206C656E6774D2
:10060000682067726561746572207468616E20622B
:1006100075666665722073697A6520746F207175DE
:100620006575652E0D0A004552524F5221205368C0
:100630006F756C64204E4F5420626520616464695C
:100640006E6720302D6C656E677468206D657373FE
:1006500061676520746F2071756575652E0D0A00E0
:1006600041626F7274696E672049522073656E64CF
:10067000205B25303268785D207768696C6520746E
:100680007279696E673A20004552524F523A204DB6
:100690006573736167652065786365656473204978
:1006A000525F4255464645525F53495A452E0D0A00
:1006B0000009446F6E652077616974696E67206612
:1006C0006F72205457492E20495220706F776572FF
:1006D0007320736574207375636365737366756CDB
:1006E0006C792E0D0A00495220486172647761725C
:1006F0006520627573792E2043616E2774206368CC
:1007000065636B20636F6C6C6973696F6E732E0D1C
:100710000A00092568750925750D0A004469737476
:1007200020286D6D2920706572206B696C6F737461
:1007300065700D0A00096469723A20256875090020
:100740004D6F746F722056616C7565730D0A0049A8
:100750006E206F7264657220746F20676F20696EFF
:1007600020646972656374696F6E20256875206600
:100770006F72202575206D6D2C2074616B696E671A
:100780002025752073746570732E0D0A00457272F2
:100790006F723A20446F6E2774206861766520631B
:1007A000616C696272617465642076616C756573F1
:1007B00020666F722074686973206469726563745F
:1007C000696F6E2E0D0A004572726F7221204661AC
:1007D000696C656420746F207363686564756C650B
:1007E0002073746F705F6D6F7665207461736B2E0C
:1007F000004552524F523A2063757272656E745FB3
:100800006F66667365743A20257520616E64207486
:100810006F74616C5F74696D653A202575206E6F29
:100820007420657175616C210D0A000D0A455252E4
:100830004F523A2053657269616C20696E7075740D
:1008400020627566666572206361706163697479A0
:10085000206F66202575206368617261637465721C
:10086000732065786365656465642E0D0A00212137
:100870002109476F7420313520636F6E736563758E
:1008800074697665206E6F7468696E67732066722E
:100890006F6D2073656E736F72202568752E092148
:1008A00021210D0A00524E422042726F6164636141
:1008B0007374206661696C6564205B202530326842
:1008C00058205D0D0A004552524F523A20506F7326
:1008D000742D72657475726E2C207461736B207345
:1008E000746F7261676520636F6E73697374656E90
:1008F000637920636865636B206661696C757265F6
:100900002E0D0A00506F73742D63616C6C2C207473
:1009100061736B20255820686173206E6578745F61
:1009200070747220706F696E74696E67206F757471
:1009300073696465206F662061727261792E0D0A99
:10094000004552524F523A205072652D63616C6CD3
:100950002C207461736B2073746F72616765206300
:100960006F6E73697374656E637920636865636B1A
:10097000206661696C7572652E0D0A005072652DD6
:1009800063616C6C2C207461736B20686173206EE2
:100990006578745F70747220706F696E74696E67C9
:1009A000206F757473696465206F6620617272616F
:1009B000792E0D0A00095461736B202570202825BB
:1009C0007029207363686564756C656420617420A8
:1009D000256C75207769746820706572696F642072
:1009E000256C752C20256C752063757272656E748C
:1009F0000D0A005461736B205175657565202825BB
:100A00006875207461736B732C2025687520657878
:100A100065637574696E67293A0D0A004E65772023
:100A20005461736B2025702028257029207363681A
:100A30006564756C656420617420256C7520776928
:100A4000746820706572696F6420256C752C202590
:100A50006C752063757272656E740D0A0045525292
:100A60004F5221205461736B206C6973742068614C
:100A7000732073656C662D7265666572656E63655D
:100A80002E0D0A004552524F523A205461736B208A
:100A90007363686564756C656420666F722061209D
:100AA00074696D6520696E20746865207061737467
:100AB0002E0D0A004552524F523A20736368656406
:100AC000756C65725F6D616C6C6F632072657475B7
:100AD000726E65642061206E65775F7461736B2050
:100AE000706F696E746572206F75747369646520C8
:100AF0006F6620746865207461736B2073746F7205
:100B00006167652061727261792E0D0A004552524B
:100B10004F523A204E6F20656D7074792073706F5C
:100B20007420666F756E6420696E207363686564F7
:100B3000756C65725F6D616C6C6F632C206275748F
:100B4000206E756D5F7461736B73207761736E27B0
:100B5000742067726561746572207468616E206FBD
:100B60007220657175616C206D61785F7461736B63
:100B7000732E0D0A0009417474656D7074696E6797
:100B800020746F20726573746F7265207461736B6B
:100B90005F6C6973742E0D0A09496620796F7520A0
:100BA0006F6E6C79207365652074686973206D655C
:100BB000737361676520726172656C792C20646F54
:100BC0006E277420776F72727920746F6F206D7545
:100BD00063682E0D0A004552524F523A20496E204A
:100BE0007363686564756C65725F667265652C20F9
:100BF000746774202825582920776173206F7574D5
:100C0000736964652076616C6964205461736B2A32
:100C10002072616E67652E0D0A004D657373616702
:100C200065206C656E6774682077617320257A2073
:100C300063686172732C20776869636820657863E4
:100C40006565647320746865206D6178696D756D84
:100C5000206F662025750042726F61646361737452
:100C6000696E6720636F6D6D616E6420746F2025FF
:100C70003034583A20222573222C206F66206C6570
:100C80006E6774682025692E0D0A0042726F6164D8
:100C900063617374696E6720636F6D6D616E643A32
:100CA00020222573222C206F66206C656E67746885
:100CB0002025692E0D0A004D792049442069733A98
:100CC00020253034580D0A00476F742061646A751E
:100CD00073745F6D6F746F727320636F6D6D616E8F
:100CE000642E20646972656374696F6E3A202568AA
:100CF000752C204E65772053657474696E67733A5E
:100D0000202825642C2025642C202564290D0A0028
:100D1000737472746F6B2072657475726E65642083
:100D20004E554C4C206F6E20746869726420766159
:100D30006C2E0D0A00737472746F6B20726574757B
:100D4000726E6564204E554C4C206F6E2073656347
:100D50006F6E642076616C2E0D0A00737472746F6E
:100D60006B2072657475726E6564204E554C4C2014
:100D70006F6E2066697273742076616C2E0D0A00A6
:100D800042616420646972656374696F6E2E2047E6
:100D90006F743A202568752E0D0A00737472746F93
:100DA0006B2072657475726E6564204E554C4C20D4
:100DB0006F6E20646972656374696F6E2E0D0A0030
:100DC000476F74207365745F6D6F746F7273206307
:100DD0006F6D6D616E642E20646972656374696FF6
:100DE0006E3A202568752C2076616C733A20282590
:100DF000642C2025642C202564290D0A007374724C
:100E0000746F6B2072657475726E6564204E554CFC
:100E10004C206F6E2074686972642076616C2E0DB0
:100E20000A00737472746F6B2072657475726E65EC
:100E300064204E554C4C206F6E207365636F6E645A
:100E40002076616C2E0D0A00737472746F6B2072C1
:100E5000657475726E6564204E554C4C206F6E2023
:100E600066697273742076616C2E0D0A00426164AB
:100E700020646972656374696F6E2E20476F743ADF
:100E8000202568752E0D0A00737472746F6B2072C2
:100E9000657475726E6564204E554C4C206F6E20E3
:100EA000646972656374696F6E2E0D0A00723A2070
:100EB0002568752C20673A202568752C20623A2019
:100EC0002568750D0A0077616C6B20646972656333
:100ED00074696F6E202568752C206E756D5F737454
:100EE0006570732025750D0A007072696E745F6DF0
:100EF0006F746F725F73657474696E677300777275
:100F00006974655F6D6F746F725F73657474696E19
:100F10006773007265736574007461736B7300743A
:100F20006774006D73675F747374006D736700742A
:100F300067745F636D6400636D640062726F616407
:100F4000636173745F6964006765745F69640073EB
:100F500065745F6C656400726E625F6200736574D5
:100F60005F646973745F7065725F7374657000614C
:100F7000646A5F6D6F746F7273007365745F6D6F19
:100F8000746F72730073746F705F77616C6B006362
:100F90006F6C6C007365745F6972006765745F7273
:100FA00067620077616C6B006D6F76655F73746567
:100FB00070730009436F6D6D616E64202820257386
:100FC0002029206E6F74207265636F676E697A6581
:100FD000642E0D0A006364696E6F70737578585BD8
:100FE00065666745464700616E006E66696E6974A6
:100FF0007900CDCCCC3D0AD7233C17B7D13877CC7C
:101000002B329595E6241FB14F0A000020410000C5
:10101000C84200401C4620BCBE4CCA1B0E5AAEC57E
:101020009D7411241FBECFEFCDBFDFE3DEBF00E014
:101030000CBF12E2A0E0B0E2E2E4FDE900E00BBF89
:1010400002C007900D92A232B107D9F725E2A2E2C1
:10105000B2E201C01D92AF39B207E1F70E94CA089F
:101060000C949F4E0C9400000FB6F8946091080405
:10107000709109048091B1239091B2230FBE08951D
:101080008AE090E00E944E086AE070E080E00C94F4
:10109000651D8AE090E00C944E080895CF92DF928F
:1010A000EF92FF927C01F8940E94340878949B019F
:1010B000AC012E0D3F1D411D511D69017A0105C076
:1010C00078943AE63A95F1F700C0F8940E94340813
:1010D0006C157D058E059F0598F37894FF90EF9031
:1010E000DF90CF90089540E060E084E60E94D02C2D
:1010F00084E690E00E944E0840E064E680E00E94B2
:10110000D02C84E690E00E944E0844E660E080E047
:101110000E94D02C84E690E00E944E080E94C52CCC
:1011200040E060E084E60E94D02C84E690E00E94DB
:101130004E0840E064E680E00E94D02C84E690E017
:101140000E944E0844E660E080E00E94D02C84E6D5
:1011500090E00E944E080E94C52C40E060E084E6CA
:101160000E94D02C84E690E00E944E0840E064E6A5
:1011700080E00E94D02C84E690E00E944E0844E675
:1011800060E080E00E94D02C84E690E00E944E084F
:101190000C94C52CCF93DF93CDB7DEB7C054D109E3
:1011A000CDBFDEBFF89488ED84BF82E0809350000D
:1011B0008091510081FFFCCF88ED84BF81E0809356
:1011C000400085E0809343008091010480FDFCCFC6
:1011D0008FEF9FEF80930A0490930B0481E080933C
:1011E00000048091010480FDFCCF1092080410924D
:1011F000090482E08093CA0180E4E0E2F0E2DE01CB
:10120000119601900D928A95E1F7DE0111969E01EB
:101210002F5B3F4F80E090E04D915D916D917D910E
:101220006BBFFA01479156918427482F4295482772
:10123000042E469546954025042E46954025477038
:10124000082E892F469507944795902D842706945C
:101250004795902584272A173B07F1F61092CA017B
:101260008093AF239093B0230E9486300E94B820D1
:101270000E94A72C0E94A8210E944E0D8091A200DE
:1012800081608093A2008091A20082608093A2007E
:101290008091A20084608093A2008091A200806867
:1012A0008093A20078940E9488220E94BD2F0E9401
:1012B000C4190E94CA1A0E94A61F0E94C9210E9436
:1012C000CE1C0E94B60B80E091E00E94671A0E943B
:1012D00073080E94A30F0E94400884E7282E84E030
:1012E000382E9CE4892E94E0992E2DED422E24E098
:1012F000522E0E94490880914D25811198C07FB6D9
:10130000F89400917F25109180250115110509F4AD
:101310007DC0ADB6BEB6D8011C964C91442309F4ED
:10132000B3C050E08DB79EB7841B950B8DBF9EBF99
:10133000ADB7BEB711967D01F80160857185CD010D
:101340000E949F4CEF82F886F80180819181A281F2
:10135000B38189839A83AB83BC83848195818D8398
:101360009E8384858987C680D780FFB67894CE0116
:1013700001960E944D08FFBE7801D7011A96ED91A3
:10138000FC911B973097D1F08081918129813A811E
:10139000821B930B833E2FEF920744F04E9734F459
:1013A00086819781C816D90609F44DC07F01D701FF
:1013B0001A96ED91FC911B97309731F7F8018285D1
:1013C000938580937F25909380258091FA23815087
:1013D0008093FA238091E5239091E6230D97298548
:1013E000821B91098093E5239093E623FFB6F8943E
:1013F000C8010E94DF49FFBEADBEBEBE00917F2581
:10140000109180250115110509F083CF7FBE8091D1
:101410007E25882309F441C081E090E00E944E08B7
:101420000E94490880914D25882309F468CF26E061
:101430002093FA2310924D253F922F920E949E4DA9
:101440000F900F905CCF82859385D7011A968D936C
:101450009C931B978091E5239091E6230D97298516
:10146000821B91098093E5239093E6238091FA23D0
:1014700081508093FA236FB6F894CF010E94DF4920
:101480006FBEF7017F0193CF9F928F920E949E4D76
:10149000F80144850F900F9044CF0E943408E091EA
:1014A0008325F09184250081118122813381DC0123
:1014B000CB01801B910BA20BB30B893B9B40A10579
:1014C000B1050CF4A9CF5F924F920E949E4D0E94ED
:1014D00088310E94C8300F900F909ECF2091CF018D
:1014E00027FDFCCF8093C0019F719093C1011092A2
:1014F000C20186E08093CA01EBECF1E021E030E02C
:1015000088ED90E084BF20838091C40108952091EC
:10151000CF0127FDFCCF2091CF0121FF0BC026E397
:101520002093CA01EBECF1E041E050E028ED30E01F
:1015300024BF408323E32093CA018093C0019F719D
:101540009093C1011092C2016093C40185E380931E
:10155000CA01EBECF1E021E030E088ED90E084BFDF
:1015600020830895BF92CF92DF92EF92FF920F9364
:101570001F93CF93DF93E091C123F091C223C281E7
:10158000D381EC17FD0709F46FC0C12CD12C760173
:101590006881798180E090E00E94A445A7019601CE
:1015A0000E94D94320E030E040E752E40E94C24468
:1015B0009B01AC01C701B6010E94DA436B017C01BB
:1015C0000A811B81BFB6F894CE010E94DF49BFBEDD
:1015D000E8018091C1239091C22380179107C1F641
:1015E000C701B6010E947545F80102831383048385
:1015F0001583C091200AD091210A80912A0A9091E6
:101600002B0AC817D907A0F0C60FD71FC134FDE9B0
:10161000DF0718F5C093200AD093210ADF91CF91FC
:101620001F910F91FF90EF90DF90CF90BF900895A2
:10163000C60FD71F80912A0A90912B0A8C179D07FD
:1016400028F74091262260912722809128220E942B
:10165000D02CC134FDE9DF07E8F280E49DE98093F6
:10166000200A9093210ADACF8F0160E070E0BCCFAE
:101670009C0140E460E070E08FE30E94C61220E02D
:1016800030E042EB5AE068EC70E080E090E00E94CD
:101690003C3308951F920F920FB60F9211240BB690
:1016A0000F922F933F934F935F936F937F938F93FB
:1016B0009F93AF93BF93EF93FF93E0E4FAE082AD83
:1016C00093AD8093282280AD91AD809327228091A5
:1016D000780990917909809326224091292260917E
:1016E0002A2280912B220E94D02CFF91EF91BF9152
:1016F000AF919F918F917F916F915F914F913F91AA
:101700002F910F900BBE0F900FBE0F901F9018954A
:101710001F920F920FB60F9211240BB60F922F93B8
:101720003F934F935F936F937F938F939F93AF9369
:10173000BF93EF93FF9340912622609127228091DF
:1017400028220E94D02CFF91EF91BF91AF919F91E1
:101750008F917F916F915F914F913F912F910F905A
:101760000BBE0F900FBE0F901F901895CF938FEF69
:1017700080932B2280932A228093292288EC90E068
:1017800080932422909325228CE880938001E0E0CE
:10179000FAE088E08083118281E49DE986A397A323
:1017A00083E08683178210A211A210A611A612A6AA
:1017B00013A6CFB7F89486E090E00E944749FC0159
:1017C000CFBF8093C1239093C22310821182828362
:1017D000938384839583CF9108951F920F920FB6C0
:1017E0000F9211240BB60F92AF92BF92CF92DF925D
:1017F000EF92FF921F932F933F934F935F936F93BB
:101800007F938F939F93AF93BF93CF93DF93EF9388
:10181000FF930E943422EC011FB7F8940E94340811
:101820006B017C0121E234E140E050E00E94034979
:1018300061312AE0720708F469C021E234E1261B15
:10184000370B80910A0490910B04821B930B8C152B
:101850009D0548F48091B1239091B2230196809325
:10186000B1239093B2238091010480FDFCCFC20E7E
:10187000D31EC0920804D092090480910C04909168
:101880000D04820F931F80930C0490930D041FBFCF
:10189000C90137FD4DC0813991054CF4121613066C
:1018A0000CF04BC0809154008F5F809354000E94D5
:1018B00034089B01AC01CF71DD2764E16C9FC0014E
:1018C0006D9F900D1124BC0180E090E048E35BE047
:1018D0000E943C33FF91EF91DF91CF91BF91AF9187
:1018E0009F918F917F916F915F914F913F912F9138
:1018F0001F91FF90EF90DF90CF90BF90AF900F902F
:101900000BBE0F900FBE0F901F9018952227332704
:10191000261B370BC616D70608F0A5CF8091B1233A
:101920009091B22301978093B1239093B2239BCFE0
:1019300088279927821B930BAECF4D970CF0B7CF1A
:1019400080915400815080935400B1CFBF92CF92C8
:10195000DF92EF92FF920F931F93CF93DF936B0170
:101960007C01042FB52E10E0C7E3D5E01AC00E9419
:101970003408DC01CB018C199D09AE09BF09893EF1
:101980009340A105B10500F50E943408DC01CB01AC
:101990008C199D09AE09BF0985369105A105B105D0
:1019A00008F5E0918B25F0918C2587898111DFCF97
:1019B00081E0810FDF91CF911F910F91FF90EF9008
:1019C000DF90CF90BF900895BF920F938EE495E083
:1019D0009F938F930E949E4D0F900F900F900F90AA
:1019E00080E0E8CF112331F08AE090E00E944E08B9
:1019F00011E0D7CFBF920F93DF93CF930E949E4DFC
:101A00000F900F900F900F90EFCFCF93DF93E09157
:101A10008B25F0918C259789911130C091E0978B9F
:101A2000108E880F8283442359F0DB0180E090E020
:101A30003D91EF01C80FD91F3B8301968417C0F376
:101A4000438B248B158A168A838981110DC0848962
:101A5000882301F1828181600190F081E02D8683ED
:101A600081E0DF91CF91089582818E7F0190F08196
:101A7000E02D868381E0DF91CF91089582E295E0A9
:101A80009F938F930E949E4D0F900F9080E0DF9167
:101A9000CF91089581E0DF91CF910895E0E2F6E0E3
:101AA00080E28283858B83E080938106A3ECB3E29E
:101AB000A0938B25B0938C25E0EAF4E0ED93FC93A2
:101AC00088EF81838BE9858381E0848308959F92E9
:101AD000AF92BF92CF92DF92EF92FF920F931F933C
:101AE000CF93DF93982E5B01D42F89010E94340895
:101AF0006B017C01A801C701B6010E94A60CC82F8A
:101B00008823C1F0D930B0F720E04D2FB501892DE1
:101B10000E94050D882371F38C0F8150DF91CF91C6
:101B20001F910F91FF90EF90DF90CF90BF90AF90FB
:101B30009F90089580E0F2CF1F920F920FB60F9200
:101B400011240BB60F922F938F939F93AF93BF9354
:101B5000CF93DF93EF93FF93E0918B25F0918C254A
:101B6000A081B18114968C911497982F9C7041F4A8
:101B700086FD24C087FD3DC086E0808F178A0BC09C
:101B800014968C91149782FD16C093E0908F886014
:101B900014968C93178AFF91EF91DF91CF91BF91AB
:101BA000AF919F918F912F910F900BBE0F900FBE11
:101BB0000F901F90189594E0908FE9CF9389248916
:101BC00014968C91149784FD0DC08589891750F166
:101BD00086898217D8F183E013968C9381E0808FF9
:101BE000178AD9CF83E013968C9385E0808F178A6C
:101BF000D2CF8689883008F517968C9117979689E9
:101C0000EF01C90FD11D8B8786898F5F868B9489E1
:101C10008689891700F187E013968C9381E0808F85
:101C2000178AB9CF8589EF01C80FD11D8B8117960F
:101C30008C9385898F5F858BAECF83E013968C93D1
:101C400082E0808F178AA081B181E1CF828181609B
:101C500016968C93A0CF82E013968C939CCF4FB7AF
:101C6000F894E0E0FBE0318190E0DC01A959BF4D40
:101C70002C9120952323218328E3289FF001299F7D
:101C8000F00D1124E350FC4D17AA16AA12861386F4
:101C90001086118616821782880F991FFC01EA5F51
:101CA000FF4D0190F081E02D8181806481838481EA
:101CB000806184834FBF0895EF92FF920F931F932B
:101CC000CF93DF93CDB7DEB70DB71EB780916D22EE
:101CD00090916E2201962DB73EB7281B390B2DBF70
:101CE0003EBF8DB79EB701967C0140916D22509109
:101CF0006E224F5F5F4F6DE272E20E949F4C6091D7
:101D00006D2270916E22C7010E947B368FB7F894C6
:101D1000109270228FBF0DBF1EBFDF91CF911F9118
:101D20000F91FF90EF9008958F929F92AF92BF9284
:101D3000CF92DF92EF92FF920F931F93CF93DF9397
:101D4000C82FD0E098E3899FD0011124A350BC4D47
:101D50001A96ED91FC911B97E730F10508F450C0FD
:101D60001A968D919C911B970797A80FB91F1E96E5
:101D70008C9180932C22FE01EE0FFF1FEA5FFF4D36
:101D8000A081B18180912C228C9388E38C9FF001FB
:101D90008D9FF00D1124E350FC4D828593850196B3
:101DA000828793872285338586A990E00796281736
:101DB0003907C8F0148215821682178210861186A0
:101DC000128613861486158616AA17AA14968C9165
:101DD0001497806114968C93149713968C91139793
:101DE0008C7F13968C93DF91CF911F910F91FF9071
:101DF000EF90DF90CF90BF90AF909F908F9008951D
:101E00008827E250FF4F8F4F0C94254988E38C9F21
:101E1000F0018D9FF00D1124E350FC4D80859185DC
:101E200090932C22A8CF88E38C9F80018D9F100D6A
:101E3000112403501C4DF80187A986FD5CC088E37E
:101E40008C9FF0018D9FF00D1124E350FC4D808597
:101E5000918580932C228FCF88E38C9FF0018D9FFA
:101E6000F00D1124E350FC4D8681978180932C2244
:101E700082CF88E38C9FF0018D9FF00D1124E350F9
:101E8000FC4D8681978190932C2275CF88E38C9F9F
:101E9000F0018D9FF00D1124E350FC4D848195815C
:101EA00080932C2268CF88E38C9FF0018D9FF00DEA
:101EB0001124E350FC4D8481958190932C225BCFBB
:101EC00088E38C9FF0018D9FF00D1124E350FC4DB1
:101ED00086A98F7380932C2287A990912C228078D9
:101EE000892B80932C2287A990912C228074892B96
:101EF00080932C2240CF0E943408F801C084D18402
:101F00004B015C01AA24BB24E12CF12C8C149D0410
:101F1000AE04BF04A8F020853185621B730B6133CA
:101F2000F5E77F0710F060EF7FEF88E38C9FF0010B
:101F30008D9FF00D1124E350FC4D608771877FCF9A
:101F400060E070E0F2CFCF93DF9394E49093420689
:101F500084E080936206909382068093A2068FB7F6
:101F6000F8949FE39093BF238FBFC6E0D0E262E175
:101F700070E2DE0148E233E020E792E0ED91FD916E
:101F8000438335832683978384818061848384811E
:101F9000886084836A177B0789F710928D251092D9
:101FA0008E2510928F25109290251092FA23109270
:101FB0004D251092702210926F2210927F25109260
:101FC00080251092E5231092E62380E090E038E32C
:101FD000389FF001399FF00D1124E350FC4D14821D
:101FE0001582168217821086118612861386148631
:101FF000158616AA17AAE991F991248120612483F4
:1020000001968630910521F78FB7F8941092BF237F
:102010008FBFDF91CF9108952F923F924F925F92A1
:102020006F927F928F929F92AF92BF92CF92DF92E8
:10203000EF92FF920F931F93CF93DF93E82E4B0104
:10204000342E222E88E2841708F4BFC06090AF239C
:102050007090B023F12C80E090E09701082E02C030
:10206000359527950A94E2F720FDB8C00196863091
:10207000910599F7E301332019F1F4012FEF230DB6
:1020800030E02F5F3F4F280D391D8191C8278C2FDD
:1020900082958C27082E869586958025082E869514
:1020A000802587700C2ECD2F869507948795D02D8F
:1020B000C82706948795D025C827E217F30729F784
:1020C0008BE0A82E84E2B82E97E6C92E90E2D92E96
:1020D00000E010E0432C512C0BC00F5F1F4FF8E3C2
:1020E000AF0EB11C8FEFC81AD80A0630110541F1A6
:1020F000C701002E02C0959587950A94E2F780FFEC
:10210000ECCF88E3809FF001819FF00D1124E35014
:10211000FC4D87A9806287AB36AAC483D58312861B
:10212000138666827782A201B401C5010E949F4C8A
:102130009091010BF6018081892B8093010BCDCF0B
:10214000E6E0F0E280E090E048E308C02360139608
:102150002C93019632968630910521F19701082E35
:1021600002C0359527950A94E2F720FFF2CF489FE9
:10217000D001499FB00D1124A350BC4D1D921D925A
:102180001D921C921397A081B18113962C911397E5
:102190002110DCCF226013962C9301963296863064
:1021A0009105E1F6DF91CF911F910F91FF90EF9094
:1021B000DF90CF90BF90AF909F908F907F906F9067
:1021C0005F904F903F902F90089588E896E09F93FE
:1021D0008F930E949E4D0F900F9038CF28E3289F39
:1021E000F001299FF00D1124E350FC4D87A9807C5C
:1021F000E301C8278C2F82958C27082E869586951B
:102200008025082E8695802587700C2ECD2F8695EB
:1022100007948795D02DC82706948795D025C82781
:1022200087A986FD28CF80859185C8278C2F829528
:102230008C27082E869586958025082E86958025E4
:1022400087700C2ECD2F869507948795D02DC827A3
:1022500006948795D025C8270ECF4F925F926F9234
:102260007F928F929F92AF92BF92FF920F931F9394
:10227000CF93DF93C82F0E9434082091BF232C23D3
:1022800009F059C0D0E0AC2FB0E020E030E010E021
:1022900000E0C0E048E3F42EAD01022E02C05595E7
:1022A00047950A94E2F740FF2FC0F29EF001F39E9B
:1022B000F00D1124E350FC4D47A946FF03C047A988
:1022C00047FD3BC0F29EF001F39EF00D1124E35058
:1022D000FC4D47A945FDC2E0F29EF001F39EF00DD2
:1022E0001124E350FC4D80809180A280B3802B01AB
:1022F0003C01481859086A087B0840E1441651041B
:102300006104710408F401E02F5F3F4F263031056E
:1023100019F6802F812B8D2B8C2BDF91CF911F9164
:102320000F91FF90BF90AF909F908F907F906F9094
:102330005F904F900895D8E0A6CF14E0C3CFDF920E
:10234000EF92FF920F931F93CF93DF93D82EEB0161
:10235000142F79010E942D11823008F45EC01F9263
:102360008F9380E696E09F938F930E949E4D0F90EF
:102370000F900F900F90112309F442C08881805272
:102380008F3508F08DC0FE0131961150212F30E0BD
:102390002F5F3F4F2C0F3D1F05C0819180528F351D
:1023A00008F07CC0E217F307C1F7DD24D394012FB6
:1023B00010E00F5F1F4F0C0F1D1F80E6E82E80E21C
:1023C000F82E12C0282F082E000C330B3F938F934A
:1023D000FF92EF920E948A4D0F900F900F900F90F6
:1023E0002196C017D10761F08881DD2059F3082EAE
:1023F000000C990B0E94C64D2196C017D107A1F77A
:1024000086E991E20E94CC4D80E0DF91CF911F914F
:102410000F91FF90EF90DF9008954D2D50E0A6E0D2
:10242000B0E280E090E068E371E09A01082E02C01B
:10243000359527950A94E2F720FF1CC0ED91FC9199
:10244000119724812F7E2483689FF001699FF00DEE
:102450001124E350FC4D77AB002319F027A9206825
:1024600027AB689FF001699FF00D1124E350FC4DEC
:10247000E086F1860196129686309105B1F620E04D
:10248000412FBE018D2D0E940C1081E0DF91CF9174
:102490001F910F91FF90EF90DF900895D12C87CF7F
:1024A000D12C115084CF0F9301E00E949F110F9106
:1024B00008950F9301E020E030E00E949F110F91FA
:1024C00008950F9300E00E949F110F9108950F93BC
:1024D00000E020E030E00E949F110F910895AF923C
:1024E000BF92DF92EF921F93CF93DF93E82E5B01B1
:1024F000142FE901DFB6F8940E942D118430E0F525
:10250000103408F010544E2D50E0A6E0B0E280E008
:1025100090E078E361E89A01082E02C0359527958E
:102520000A94E2F720FF13C0ED91FC9111972481EA
:102530002F7E2483789FF001799FF00D1124E350C2
:10254000FC4D67AB27A9206427ABC087D1870196D4
:10255000129686309105F9F6DFBE21E0412FB501D4
:102560008E2D0E940C1081E0DF91CF911F91EF9092
:10257000DF90BF90AF900895DFBE80E0DF91CF91F4
:102580001F91EF90DF90BF90AF9008950C946F1261
:102590006F927F928F929F92AF92BF92CF92DF9273
:1025A000EF92FF920F931F93CF93DF93D82EC82FF4
:1025B000D0E08E01000F111F98012A5F3F4D790175
:1025C000D901ED91FC91C0800E94340828E32C9F32
:1025D000F0012D9FF00D1124E350FC4D808091807F
:1025E000A280B3809B01AC01281939094A095B0913
:1025F00049015A0131E183169104A104B10490F01C
:10260000148215821682178210861186128613860E
:102610001486158616AA17AAD701ED91FC9124817C
:102620002061248328E32C9FD0012D9FB00D11241D
:10263000A350BC4D6D937D938D939C9313971A96E5
:10264000ED91FC911B97E730F10508F44BC01A9609
:10265000ED91FC911B973797EA0FFB1FC6861C96DE
:102660008D919C911D978C25282F22952827022E2D
:10267000269526952025022E269520252770082EA2
:10268000892F269507942795902D822706942795C4
:10269000902582271C968D939C931D9788E38C9F91
:1026A000F0018D9FF00D1124E350FC4D8285938540
:1026B0000196828793872285338586A990E00796C5
:1026C00028173907A8F4DF91CF911F910F91FF9040
:1026D000EF90DF90CF90BF90AF909F908F907F90C2
:1026E0006F9008958827EB5FFE4F8F4F0C9425491C
:1026F00080859185892B09F04CC080E098E39C9FF0
:10270000F0019D9FF00D1124E350FC4D97A9892BFA
:1027100087AB248535858481958164857585A68000
:10272000B7804091AF235091B023F7A8BF2DB0746C
:10273000CB2EF6FCD5C0E084F184EF2809F4D0C09C
:10274000E084F184E1E04E155F0509F4C9C0281763
:10275000390709F4CAC088E38C9FF0018D9FF00D02
:102760001124E350FC4D14821582168217821086C4
:102770001186128613861486158616AA17AAF801E2
:10278000EA5FFF4D0190F081E02D848180618483B8
:102790009ACF80E1B3CF8C2D90E028E32C9FF001FD
:1027A0002D9FF00D1124E350FC4D8087918776CF4B
:1027B0008C2D90E028E32C9FF0012D9FF00D11242B
:1027C000E350FC4D8483958369CF88E38C9FF001AF
:1027D0008D9FF00D1124E350FC4D848195819C293F
:1027E000848395835BCF88E38C9FF0018D9FF00DF0
:1027F0001124E350FC4D87A99C2D907C892B87AB3D
:1028000027A986819781207C8227282F2295282737
:10281000022E269526952025022E26952025277006
:10282000082E892F269507942795902D82270694A8
:10283000279590258227848795878C2D8F7386AB6B
:1028400086A9893208F42ACF81E086AB27CF88E3B6
:102850008C9FF0018D9FF00D1124E350FC4D80857D
:1028600091859C298087918787A986FD17CF208530
:102870003185848595858227282F22952827022E49
:10288000269526952025022E269520252770082E90
:10289000892F269507942795902D822706942795B2
:1028A0009025822784879587F9CE8C2D90E028E3A8
:1028B0002C9FF0012D9FF00D1124E350FC4D8683D9
:1028C0009783ECCE88E38C9FF0018D9FF00D11244F
:1028D000E350FC4D868197819C2986839783DECEC9
:1028E000E0E02817390709F036CF672B09F433CF1A
:1028F000A416B50609F42FCFE1112DCF88E38C9FE4
:10290000B0018D9F700D1124FB01E350FC4D7F0140
:1029100087A987FDA1C086A9882309F435C286A9A5
:10292000893208F03AC28091E5239091E623853FF1
:10293000914008F03BC2C0907F25D0908025BFB663
:10294000F89480917F2590918025892B09F475C09A
:10295000D6011A968D919C911B97892B51F0D60127
:102960001A96CD90DC901B97F60182859385892B72
:10297000B1F788E38C9FF0018D9FF00D1124E35097
:10298000FC4D86A9FFB6F89490E00D960E94474949
:10299000FFBED6011A968D939C931B971A96ED90C5
:1029A000FC901B974701BDE08B0E911C88E38C9F28
:1029B000B0018D9F700D1124FB01E350FC4D6F01A0
:1029C00046A950E0655F7B4DC4010E949F4CD70132
:1029D00018968D929C921997F60180819181A2811F
:1029E000B381F70180839183A283B383D601D69606
:1029F0008C91D697848716968D919C911797848396
:102A000095831C968D919C911D9786839783128642
:102A10001386D6962C918091E5239091E6230D960E
:102A2000820F911D8093E5239093E6238091FA23F2
:102A30008F5F8093FA23BFBE8ECEF70186A9DFB6E3
:102A4000F89490E00D960E9447497C01DFBE809388
:102A50007F2590938025A6CFCC2009F40EC186A9AE
:102A6000882309F46AC0813009F075CEC680D7800A
:102A700080809180A280B380E084F1847FB6F89456
:102A80008091F9238111F4C08FE30E942D118830C9
:102A900008F0EEC0FFEFEF16FF0609F4E9C0C092A0
:102AA0008125D092822525E0E216F10430F484E1FC
:102AB00090E0AC014E195F097A0155E0E50EF11C7A
:102AC0008E189F08A108B10881E08093F9238FE355
:102AD0008093BF2381E07FBE882309F43CCE5FB79B
:102AE000F894A6E0B0E220E030E048E307C02F5FB2
:102AF0003F4F12962630310509F431C1429FF00153
:102B0000439FF00D1124E350FC4D86819781C81638
:102B1000D90669F7148215821682178210861186EB
:102B2000128613861486158616AA17AAED91FC91B3
:102B30001197848180618483DACFC680D7808080BA
:102B40009180A280B380E084F1849FB7F894809153
:102B50006F228111FCC06090200A7090210AFFEF63
:102B6000EF16FF0609F4F3C081E080936F229FBF48
:102B7000882309F4F0CD0E94340897012B5F3F4F62
:102B800028193909620F731F80E090E00E94A44564
:102B900020E030E04AEF50E40E94E9470E9475458A
:102BA0006615770508F40BC12FEB621A22E6720A4C
:102BB000661A770AFFB6F89486E090E00E944749CB
:102BC000FFBE009741F1E091C123F091C223048040
:102BD000F581E02D208131816216730640F4048076
:102BE000F581E02D2081318162167306C0F32281C8
:102BF0003381D90114968D939C931597DC0112961D
:102C00002D933C9313971496ED93FC931597828321
:102C100093836D927C925FB7F894A6E0B0E280E077
:102C200090E048E306C0019612968630910509F4BB
:102C300092C0489FF001499FF00D1124E350FC4DD4
:102C400026813781C216D30671F714821582168247
:102C5000178210861186128613861486158616AA88
:102C600017AAED91FC911197248120612483DBCF79
:102C7000812C912C540180E02ECFCFB6F894809116
:102C80007022811166C046A950E0655F7B4D8DE2E0
:102C900092E20E949F4CD701D696EC91D697F0E035
:102CA000E35DFD4D1082D6968C91D69790E080938F
:102CB0006D2290936E228D919D910D90BC91A02DCF
:102CC00080938D2590938E25A0938F25B09390258A
:102CD000F701868197818093FB239093FC23D09208
:102CE000DC2381E080937022CFBE882309F433CDAA
:102CF00020E030E04CE55EE065E070E080E090E0F0
:102D00000E943C334FB7F894A6E0B0E280E090E038
:102D100038E3389FF001399FF00D1124E350FC4D4A
:102D200014821582168217821086118612861386E7
:102D30001486158616AA17AAED91FD9124812061AB
:102D4000248301968630910521F74FBF04CD80E0A2
:102D50000ECF80E0C9CF10926F225FBFFCCC5FBF67
:102D6000C501B4010E94622B8FB7F8941092BF2363
:102D70008FBF20E030E04FEC58E26AE070E080E086
:102D800090E00E943C33E7CC87E296E09F938F93DC
:102D90000E949E4D0F900F90DECC80ED95E09F93AA
:102DA0008F930E949E4D0F900F90D5CC82E695E0B8
:102DB0009F938F930E949E4D0F900F90CCCC661ADC
:102DC000770AF8CE1F920F920FB60F9211240BB60E
:102DD0000F922F933F934F935F936F937F938F93B4
:102DE0009F93AF93BF93EF93FF9380E00E94C8122D
:102DF000FF91EF91BF91AF919F918F917F916F91D3
:102E00005F914F913F912F910F900BBE0F900FBE8E
:102E10000F901F9018951F920F920FB60F921124CA
:102E20000BB60F922F933F934F935F936F937F93C4
:102E30008F939F93AF93BF93EF93FF9380E00E9494
:102E40002F0EFF91EF91BF91AF919F918F917F9145
:102E50006F915F914F913F912F910F900BBE0F900B
:102E60000FBE0F901F9018951F920F920FB60F92E2
:102E700011240BB60F922F933F934F935F936F9351
:102E80007F938F939F93AF93BF93EF93FF9380E0D4
:102E90000E94940EFF91EF91BF91AF919F918F91FE
:102EA0007F916F915F914F913F912F910F900BBE4A
:102EB0000F900FBE0F901F9018951F920F920FB694
:102EC0000F9211240BB60F922F933F934F935F9362
:102ED0006F937F938F939F93AF93BF93EF93FF93E2
:102EE00081E00E94C812FF91EF91BF91AF919F9135
:102EF0008F917F916F915F914F913F912F910F90A3
:102F00000BBE0F900FBE0F901F9018951F920F923F
:102F10000FB60F9211240BB60F922F933F934F933E
:102F20005F936F937F938F939F93AF93BF93EF9331
:102F3000FF9381E00E942F0EFF91EF91BF91AF911F
:102F40009F918F917F916F915F914F913F912F91C1
:102F50000F900BBE0F900FBE0F901F9018951F92F1
:102F60000F920FB60F9211240BB60F922F933F932F
:102F70004F935F936F937F938F939F93AF93BF9381
:102F8000EF93FF9381E00E94940EFF91EF91BF9128
:102F9000AF919F918F917F916F915F914F913F91F1
:102FA0002F910F900BBE0F900FBE0F901F90189592
:102FB0001F920F920FB60F9211240BB60F922F9300
:102FC0003F934F935F936F937F938F939F93AF93B1
:102FD000BF93EF93FF9382E00E94C812FF91EF919D
:102FE000BF91AF919F918F917F916F915F914F9121
:102FF0003F912F910F900BBE0F900FBE0F901F901F
:1030000018951F920F920FB60F9211240BB60F92C4
:103010002F933F934F935F936F937F938F939F93E0
:10302000AF93BF93EF93FF9382E00E942F0EFF9127
:10303000EF91BF91AF919F918F917F916F915F9130
:103040004F913F912F910F900BBE0F900FBE0F909D
:103050001F9018951F920F920FB60F9211240BB666
:103060000F922F933F934F935F936F937F938F9321
:103070009F93AF93BF93EF93FF9382E00E94940ED0
:10308000FF91EF91BF91AF919F918F917F916F9140
:103090005F914F913F912F910F900BBE0F900FBEFC
:1030A0000F901F9018951F920F920FB60F92112438
:1030B0000BB60F922F933F934F935F936F937F9332
:1030C0008F939F93AF93BF93EF93FF9383E00E94FF
:1030D000C812FF91EF91BF91AF919F918F917F9116
:1030E0006F915F914F913F912F910F900BBE0F9079
:1030F0000FBE0F901F9018951F920F920FB60F9250
:1031000011240BB60F922F933F934F935F936F93BE
:103110007F938F939F93AF93BF93EF93FF9383E03E
:103120000E942F0EFF91EF91BF91AF919F918F91D0
:103130007F916F915F914F913F912F910F900BBEB7
:103140000F900FBE0F901F9018951F920F920FB601
:103150000F9211240BB60F922F933F934F935F93CF
:103160006F937F938F939F93AF93BF93EF93FF934F
:1031700083E00E94940EFF91EF91BF91AF919F91D8
:103180008F917F916F915F914F913F912F910F9010
:103190000BBE0F900FBE0F901F9018951F920F92AD
:1031A0000FB60F9211240BB60F922F933F934F93AC
:1031B0005F936F937F938F939F93AF93BF93EF939F
:1031C000FF9384E00E94C812FF91EF91BF91AF91ED
:1031D0009F918F917F916F915F914F913F912F912F
:1031E0000F900BBE0F900FBE0F901F9018951F925F
:1031F0000F920FB60F9211240BB60F922F933F939D
:103200004F935F936F937F938F939F93AF93BF93EE
:10321000EF93FF9384E00E942F0EFF91EF91BF91F7
:10322000AF919F918F917F916F915F914F913F915E
:103230002F910F900BBE0F900FBE0F901F901895FF
:103240001F920F920FB60F9211240BB60F922F936D
:103250003F934F935F936F937F938F939F93AF931E
:10326000BF93EF93FF9384E00E94940EFF91EF9140
:10327000BF91AF919F918F917F916F915F914F918E
:103280003F912F910F900BBE0F900FBE0F901F908C
:1032900018951F920F920FB60F9211240BB60F9232
:1032A0002F933F934F935F936F937F938F939F934E
:1032B000AF93BF93EF93FF9385E00E94C812FF91F5
:1032C000EF91BF91AF919F918F917F916F915F919E
:1032D0004F913F912F910F900BBE0F900FBE0F900B
:1032E0001F9018951F920F920FB60F9211240BB6D4
:1032F0000F922F933F934F935F936F937F938F938F
:103300009F93AF93BF93EF93FF9385E00E942F0E9F
:10331000FF91EF91BF91AF919F918F917F916F91AD
:103320005F914F913F912F910F900BBE0F900FBE69
:103330000F901F9018951F920F920FB60F921124A5
:103340000BB60F922F933F934F935F936F937F939F
:103350008F939F93AF93BF93EF93FF9385E00E946A
:10336000940EFF91EF91BF91AF919F918F917F91BB
:103370006F915F914F913F912F910F900BBE0F90E6
:103380000FBE0F901F901895CF93DF93A0EAB6E081
:1033900093EF11969C931197E0E0FBE082E0848329
:1033A00080818360808383ED87A386A389E681A7DC
:1033B00083A785A787A780A782A79183C0E4D6E0CB
:1033C00098E8998320E636E088E0F901818340E8B7
:1033D00056E0FA01918311968C9311979E83F9011F
:1033E0008683FA01968316968C93169780E48B8BCE
:1033F0008F8BF901838BFA01838B878B53968C9388
:10340000DF91CF910895CF93DF9390E09C01220F3D
:10341000331FF901EA5FFF4DA081B18114964C91F1
:103420001497FC01EF58FD4D4083E0E0FBE0418143
:10343000EC01CA57DF4D5881652F609546234183C3
:10344000E0EAF6E051834481452B448314961C92B4
:10345000F901EC58FF4D0190F081E02DDC01A058FE
:10346000BF4D8C9181839481809589238483DF91E2
:10347000CF91089590E09C01220F331FF901EC5881
:10348000FF4D0190F081E02D5481DC01A058BF4D2B
:103490004C91452B4483F901EA5FFF4D0190F08187
:1034A000E02DDC01AF58BD4D2C912483E0EAF6E01D
:1034B0002481DC01AA57BF4D3C91932F9095922314
:1034C0009483E0E0FBE08181832B818308951F9347
:1034D000CF93DF93CDB7DEB72F97CDBFDEBF8E87FB
:1034E0009F878E859F858130914068F58E859F8569
:1034F00020919125309192252817390721F12E85A9
:103500003F858E859F8538878987932F90619A871D
:103510008B87932F90669C878D8787E0EDE6F0E29E
:10352000DE01119601900D928A95E1F79E012F5FC1
:103530003F4F46E0BE01685F7F4F8CE20E94670DFF
:10354000182F811107C02F96CDBFDEBFDF91CF911D
:103550001F9108959E012F5F3F4F46E0BE01685FB7
:103560007F4F8EE20E94670D882369F390E0810F00
:10357000911D029741F081EB96E09F938F930E94FB
:103580009E4D0F900F908E859F85809391259093EF
:103590009225D9CFE0E2F6E08CEF828387E0858B3D
:1035A000868B878B848B828B838BE0E4F2E090E2C6
:1035B000928390E19183848383E180A384E081A35B
:1035C00084B5848785B5858781E08083E7E7F2E26B
:1035D000108211821282138214821582168217823F
:1035E000108611861286138620E030E04DEB5BE1F9
:1035F00068EE73E080E090E00E943C3320E030E031
:1036000042EC5BE16FE175E180E090E00E94753390
:1036100008952F923F924F925F926F927F928F9276
:103620009F92AF92BF92CF92DF92EF92FF920F9351
:103630001F93CF93DF93CDB7DEB7362E4DB65EB670
:10364000062F10E0000F111F2DB73EB74CE0649F0E
:103650002019310911242DBF3EBFEDB7FEB73196B9
:103660004F01ADE8B0E2AF0168E2EE24E39430919F
:10367000610237703093610220916102262B209302
:1036800061023320C9F0FA0130E0FFB6F8942091CE
:103690006002206820936002209163022223E1F3FC
:1036A000609150027091510261937193E0926302B4
:1036B000FFBE3F5F3312E9CF400F511FF0E2A23946
:1036C000BF0711F06D91D3CF540124E0A20EB11CBD
:1036D00027E7622E22E2722E7C01C12CD12C3EEF14
:1036E000232E230C21C0F2E03F1609F442C00C9DAA
:1036F000F0010D9DF00D1C9DF00D1124E80DF91D3C
:1037000080819181F70180839183FFEFCF1ADF0AD7
:10371000A00EB11E22E0620E711C32E0E30EF11C1D
:1037200046E0C416D10481F032E03315E0F6622D94
:10373000C5010E94BE2EF30120813181821B930BB3
:10374000F70180839183E1CF4DBE5EBEDF91CF91C3
:103750001F910F91FF90EF90DF90CF90BF90AF90AF
:103760009F908F907F906F905F904F903F902F90A1
:10377000089561E0C5010297DCCF6DE087E792E232
:103780000C94091BEF92FF920F931F93CF93DF933B
:10379000CDB7DEB72C97CDBFDEBF1FB7F8948FE350
:1037A0000E942D11811135C08FE38093BF231FBF6D
:1037B0008E010F5F1F4F37E7E32E32E2F32EF70142
:1037C000D801808191818D939D931192119282E213
:1037D000E338F807B1F76DE087E792E20E94091B32
:1037E0000BC095958795F701819391937F01F3E83D
:1037F000EF16F2E2FF06C1F0F801219131918F013D
:10380000F70180819181820F931F97FFEACF019684
:10381000E8CF1FBF2C96CDBFDEBFDF91CF911F91A8
:103820000F91FF90EF9008958FB7F8941092BF23F7
:103830008FBFF0CFBF92CF92DF92EF92FF920F93A4
:103840001F93CF93DF93CDB7DEB76897CDBFDEBFB1
:10385000B82E092F8FE30E942D11811166C081E0DF
:103860008093342480936C248093A4248093DC245C
:103870008093142580934C25C0909125D09092255B
:1038800080E091E00E94671A7E018DE0E80EF11C55
:1038900065E0C7010E94091B10E0812F0E94031AF6
:1038A0001F5F1630D1F7AFECB7E01197F1F700C00A
:1038B000000065E0CE0101960E94091B10E0812FF7
:1038C0000E943A1A1F5F1630D1F7FE013196970118
:1038D0006B2D702F81919191D9014D915D919D0139
:1038E000841B950BDB018D939D93BD01EE15FF05A8
:1038F00089F7C6010E94671A1092342410926C2432
:103900001092A4241092DC241092142510924C25BD
:103910006896CDBFDEBFDF91CF911F910F91FF90D1
:10392000EF90DF90CF90BF90089586EE96E09F9342
:103930008F930E949E4D0F900F90EACFCF93DF930D
:10394000CDB7DEB72C97CDBFDEBFCE0101960E946A
:103950001A1CFE013196A7E7B2E240E050E080E099
:10396000619171912D913D91620F731F21E030E0C3
:103970006F3F774014F420E030E0042E01C0220FA6
:103980000A94EAF7822B4F5F5F4F4630510541F7AB
:103990002C96CDBFDEBFDF91CF91089580E090E8F7
:1039A00080938525909386258093872590938825FD
:1039B0008093892590938A251092B3231092B42383
:1039C0001092B5231092B6231092B7231092B82309
:1039D0001092B9231092BA231092BB231092BC23E9
:1039E0001092BD231092BE231092F8238091AF2332
:1039F0009091B02386362CE69207E1F1813D2CECC4
:103A00009207D1F1813623E19207C1F1019609F0C5
:103A1000089583E090E021E02093F823FC01EE0F6D
:103A2000FF1FE80FF91FEE0FFF1FEE56FF4D8081BD
:103A300091818093852590938625828193818093BF
:103A400087259093882584819581809389259093FB
:103A50008A2581E090E08093B3239093B4238093F0
:103A6000B9239093BA2380E190E08093BD23909393
:103A7000BE23089580E0CECF81E0CCCF82E0CACFD4
:103A8000E0E0F8E081818F7C81831082E0E4F8E05F
:103A900081818F7C81831082E0E0F9E081818F7CDD
:103AA0008183108283E38093460683E080936606D9
:103AB0001092892280918722909188220E943D3124
:103AC000109287221092882208958F929F92AF922F
:103AD000BF92CF92DF92EF92FF920F931F93CF93FB
:103AE000DF93CDB7DEB72997CDBFDEBF6B019091D5
:103AF000892297FD1BC1982F977090689093892217
:103B00006091852270918622660F771F629572956B
:103B1000707F7627607F7627A0908322B0908422E2
:103B2000AA0CBB1CA294B29440EFB422BA24A422E3
:103B3000BA2496E0899FF0011124DF01A25BBA4DFF
:103B40004D01DE0111967E01E7E0EE0EF11CC7018A
:103B500000E010E0F401219131914F012115310570
:103B600009F066C01D921C921197FC0110821296FA
:103B70000196AE15BF0571F700932609109327092A
:103B8000009366081093670800932608109327088F
:103B9000E981FA81E0932A08F0932B08E093280842
:103BA000F09329088B819C8180936A0890936B081D
:103BB00080936808909369088D819E8180932A097B
:103BC00090932B0980932809909329098090832250
:103BD00090908422880C991C8294929450EF9522A4
:103BE0009824852298245E0183E0A80EB11C20E071
:103BF00030E040E03097A1F0C801821B930BB80180
:103C00000E94DB48413009F4A9C0423009F492C057
:103C100080932008909321082E0F3F1F280D391DF7
:103C20004F5F4330C9F0D501ED91FD915D01E2CFC9
:103C3000A90137FD8EC0460F571F4D935C93119716
:103C4000232F220F220B220F2F5FFC0120830A0D4E
:103C50001B1D040F151F8BCF0217130781F01F9335
:103C60000F933F932F9381EF97E09F938F930E9441
:103C70009E4D0F900F900F900F900F900F9080E03F
:103C800090E047E0382FF70121917F01019627FD51
:103C900013C0222301F1313009F465C0323009F03C
:103CA0004EC080910109806280930109109202093F
:103CB00087E08093000911C0313009F472C03230BE
:103CC00009F45BC020910108206120930108109243
:103CD0000208409300088330A9F69801D6010E949B
:103CE0002D4925E096958795779567952A95D1F783
:103CF00020E030E040E45DE10E943C338093872285
:103D000090938822892B09F443C081E02996CDBF86
:103D1000DEBFDF91CF911F910F91FF90EF90DF9069
:103D2000CF90BF90AF909F908F90089580918922FF
:103D300080E0ECCF80932009909321096DCF2091F2
:103D400001082062209301081092020840930008A5
:103D5000C2CF44275527421B530B6DCF8093600879
:103D60009093610859CF2091410820622093410827
:103D7000109242084093400885CF809101098061EC
:103D8000809301091092020987E080930009A5CF72
:103D900087EC97E09F938F930E949E4D0F900F901A
:103DA000B4CF20914108206120934108109242082D
:103DB0004093400867CFCF92DF92EF92FF920F932C
:103DC0001F93CF93DF93182FEB01E82FF0E0EE0F56
:103DD000FF1FE851FC4D60817181673E83E07807E9
:103DE0002CF468319CEF79070CF043C080E090E040
:103DF0000E94A44520E030E04AE754E40E94C24417
:103E00006B017C01BE0180E090E00E94A445A70107
:103E100096010E94C2446B017C018AE090E00E94FE
:103E20004E08C701B6010E947545F62E072F7F93F5
:103E30006F93DF93CF931F921F938FE497E09F932D
:103E40008F930E949E4D8AE090E00E944E088DB7AD
:103E50009EB708968DBF9EBF6F2D702F812FDF916B
:103E6000CF911F910F91FF90EF90DF90CF900C9426
:103E7000651D8DE897E09F938F930E949E4D0F9054
:103E80000F90163048F48AE9C82E89E9D82E89E1C6
:103E9000E82E8FE3F82EB6CFC12CD12CE12C90E484
:103EA000F92EB0CFE82FF0E0EE0FFF1FE851FC4DE8
:103EB000608371830895DF92EF92FF920F931F93B7
:103EC000CF93DF9350E1E52EF12C8701025C1A4D70
:103ED000E7012696C7010E946E0AD82EC7010196F7
:103EE0000E946E0A2D2D30E0322F2227282BF80158
:103EF000219331938F01F2E0EF0EF11CEC16FD06D9
:103F000049F77E01C034D10501F728EEE22E23E205
:103F1000F22ECE010E946E0A182FCE0101960E9449
:103F20006E0A212F30E0322F2227282BF701219310
:103F300031937F012296C035D10559F7DF91CF919A
:103F40001F910F91FF90EF90DF900895CF93DF9333
:103F5000E0E4F6E083E38183A0E6B6E083E0119637
:103F60008C931197C0E0D8E018828983C0E4D8E030
:103F700018828983C0E0D9E01882898390E4908B0D
:103F8000918B948B958B50969C93509751969C93C4
:103F90005197868390E3968316968C93109289228C
:103FA00084E190E0809385229093862288E290E0DD
:103FB0008093832290938422DF91CF910C945B1F96
:103FC000DF92EF92FF920F931F93CF93DF93C0E1A5
:103FD000D0E08E01025C1A4D7E0186E0E80EF11CF5
:103FE000F801D08061810E5F1F4FCE010E94870AC9
:103FF0006D2DCE0101960E94870A2296CE15DF050F
:1040000079F7E701F0E4EF16F10419F7C8EED3E20F
:10401000188169812296C7010E94870A612FC70112
:1040200001960E94870AE2E0EE0EF11CF0E5EF1621
:10403000F10471F7DF91CF911F910F91FF90EF90F5
:10404000DF9008958F929F92AF92BF92CF92DF92AE
:10405000EF92FF921F93CF93DF9380E497E09F93BB
:104060008F930E949E4D8EE4A82E85E2B82E0F906D
:104070000F90C12CD12C95E3892E97E0992E2AEA36
:10408000E22E20E2F22EDF92CF929F928F920E9438
:104090009E4D0F900F900F900F90E50113E08881D7
:1040A000998122969F938F93FF92EF920E948A4D5F
:1040B00011500F900F900F900F9089F786E991E2C1
:1040C0000E94CC4D8FEFC81AD80A86E0A80EB11C0A
:1040D00088E0C816D104B9F686E991E2DF91CF9164
:1040E0001F91FF90EF90DF90CF90BF90AF909F9087
:1040F0008F900C94CC4DEF92FF920F931F93CF9320
:10410000DF938CE197E09F938F930E949E4D08EE82
:1041100013E20F900F90C0E0D0E082E1E82E87E03C
:10412000F82EF801808191810E5F1F4F9F938F932E
:10413000DF93CF93FF92EF920E949E4D21960F90B6
:104140000F900F900F900F900F90C830D10549F746
:10415000DF91CF911F910F91FF90EF900895909173
:10416000B10995FFFCCF8093B00981E090E00895FC
:10417000E0E6F6E080E8818380E48283E0EBF9E02A
:1041800083E0858387E1868384EA878384818061F5
:10419000848384818860848382E190E2809399257E
:1041A00090939A2510928A2210928B2280E2838328
:1041B0008AE090E00C94C64D1F920F920FB60F92BA
:1041C00011240BB60F922F933F934F935F936F93EE
:1041D0007F938F939F93AF93BF93CF93EF93FF936F
:1041E0008091B00990918C22913009F447C0909150
:1041F0008D22911128C08D3009F459C08A3009F4FC
:1042000056C0883009F43FC08B3109F488C0209132
:104210008A2230918B222034310509F484C0F901BF
:10422000E257FD4D80832F5F3F4F20938A223093CA
:104230008B226091992570919A25082E000C990B7C
:104240000E944E4D07C08B3519F481E080938C227B
:1042500010928D22FF91EF91CF91BF91AF919F91DD
:104260008F917F916F915F914F913F912F910F901F
:104270000BBE0F900FBE0F901F901895813461F107
:1042800010928C22E7CF80918A2290918B22009706
:1042900029F0019780938A2290938B228EEA90E2F4
:1042A0009F938F930E948A4D0F900F90D3CF86E9F2
:1042B00091E20E94CC4D60918A2270918B22FB0189
:1042C000E257FD4D10828EE892E20E947B361092FA
:1042D0008A2210928B22BECF80918A2290918B22CB
:1042E000C82F9927FC01E257FD4D8081882369F191
:1042F0006091992570919A25082E000C990B0E94C7
:104300004E4DCF5F2C2F30E0F901E257FD4D8081FB
:104310008111EECF20938A2230938B22B1CF81E09E
:1043200080938D2297CF1F9280E48F938BE298E049
:104330009F938F930E949E4D10928A2210928B22FF
:104340000F900F900F900F9085CF2C2F30E0E2CF81
:1043500083E080932206E0E9F3E081E080838183BB
:1043600088E08283838390E19683E0E0F6E08FE14A
:10437000828387E0808B818B828B838B848BE0E8C8
:10438000F3E09683928381E1838389E08083818354
:10439000089580E28093C00088B18093C30089B102
:1043A0008093C3008AB18093C3008BB18093C30014
:1043B0008CB18093C3008DB18093C30080B3809390
:1043C000C30082B38093C30083B38093C30084B3DC
:1043D0008093C30085B38093C300809124028093AF
:1043E000C30080912C028093C3008091340280939B
:1043F000C300809164028093C30080916C0280931B
:10440000C30081E08093D02280E191E09093C200CC
:104410008150E1F784E88093C0001092CF2210927F
:10442000CE2208959091CF229923A1F08091C200CD
:104430009F5F9093CF229031B0F02091D02290E1F5
:104440002093C2009150E1F794E89093C00010923D
:10445000CF2208958091C10080FFFCCF8091C200DF
:1044600091E09093CF220895CF930E941222C82FFB
:104470000E9412222C2F30E0322F2227A901482B34
:10448000CA01CF910895CF92DF92EF92FF926B0114
:104490007C0120E030E0A9010E94B84418167CF5A8
:1044A00020E030E040E05FEBC701B6010E945648D3
:1044B00028E937EF44ED5CE30E94DA432EEC30EF5D
:1044C00042EC51EC0E94E9470E943C4520E030E07C
:1044D00040E85FE30E94DA439B01AC016BEB71E8BB
:1044E00082E494E40E94C2442BEB31E044E054E4C3
:1044F0000E94D943FF90EF90DF90CF90089560E045
:1045000070E080EC9FE7FF90EF90DF90CF900895F0
:104510001092192310921A2310921B2310921C231D
:10452000E1EDF2E289E193E21082118212821382BC
:1045300014821582168217821086118612861386BF
:104540003C968E179F0781F7109281251092822545
:104550001092F92308952F923F924F925F926F929B
:104560007F928F929F92AF92BF92CF92DF92EF9203
:10457000FF920F931F93CF93DF93CDB7DEB7CC5449
:10458000D109CDBFDEBF4B015C0129013A016701B2
:104590007801CA01B9010E94A6489B01AC01C5017E
:1045A000B40190580E94E94729966CAF7DAF8EAF59
:1045B0009FAF2997C301B2010E94BD449B01AC018A
:1045C000C501B4010E94E9472D966CAF7DAF8EAF57
:1045D0009FAF2D97C701B6010E94BD444B015C01FE
:1045E000C701B6010E94A6486BAB7CAB8DAB9EABFE
:1045F0008E010F5F1F4F32EE232E30E2332ECE019D
:10460000C19689AB9AAB44EA442E4BE6542E48E956
:10461000642E41E4742EC12CD12C50E3E52E51E4DC
:10462000F52E0CC0D101CD90DD90ED90FC9013974C
:1046300014964D905D906D907C901797A501940114
:10464000C701B6010E94E9476FAB78AF89AF9AAF57
:104650002BA93CA94DA95EA9C301B2010E94E9475B
:104660009B01AC016FA978AD89AD9AAD0E94D94389
:10467000D8016D937D938D939C9313972BA93CA99F
:104680004DA95EA9C701B6010E94E9476B017C01F3
:10469000A3019201C501B4010E94E9479B01AC014D
:1046A000C701B6010E94DA43F801648375838683EB
:1046B0009783085F1F4FF8E02F0E311C89A99AA934
:1046C0000817190709F0AECFA1EDB2E22596AEAFFB
:1046D000BFAF259784EA9BE6A8E9B1E48BAF9CAF16
:1046E000ADAFBEAF412C512C90E3692E91E4792EF1
:1046F000312C23961CAE1DAE1EAE1FAE23972BEAA7
:10470000222E77C02596EEADFFAD25970191119130
:104710002596EEAFFFAF2597A3019201C501B40125
:104720000E94E9474B015C012BA93CA94DA95EA958
:10473000CA01B9010E94E9472B013C01A70196017A
:10474000C701B6010E94E9479B01AC01C301B20158
:104750000E94DA4320E030E042EF53E40E94E94750
:104760009B01AC01C501B4010E94C2446B017C01F4
:10477000B801110F880B990B0E94A6459B01AC0153
:10478000C701B6010E94E9479B01AC0123966CADBD
:104790007DAD8EAD9FAD23970E94DA4323966CAF1B
:1047A0007DAF8EAF9FAF23973394F4E23F1609F4A9
:1047B000A3C0329C812D112486958695982F990F40
:1047C000890F880FE32DE81BF0E0EE0FFF1FEE0FBF
:1047D000FF1FEE0FFF1FEE51FF4D408051806280A2
:1047E000738084819581A681B7818BAF9CAFADAF7B
:1047F000BEAF329C812D11248695869501E010E094
:104800000C0F1D1FB8E08B9F000D111D1124F80126
:1048100080809180A280B380A501940129966CAD1F
:104820007DAD8EAD9FAD29970E94DA43A301920121
:104830000E94D9436BAB7CAB8DAB9EABD801149679
:104840008D919D910D90BC91A02D8FAB98AFA9AF8C
:10485000BAAF9C01AD012D966CAD7DAD8EAD9FAD17
:104860002D970E94DA432BAD3CAD4DAD5EAD0E945D
:10487000D9436B017C01A30192016BA97CA98DA98D
:104880009EA90E94E9472B013C012BAD3CAD4DADEB
:104890005EADC701B6010E94E9479B01AC01C301AF
:1048A000B2010E94DA432B013C016BA97CA98DA9BE
:1048B0009EA99058A50194010E94E9474B015C0113
:1048C000C701B60190582FA938AD49AD5AAD0E9425
:1048D000E9479B01AC01C501B4010E94DA434B01D9
:1048E0005C0120E030E0A9010E94B84487FF0ACFB4
:1048F000812C912C540106CF23966CAD7DAD8EADED
:104900009FAD2397C45BDF4FCDBFDEBFDF91CF915B
:104910001F910F91FF90EF90DF90CF90BF90AF90DD
:104920009F908F907F906F905F904F903F902F90CF
:104930000C9443222F923F924F925F926F927F92FC
:104940008F929F92AF92BF92CF92DF92EF92FF929F
:104950000F931F93CF93DF93CDB7DEB7CC5ED10912
:10496000CDBFDEBF4B015C0129013A01670178012F
:1049700020E030E048E352E40E94B84487FDDFC203
:10498000D501C401B058CD53DF4F88839983AA83E2
:10499000BB83C35CD040C301B2010E94A648CD5383
:1049A000DF4F288139814A815B81C35CD0400E94FE
:1049B000E947CD51DF4F688379838A839B83C35E48
:1049C000D040C301B2010E94BD449B01AC01C501AE
:1049D000B4010E94E947C951DF4F688379838A8314
:1049E0009B83C75ED040C701B6010E94BD44CD5332
:1049F000DF4F688379838A839B83C35CD040C70180
:104A0000B6010E94A6482B013C01DE01AF56BF4F04
:104A1000CF53DF4FA883B983C15CD0408D0132EE04
:104A2000232E30E2332EFD01F096C553DF4FE8838D
:104A3000F983CB5CD04044EA842E4BE6942E48E9BF
:104A4000A42E41E4B42EC12CD12C50E3E52E51E428
:104A5000F52E0CC0D101CD90DD90ED90FC90139718
:104A600014968D909D90AD90BC901797CD53DF4FCD
:104A7000288139814A815B81C35CD040C701B6017E
:104A80000E94E947C953DF4F688379838A839B83F8
:104A9000C75CD040A3019201C501B4010E94E9475F
:104AA0009B01AC01C953DF4F688179818A819B8169
:104AB000C75CD0400E94D943D8016D937D938D93FC
:104AC0009C931397A3019201C701B6010E94E94785
:104AD0006B017C01A5019401CD53DF4F6881798181
:104AE0008A819B81C35CD0400E94E9479B01AC0155
:104AF000C701B6010E94DA43F80164837583868397
:104B00009783085F1F4FF8E02F0E311CC553DF4F0E
:104B100088819981CB5CD0400817190709F09ACF9A
:104B2000A1EDB2E2C551DF4FA883B983CB5ED0407F
:104B3000FE0131961F01C352DF4FE883F983CD5D3B
:104B4000D040C552DF4FA883B983CB5DD04084EA03
:104B50009BE6A8E9B1E4C952DF4F88839983AA8311
:104B6000BB83C75DD040412C512C20E3622E21E451
:104B7000722E10E0C553DF4F188219821A821B82F1
:104B8000CB5CD040C953DF4F188219821A821B8236
:104B9000C75CD0400BEAC1C0CD53DF4F688179813B
:104BA0008A819B81C35CD0409058C153DF4F2881DC
:104BB00039814A815B81CF5CD0400E94E9472B015B
:104BC0003C01C701B6019058CD52DF4F2881398191
:104BD0004A815B81C35DD0400E94E9479B01AC01E3
:104BE000C301B2010E94DA436B017C0120E030E096
:104BF000A9010E94B84487FD3BC1C552DF4FE8813F
:104C0000F981CB5DD04061917191C552DF4FE8834E
:104C1000F983CB5DD040072E000C880B990B0E94C6
:104C2000A6459B01AC01C953DF4F688179818A8118
:104C30009B81C75CD0400E94DA43C953DF4F688331
:104C400079838A839B83C75CD040A7019601C50105
:104C5000B4010E94E9476B017C0120E030E042EFA3
:104C600053E4C152DF4F688179818A819B81CF5D96
:104C7000D0400E94E9479B01AC01C701B6010E94E8
:104C8000C2449B01AC01C352DF4FA881B981CD5D05
:104C9000D0406D937D938D939D93C352DF4FA88336
:104CA000B983CD5DD040C553DF4F688179818A815A
:104CB0009B81CB5CD0400E94DA43C553DF4F6883B1
:104CC00079838A839B83CB5CD0401F5F143209F4C5
:104CD000D3C0109F812D112486958695982F990F0A
:104CE000890F880FE12FE81BF0E0EE0FFF1FEE0F9A
:104CF000FF1FEE0FFF1FEE51FF4D4080518062807D
:104D0000738084819581A681B781C952DF4F8883E2
:104D10009983AA83BB83C75DD040109F812D112446
:104D20008695869591E9E92EF12CEC0EFD1EB8E0F2
:104D30008B9FE00CF11C1124D7018D919D910D905A
:104D4000BC91A02DC153DF4F88839983AA83BB8375
:104D5000CF5CD0409C01AD01CD51DF4F688179819E
:104D60008A819B81C35ED0400E94DA43A3019201F5
:104D70000E94D943CD53DF4F688379838A839B8315
:104D8000C35CD040D70114968D919D910D90BC913C
:104D9000A02DCD52DF4F88839983AA83BB83C35D47
:104DA000D0409C01AD01C951DF4F688179818A8172
:104DB0009B81C75ED0400E94DA43C952DF4F2881F1
:104DC00039814A815B81C75DD0400E94D9436B0124
:104DD0007C01CD53DF4F288139814A815B81C35CDF
:104DE000D040CA01B9010E94E9474B015C01A7010B
:104DF0009601C701B6010E94E9479B01AC01C501BC
:104E0000B4010E94DA43C152DF4F688379838A83F9
:104E10009B83CF5DD040A3019201CD53DF4F6881CA
:104E200079818A819B81C35CD0400E94E9474B0114
:104E30005C01C952DF4F288139814A815B81C75D9E
:104E4000D040C701B6010E94E9479B01AC01C501F2
:104E5000B4010E94DA434B015C0120E030E0A9017B
:104E60000E94B84487FF98CE812C912C540194CE97
:104E7000C12CD12C7601C1CEC12CD12C7601C551CB
:104E8000DF4F08811981CB5ED040D8016D917D91B3
:104E90008D01F10141905190619071901F01072E99
:104EA000000C880B990B0E94A645C953DF4F28813F
:104EB00039814A815B81C75CD0400E94C2444B016A
:104EC0005C01C553DF4F288139814A815B81CB5C0E
:104ED000D040C301B2010E94C2449B01AC01C50194
:104EE000B4010E94D9439B01AC015F77C701B601B1
:104EF0000E94DA436B017C01CF53DF4F8881998197
:104F0000C15CD0408215930509F0BFCFC701B6013F
:104F1000C451DF4FCDBFDEBFDF91CF911F910F9105
:104F2000FF90EF90DF90CF90BF90AF909F908F90C9
:104F30007F906F905F904F903F902F90089580E00A
:104F400090E0A8E3B2ECCD53DF4F88839983AA8326
:104F5000BB83C35CD040812C912C68E3A62E62E415
:104F6000B62E19CD2F923F924F925F926F927F9201
:104F70008F929F92AF92BF92CF92DF92EF92FF9269
:104F80000F931F93CF93DF93CDB7DEB76C97CDBF51
:104F9000DEBF898F9A8F6B8F7C8F21ED222E22E2CC
:104FA000322E87ED93EBADE5BFE38D8B9E8BAF8B00
:104FB000B88F80E090E0A0E0BFEB898B9A8BAB8B41
:104FC000BC8B80E090E0A0E8BFEB8D879E87AF8729
:104FD000B88B19861A861B861C8610E0412C512C32
:104FE0003201530142014D825E826F82788649828E
:104FF0005A826B827C820BEA49C0109F812D11245A
:1050000086958695982F990F980F990F212F291B18
:1050100030E0E6E0F0E0E81BF109CF01820F931FDA
:1050200066E070E00E94EF48FC01EE0FFF1FEE0FFC
:10503000FF1FEE0FFF1FEE54FF4D84819581A68167
:10504000B78189879A87AB87BC8780819181A2814C
:10505000B3818D879E87AF87B88B220F331F220FB6
:10506000331F220F331FF901EE5EFE4D84819581BF
:10507000A681B781898B9A8BAB8BBC8B8081918108
:10508000A281B3818D8B9E8BAF8BB88FD1016D9137
:105090007D911D01072E000C880B990B0E94A645DF
:1050A0006B017C012D893E894F89588D0E94E9470B
:1050B0009B01AC0169817A818B819C810E94DA43DA
:1050C00069837A838B839C8329893A894B895C899C
:1050D000C701B6010E94E9479B01AC016D817E8149
:1050E0008F8198850E94DA436D837E838F839887B2
:1050F0002D853E854F855889C701B6010E94E94735
:105100009B01AC01C501B4010E94DA434B015C0173
:1051100029853A854B855C85C701B6010E94E94720
:105120009B01AC01C301B2010E94DA432B013C0197
:105130001F5F143209F061CF29813A814B815C8174
:105140006D817E818F8198850E945944A98DBA8D89
:105150006D937D938D939C931397A5019401C30147
:10516000B2010E945944EB8DFC8D60837183828370
:1051700093836C96CDBFDEBFDF91CF911F910F91CE
:10518000FF90EF90DF90CF90BF90AF909F908F9067
:105190007F906F905F904F903F902F9008952F9247
:1051A0003F924F925F926F927F928F929F92AF92B7
:1051B000BF92CF92DF92EF92FF920F931F93CF9304
:1051C000DF93CDB7DEB72C97CDBFDEBFA1EDB2E246
:1051D00009E113E2C12CD12C6FE3FD0120E030E0A6
:1051E0004191519181E090E04115510511F480E029
:1051F00090E0022E01C0880F0A94EAF78095682398
:10520000C40ED51E2F5F3F4F2630310549F71C963F
:105210000A171B0711F7E62EF12C812C912CA12CDB
:10522000B12CE0E04091192350911A2360911B2387
:1052300070911C230FE010E066246394712C2EE61D
:10524000222E28E0322E34C0C301082C02C0880F61
:10525000991F0A94E2F7092E000CAA0BBB0B840FCE
:10526000951FA61FB71FAC01BD0180931923909312
:105270001A23A0931B23B0931C23052C04C0B695BE
:10528000A795979587950A94D2F78F709927AA27A3
:10529000BB270F97A105B10509F48FC18FEFA81A9D
:1052A000B80A94E0890E911CA6E0AA16B10439F15F
:1052B0009501C7010A2C02C0959587950A94E2F7DB
:1052C000582C80FDC1CFC801082C02C0880F991F3F
:1052D0000A94E2F780959095092E000CAA0BBB0B5F
:1052E00084239523A623B723AC01BD018093192302
:1052F00090931A23A0931B23B0931C23BECFEE23BD
:1053000009F457C044E664E680E00E94D02C8CE2A9
:1053100091E00E944E0844E660E084E60E94D02CB2
:105320008CE291E00E944E0840E064E684E60E9430
:10533000D02C8CE291E00E944E080E94C52C44E6DD
:1053400064E680E00E94D02C8CE291E00E944E083E
:1053500044E660E084E60E94D02C8CE291E00E945A
:105360004E0840E064E684E60E94D02C8CE291E096
:105370000E944E080E94C52C44E664E680E00E942C
:10538000D02C8CE291E00E944E0844E660E084E676
:105390000E94D02C8CE291E00E944E0840E064E62E
:1053A00084E60E94D02C8CE291E00E944E080E947C
:1053B000C52CBE016F5F7F4FCE0105960E94B227BC
:1053C000B601DD0C880B990B0E94A64520E23BEB51
:1053D00044E050E40E94C2440E9443224B015C011D
:1053E00020E030E0A9010E94B844882309F4CAC033
:1053F000A5019401C501B4010E94B2488111C2C047
:1054000089819A81AB81BC8189879A87AB87BC8768
:105410004D805E806F8078847C018D01A3019201B4
:10542000C501B4010E94AB224B015C019B01AC01A0
:105430000E94B2488111A6C020E030E040E352E46F
:10544000C501B4010E94B84487FDE3C0A3019201E5
:10545000C501B4010E949A246B017C0120E030E078
:105460004CED52E4C501B4010E94B84487FD1EC151
:1054700020E030E048E453E4C501B4010E94B844A0
:1054800087FDE4C020E030E048E453E4C501B40106
:105490000E941E4718160CF475C0809181259091CA
:1054A00082258093E3239093E423C501B4010E94F5
:1054B00075456093DD237093DE2320E030E0A90181
:1054C000C301B2010E941E472BED3FE049E450E4C6
:1054D00087FDC8C0C301B2010E94DA432BED3FE053
:1054E00049EC50E40E94EC452BED3FE049E450E4E8
:1054F0000E94D9432BED3FE049E450E40E94C244AE
:1055000020E030E044E353E40E94E9470E946E4506
:105510006093DF237093E02320E030E0A9016985E8
:105520007A858B859C850E941E472BED3FE049E4E0
:1055300050E487FDA8C069857A858B859C850E948B
:10554000DA432BED3FE049EC50E40E94EC452BEDB3
:105550003FE049E450E40E94D9432BED3FE049E4A9
:1055600050E40E94C24420E030E044E353E40E944F
:10557000E9470E946E456093E1237093E22381E046
:105580008093E7238FB7F8941092F9238FBF2C965E
:10559000CDBFDEBFDF91CF911F910F91FF90EF90B4
:1055A000DF90CF90BF90AF909F908F907F906F9043
:1055B0005F904F903F902F9008953F932F933F928D
:1055C0002F920E949E4DC80102C0880F991F5A94C5
:1055D000E2F780959095092E000CAA0BBB0B409129
:1055E000192350911A2360911B2370911C23482387
:1055F00059236A237B234093192350931A236093E2
:105600001B2370931C230F900F900F900F90E1E0DD
:1056100045CEE984FA840B851C85A301920160E0E4
:1056200070E088E392E40E949A246B017C0120E000
:1056300030E040E85FE30E941E4718160CF4A2CF4A
:10564000812C912C88E3A82E82E4B82E20E030E053
:1056500040EC5FE3C701B6010E941E4718160CF02C
:1056600011CF90CFC301B2010E94D9432BED3FE08F
:1056700049EC50E40E94EC452BED3FE049E450E456
:105680000E94DA4337CF69857A858B859C850E9495
:10569000D9432BED3FE049EC50E40E94EC452BED63
:1056A0003FE049E450E40E94DA4357CF20E030E085
:1056B00040E85FE3C701B6010E941E4718160CF0D0
:1056C000D7CE60CFCF92DF92EF92FF921F93CF930E
:1056D000DF9328E0C22ED12CE12CF12CC61AD70A78
:1056E000E80AF90A0E943408DC01CB018C0D9D1DEB
:1056F000AE1DBF1D4E97A105B105A0F31FB7F894CD
:105700000E9434086B017C0106C08FE99FE001977D
:10571000F1F700C000000E943408DC01CB018C19B5
:105720009D09AE09BF090297A105B10570F3C1ED4E
:10573000D2E20E9434086B017C0106C08FE99FE031
:105740000197F1F700C000000E943408DC01CB0192
:105750008C199D09AE09BF090297A105B10570F327
:1057600069E0CE010E94091B06C08FE99FE0019706
:10577000F1F700C000000E943408DC01CB018C1955
:105780009D09AE09BF094097A105B10570F38AE0F4
:1057900090E00E944E082C9693E2C931D90749F651
:1057A0001FBFDF91CF911F91FF90EF90DF90CF90BF
:1057B0000895CF92DF92EF92FF920F931F93CF93B2
:1057C000DF936B017C0106C08FE99FE00197F1F741
:1057D00000C000000E943408DC01CB018C199D0937
:1057E000AE09BF094E97A105B10570F30E943408B8
:1057F0006B017C01C0919125D091922580E091E0D0
:105800000E94671A1FB7F89406C08FE99FE00197BE
:10581000F1F700C000000E943408DC01CB018C19B4
:105820009D09AE09BF090297A105B10570F300E01B
:105830000E9434086B017C01802F0E94031A06C06D
:105840008FE99FE00197F1F700C000000E94340843
:10585000DC01CB018C199D09AE09BF094097A10558
:10586000B10570F3802F0E943A1A8AE090E00E94FE
:105870004E080F5F0630E1F61FBFCE01DF91CF91DA
:105880001F910F91FF90EF90DF90CF900C94671ACB
:10589000CF92DF92EF92FF921F93CF93DF931F92ED
:1058A000CDB7DEB71FB7F8948FE30E942D1190910A
:1058B000F923911122C091E09093F9231FBF911118
:1058C00020C09091F92340E4949F90011124282B4B
:1058D0001F922F9385EA98E09F938F930E949E4D8D
:1058E0000F900F900F900F900F90DF91CF911F911D
:1058F000FF90EF90DF90CF90089590E01FBF992325
:1059000001F30E9434086B017C0182E789839601D0
:1059100041E4BE016F5F7F4F8FE30E94C612882370
:1059200081F08FB7F8949FE39093BF238FBF4FEF21
:10593000C701B6010E94D92B8FB7F8941092BF23EC
:105940008FBF8FB7F8941092F9238FBFCDCF80E32C
:105950008093810680E180936106E0E4FAE02FEF16
:1059600030E026A337A310A611A612A613A685E041
:10597000808393E39183E0E4F9E026A337A310A6A4
:1059800011A6808383E181830895E0E4FAE010AEFC
:1059900011AE12AE13AE10927809109279090895E3
:1059A00090E0E0E4FAE082AF93AF70E060AF71AFF7
:1059B00050E0409378095093790908952F923F92CF
:1059C0004F925F926F927F928F929F92AF92BF920F
:1059D000CF92DF92EF92FF920F931F93CF93DF93BB
:1059E000CDB7DEB72C97CDBFDEBF8B839C83B42EA3
:1059F0001901E982FA8270E080E090E00E94A645F9
:105A000020E030E04FE753E40E94C2446B017C0188
:105A10009F772CEA35EC47E257E30E94B84487FDB4
:105A2000F0C06B2D70E080E090E00E94A64520E081
:105A300030E04FE753E40E94C2444B015C012B81EC
:105A40003C81A3E8BDE20E942D490024880F991FE4
:105A5000001C880F991F001C892F902D48E651E0EB
:105A6000849F9001859F300D949F300D11248B8170
:105A70009C81821B930B8B839C83BC0180E090E014
:105A80000E94A44520E030E040E752E40E94C24476
:105A90002B013C010E9475456B8770E080E090E02F
:105AA0000E94A6459B01AC01C301B2010E94D943EB
:105AB0002B013C01A701960160E070E080E89FE3C4
:105AC0000E94D943A50194010E94E9476B837C831E
:105AD0008D839E83A3019201C701B6010E94E9470D
