:100000000C941E080C943F080C943F080C943F0875
:100010000C943F080C943F080C943F080C943F0844
:100020000C943F080C943F080C9444380C945036C0
:100030000C943F080C943F080C943F080C943F0824
:100040000C943F080C943F080C943F080C943F0814
:100050000C943F080C943F080C943F080C943F0804
:100060000C943F080C94A0180C94F2180C94C91826
:100070000C941B190C946D190C9444190C943F08A2
:100080000C943F080C943F080C943F080C943F08D4
:100090000C943F080C943F080C943F080C943F08C4
:1000A0000C943F080C943F080C943F080C943F08B4
:1000B0000C943F080C943F080C94340F0C94850D5D
:1000C0000C943F080C94E20C0C94200D0C943F0807
:1000D0000C943F080C943F080C943F080C943F0884
:1000E0000C943F080C943F080C94111A0C94631A5A
:1000F0000C943A1A0C948C1A0C94DE1A0C94B51ABF
:100100000C943F080C943F080C943F080C943F0853
:100110000C943F080C943F080C943F080C943F0843
:100120000C943F080C943F080C943F080C943F0833
:100130000C943F080C943F080C943F080C943F0823
:100140000C943F080C943F080C943F080C943F0813
:100150000C943F080C943F080C943F080C943F0803
:100160000C9496190C94E8190C94BF190C948023E4
:100170000C943F080C943F080C943F080C943F08E3
:100180000C943F080C943F080C943F080C943F08D3
:100190000C943F080C943F080C943F080C943F08C3
:1001A0000C943F080C943F080C943F080C943F08B3
:1001B0000C943F080C943F080C943F080C943F08A3
:1001C0000C943F080C943F080C943F080C943F0893
:1001D0000C943F080C943F080C943F080C94071BA8
:1001E0000C94591B0C94301B0C943F080C943F0842
:1001F0000C943F080C943F080C943F08C410D11095
:10020000DE10EB10F8109E10AB101316201696158A
:10021000A315B115E5158915084AD73B3BCE016EEC
:1002200084BCBFFDC12F3D6C74319ABD56833DDA4D
:100230003D00C77F11BED9E4BB4C3E916BAAAABE5C
:10024000000000803F07634236B79BD8A71A396881
:100250005618AEBAAB558C1D3CB7CC5763BD6DED8F
:10026000FD753EF6177231BF000000803F05A84CB7
:10027000CDB2D44EB93836A9020C50B9918688084F
:100280003CA6AAAA2ABE000000803F08000000BECB
:10029000922449123EABAAAA2ABECDCCCC4C3E0039
:1002A000000080BEABAAAAAA3E00000000BF00006A
:1002B00000803F0000000000084178D3BB4387D195
:1002C000133D190E3CC3BD4282AD2B3E68EC8276D5
:1002D000BED98FE1A93E4C80EFFFBE01C4FF7F3F36
:1002E0000000000000000C94B1150C94F2380C943E
:1002F000FE1E0C94EC2E0C94E3090C94E5150C9462
:10030000EB100C944A0C0C94A3150C94251C0C9423
:10031000732B0C9420160C947B1D0C949E100C9443
:10032000D1100C9496150C94F40F0C9413160C9495
:10033000DE100C9489150C94F8100C94AB100C94EE
:10034000D00C0C9453230C94C4100C94801D6E613B
:100350006E00696E660000407A10F35A00A0724E7B
:1003600018090010A5D4E80000E87648170000E45A
:100370000B54020000CA9A3B000000E1F5050000A2
:1003800080969800000040420F000000A086010007
:100390000000102700000000E803000000006400D7
:1003A000000000000A000000000001000000000042
:1003B0002C76D888DC674F0823DFC1DFAE59E1B166
:1003C000B796E5E3E453C63AE651997696E8E6C275
:1003D0008426EB898C9B62ED407C6FFCEFBC9C9F7C
:1003E00040F2BAA56FA5F490055A2AF75C936B6C9E
:1003F000F9676DC11BFCE0E40D47FEF520E6B50092
:10040000D0ED902E0300943577050080841E0800FF
:1004100000204E0A000000C80C333333330F986EAF
:1004200012831141EF8D2114893BE65516CFFEE66C
:10043000DB18D1844B381BF77C1D901DA4BBE42432
:10044000203284725E228100C9F124ECA1E53D27AF
:100450004552524F523A204D657373616765206C67
:10046000656E677468203020666F72206D73675FF9
:100470006E6F64652E0D0A004572726F723A204DE0
:1004800065737361676573206F766572666C6F77ED
:100490002E20546F6F206D616E79206D65737361CE
:1004A0006765732072656365697665642E20547292
:1004B00079207370656564696E6720757020796F47
:1004C0007572206C6F6F7020696620796F7520736C
:1004D000656520746869732061206C6F742E0D0A45
:1004E000004572726F722120576520676F7420611A
:1004F00068656164206F6620746865207461736B41
:10050000206C69737420616E64206E6F77206E6F4B
:100510007468696E672077696C6C206578656375AF
:1005200074652E0D0A0009545749207761736E27B0
:10053000742072656164792E0D0A005761697469CF
:100540006E6720666F7220545749207C2025730DFA
:100550000A00095457492074696D656F7574207CD1
:100560002025730D0A004552524F522120427566D4
:10057000666572656420696E636F6D696E67206D74
:100580006573736167657320636F6E73756D696EF4
:100590006720746F6F206D756368206D656D6F7275
:1005A000792E20416C6C6F772068616E646C655F9A
:1005B0006D736720746F2062652063616C6C656485
:1005C000206D6F7265206672657175656E746C79E9
:1005D0002E0D0A004552524F52212053686F756C00
:1005E00064204E4F5420626520616464696E672008
:1005F00061206D6573736167652077697468206C2D
:10060000656E6774682067726561746572207468CE
:10061000616E206275666665722073697A65207402
:100620006F2071756575652E0D0A004552524F5247
:10063000212053686F756C64204E4F5420626520F2
:10064000616464696E6720302D6C656E6774682024
:100650006D65737361676520746F2071756575656D
:100660002E0D0A0041626F7274696E672049522034
:1006700073656E64205B25303268785D2077686929
:100680006C6520747279696E673A20004552524F4A
:10069000523A204D657373616765206578636565BF
:1006A00064732049525F4255464645525F53495A4A
:1006B000452E0D0A0009446F6E65207761697469E3
:1006C0006E6720666F72205457492E204952207061
:1006D0006F776572732073657420737563636573D8
:1006E0007366756C6C792E0D0A0049522048617250
:1006F000647761726520627573792E2043616E277D
:100700007420636865636B20636F6C6C6973696FD9
:100710006E732E0D0A00092568750925750D0A00EE
:100720004469737420286D6D2920706572206B698F
:100730006C6F737465700D0A00096469723A202544
:10074000687509004D6F746F722056616C75657322
:100750000D0A00496E206F7264657220746F206705
:100760006F20696E20646972656374696F6E2025FD
:10077000687520666F72202575206D6D2C20746160
:100780006B696E672025752073746570732E0D0A72
:10079000004572726F723A20446F6E277420686150
:1007A00076652063616C696272617465642076614C
:1007B0006C75657320666F72207468697320646954
:1007C00072656374696F6E2E0D0A004572726F72E6
:1007D00021204661696C656420746F2073636865CD
:1007E00064756C652073746F705F6D6F76652074CF
:1007F00061736B2E004552524F523A2063757272EC
:10080000656E745F6F66667365743A202575206146
:100810006E6420746F74616C5F74696D653A202535
:1008200075206E6F7420657175616C210D0A000D65
:100830000A4552524F523A2053657269616C2069E1
:100840006E70757420627566666572206361706192
:1008500063697479206F6620257520636861726111
:1008600063746572732065786365656465642E0DD5
:100870000A0021212109476F7420313520636F6EF2
:100880007365637574697665206E6F7468696E67E9
:10089000732066726F6D2073656E736F72202568AA
:1008A000752E092121210D0A00524E422042726FFD
:1008B000616463617374206661696C6564205B20A8
:1008C0002530326858205D0D0A004552524F523A89
:1008D00020506F73742D72657475726E2C20746164
:1008E000736B2073746F7261676520636F6E7369D9
:1008F0007374656E637920636865636B20666169F4
:100900006C7572652E0D0A00506F73742D63616CE7
:100910006C2C207461736B20255820686173206EE5
:100920006578745F70747220706F696E74696E6739
:10093000206F757473696465206F662061727261DF
:10094000792E0D0A004552524F523A205072652DB1
:1009500063616C6C2C207461736B2073746F7261B3
:10096000676520636F6E73697374656E6379206366
:100970006865636B206661696C7572652E0D0A008F
:100980005072652D63616C6C2C207461736B2068F0
:100990006173206E6578745F70747220706F696E19
:1009A00074696E67206F757473696465206F662063
:1009B00061727261792E0D0A00095461736B2025F2
:1009C000702028257029207363686564756C6564E0
:1009D00020617420256C75207769746820706572B9
:1009E000696F6420256C752C20256C7520637572E9
:1009F00072656E740D0A005461736B2051756575D4
:100A0000652028256875207461736B732C20256818
:100A10007520657865637574696E67293A0D0A00FB
:100A20004E6577205461736B20257020282570292E
:100A3000207363686564756C656420617420256C3F
:100A400075207769746820706572696F6420256C01
:100A5000752C20256C752063757272656E740D0A95
:100A6000004552524F5221205461736B206C6973C0
:100A700074206861732073656C662D72656665729B
:100A8000656E63652E0D0A004552524F523A20544E
:100A900061736B207363686564756C656420666F51
:100AA0007220612074696D6520696E20746865200C
:100AB000706173742E0D0A004552524F523A2073E2
:100AC00063686564756C65725F6D616C6C6F6320E3
:100AD00072657475726E65642061206E65775F74EF
:100AE00061736B20706F696E746572206F757473BB
:100AF000696465206F6620746865207461736B207B
:100B000073746F726167652061727261792E0D0A6C
:100B1000004552524F523A204E6F20656D707479E5
:100B20002073706F7420666F756E6420696E207319
:100B300063686564756C65725F6D616C6C6F632C66
:100B400020627574206E756D5F7461736B732077AE
:100B500061736E27742067726561746572207468B2
:100B6000616E206F7220657175616C206D61785FB8
:100B70007461736B732E0D0A0009417474656D7096
:100B800074696E6720746F20726573746F7265206C
:100B90007461736B5F6C6973742E0D0A094966206A
:100BA000796F75206F6E6C79207365652074686944
:100BB00073206D65737361676520726172656C790E
:100BC0002C20646F6E277420776F72727920746F97
:100BD0006F206D7563682E0D0A004552524F523AD0
:100BE00020496E207363686564756C65725F667218
:100BF00065652C2074677420282558292077617337
:100C0000206F7574736964652076616C6964205423
:100C100061736B2A2072616E67652E0D0A004D6547
:100C20007373616765206C656E67746820776173A4
:100C300020257A2063686172732C20776869636865
:100C4000206578636565647320746865206D6178DC
:100C5000696D756D206F662025750042726F616445
:100C600063617374696E6720636F6D6D616E64207C
:100C7000746F20253034583A20222573222C206F9F
:100C800066206C656E6774682025692E0D0A004227
:100C9000726F616463617374696E6720636F6D6DF9
:100CA000616E643A20222573222C206F66206C65C9
:100CB0006E6774682025692E0D0A004D792049441D
:100CC0002069733A20253034580D0A00476F74208C
:100CD00061646A7573745F6D6F746F727320636F94
:100CE0006D6D616E642E20646972656374696F6EE8
:100CF0003A202568752C204E6577205365747469F9
:100D00006E67733A202825642C2025642C202564E6
:100D1000290D0A00737472746F6B2072657475729A
:100D20006E6564204E554C4C206F6E20746869725D
:100D3000642076616C2E0D0A00737472746F6B20E0
:100D400072657475726E6564204E554C4C206F6EE2
:100D5000207365636F6E642076616C2E0D0A0073DC
:100D60007472746F6B2072657475726E6564204E58
:100D7000554C4C206F6E2066697273742076616CDE
:100D80002E0D0A0042616420646972656374696FA4
:100D90006E2E20476F743A202568752E0D0A007359
:100DA0007472746F6B2072657475726E6564204E18
:100DB000554C4C206F6E20646972656374696F6E68
:100DC0002E0D0A00476F74207365745F6D6F746F2A
:100DD000727320636F6D6D616E642E20646972653D
:100DE0006374696F6E3A202568752C2076616C7388
:100DF0003A202825642C2025642C202564290D0AFE
:100E000000737472746F6B2072657475726E6564B2
:100E1000204E554C4C206F6E2074686972642076A9
:100E2000616C2E0D0A00737472746F6B207265749E
:100E300075726E6564204E554C4C206F6E20736544
:100E4000636F6E642076616C2E0D0A007374727489
:100E50006F6B2072657475726E6564204E554C4CD4
:100E6000206F6E2066697273742076616C2E0D0A95
:100E70000042616420646972656374696F6E2E203C
:100E8000476F743A202568752E0D0A0073747274CA
:100E90006F6B2072657475726E6564204E554C4C94
:100EA000206F6E20646972656374696F6E2E0D0A1F
:100EB00000723A202568752C20673A202568752C29
:100EC00020623A202568750D0A0077616C6B2064FA
:100ED0006972656374696F6E202568752C206E7564
:100EE0006D5F73746570732025750D0A00725F73F2
:100EF0007461727400726570726F675F62656769B2
:100F00006E007072696E745F6D6F746F725F73657F
:100F10007474696E67730077726974655F6D6F745E
:100F20006F725F73657474696E6773007265736561
:100F300074007461736B7300746774006D73675F22
:100F4000747374006D7367007467745F636D64001D
:100F5000636D640062726F6164636173745F69647E
:100F6000006765745F6964007365745F6C65640035
:100F7000726E625F62007365745F646973745F7040
:100F800065725F737465700061646A5F6D6F746F22
:100F90007273007365745F6D6F746F727300737436
:100FA0006F705F77616C6B00636F6C6C007365745E
:100FB0005F6972006765745F7267620077616C6B6E
:100FC000006D6F76655F73746570730009436F6DB4
:100FD0006D616E6420282025732029206E6F742097
:100FE0007265636F676E697A65642E0D0A006364CB
:100FF000696E6F70737578585B6566674546470024
:10100000616E006E66696E69747900CDCCCC3D0A64
:10101000D7233C17B7D13877CC2B329595E6241FD0
:10102000B14F0A000020410000C84200401C462089
:10103000BCBE4CCA1B0E5AAEC59D740011241FBE07
:10104000CFEFCDBFDFE3DEBF00E00CBF12E2A0E0D8
:10105000B0E2E4E0F3EA00E00BBF02C007900D92BB
:10106000AC3DB107D9F726E2ACEDB2E201C01D926A
:10107000AB39B207E1F70E94510A0C9480510C94ED
:1010800000000FB6F89460910804709109048091F3
:101090006C2490916D240FBE089508950895CF9209
:1010A000DF92EF92FF927C01F8940E9441087894BD
:1010B0009B01AC012E0D3F1D411D511D69017A019F
:1010C00005C078943AE63A95F1F700C0F8940E948A
:1010D00041086C157D058E059F0598F37894FF9067
:1010E000EF90DF90CF9008952F923F924F925F92B2
:1010F0006F927F928F929F92AF92BF92CF92DF9228
:10110000EF92FF920F931F93CF93DF93CDB7DEB78C
:101110002A97CDBFDEBF1C018DB79EB789879A87FE
:10112000D1011696ED91FC91179780818E83818174
:101130008F83188640E150E060E070E0CE010696B3
:101140000E94494DE62EF12C1F926F9387E790E2A3
:101150009F938F930E946B50F101A681B7811296E5
:10116000FE0131969E012B5F3F4F0F900F900F9025
:101170000F908D918193E217F307D9F71D8240E11B
:1011800050E060E070E0CE0101960E94494D2B01D5
:101190003C015F926F9383E990E29F938F930E944B
:1011A0006B500F900F900F900F908DB79EB78E19C8
:1011B0009F098DBF9EBFADB7BEB711965D01662476
:1011C00077249701AD01C301B2010E946D22E114A1
:1011D000F10409F4CCC0850145018E0C9F1C44EA42
:1011E000C42E40E2D42EF80181918F011F928F937B
:1011F000DF92CF920E946B500F900F900F900F9044
:101200008016910681F78AEC90E20E94AD5087012A
:101210000D5F1F4F000F111FD090DE2226E0C22E5F
:1012200086E090E0D1011696ED91FC911797E80FBA
:10123000F91F80818E8381818F83188640E150E081
:1012400060E070E0CE0106960E94494DF501ED0D7B
:10125000F11D6083D090DE22D394D092DE22C3941D
:10126000C3948C2D90E080179107E4F28BEA90E212
:101270000E94AD50E114F10409F481C0150165012B
:1012800000E010E034EA832E30E2932EF6018191E3
:101290006F011F928F939F928F920E946B500F5FEE
:1012A0001F4F0F900F900F900F900E151F0574F3A6
:1012B0008AEC90E20E94AD507F926F925F924F92C3
:1012C0008CEC90E29F938F930E946B5001E097010A
:1012D000A501C301B2010E94842224E030E0A501EF
:1012E000C301B2010E946D220F900F900F900F90DA
:1012F0000F900F9000E010E084EAC82E80E2D82E14
:10130000D1018D911D011F928F93DF92CF920E9488
:101310006B500F5F1F4F0F900F900F900F900E1597
:101320001F0574F38AEC90E20E94AD5010927A246B
:1013300088ED84BF81E080937900E985FA85EDBF6F
:10134000FEBF2A96CDBFDEBFDF91CF911F910F91D7
:10135000FF90EF90DF90CF90BF90AF909F908F90D5
:101360007F906F905F904F903F902F9008958AEC00
:1013700090E20E94AD508BEA90E20E94AD508AEC60
:1013800090E20E94AD507F926F925F924F928CECF0
:1013900090E29F938F930E946B5001E020E030E039
:1013A000A501C301B2010E94842224E030E0A5011E
:1013B000C301B2010E946D220F900F900F900F9009
:1013C0000F900F90AFCFCF93E4EBF4E201900020A9
:1013D000E9F73197AF01445B544264EB74E28FE369
:1013E0000E942514CFB778948FE30E94C512CFBF17
:1013F000CF91089540E060E084E60E94742F84E677
:1014000090E00E944F0840E064E680E00E94742F64
:1014100084E690E00E944F0844E660E080E00E948D
:10142000742F84E690E00E944F080E94692F40E0EC
:1014300060E084E60E94742F84E690E00E944F08EA
:1014400040E064E680E00E94742F84E690E00E9411
:101450004F0844E660E080E00E94742F84E690E04C
:101460000E944F080E94692F40E060E084E60E94DD
:10147000742F84E690E00E944F0840E064E680E02C
:101480000E94742F84E690E00E944F0844E660E0DA
:1014900080E00E94742F84E690E00E944F080C9434
:1014A000692FCF93DF93CDB7DEB7C054D109CDBF3D
:1014B000DEBFF89488ED84BF82E080935000809175
:1014C000510081FFFCCF88ED84BF81E08093400014
:1014D00085E0809343008091010480FDFCCF8FEF75
:1014E0009FEF80930A0490930B0481E080930004A3
:1014F0008091010480FDFCCF109208041092090431
:1015000082E08093CA0180E4E0E2F0E2DE0111961D
:1015100001900D928A95E1F7DE0111969E012F5BF5
:101520003F4F80E090E04D915D916D917D916BBF5B
:10153000FA01479156918427482F42954827042E57
:10154000469546954025042E469540254770082E21
:10155000892F469507944795902D842706944795A3
:10156000902584272A173B07F1F61092CA01809331
:101570006A2490936B240E942A330E945C230E9469
:101580004B2F0E944C240E94E60E8091A2008160A5
:101590008093A2008091A20082608093A20080913B
:1015A000A20084608093A2008091A2008068809352
:1015B000A20078940E942C250E9461320E94821B16
:1015C0000E94881C0E9464210E946D240E948C1E2F
:1015D0000E944E0D10927A2480E091E00E94251C1A
:1015E0000E94FA090E943B110E94006088E7282EA1
:1015F00084E0382E90E5892E94E0992E21EE422E3B
:1016000024E0522E0E944D08809149268111A2C0EB
:101610007FB6F89400917B2610917C260115110568
:1016200009F487C0ADB6BEB6D8011C964C914423D0
:1016300009F4C2C050E08DB79EB7841B950B8DBFD7
:101640009EBFADB7BEB711967D01F801608571856B
:10165000CD010E94804FEF82F886F8018081918150
:10166000A281B38189839A83AB83BC838481958172
:101670008D839E8384858987C680D780FFB67894C2
:1016800080917A24882309F471C04AEF60E080E0F9
:101690000E94742FCE0101960E947408FFBE78014B
:1016A000D7011A96ED91FC911B973097D1F080816C
:1016B000918129813A81821B930B833E2FEF920700
:1016C00044F04E9734F486819781C816D90609F400
:1016D00052C07F01D7011A96ED91FC911B9730976C
:1016E00031F7F8018285938580937B2690937C2641
:1016F0008091F62481508093F6248091A1249091CA
:10170000A2240D972985821B91098093A12490938F
:10171000A224FFB6F894C8010E94C04CFFBEADBE23
:10172000BEBE00917B2610917C260115110509F0A3
:1017300079CF7FBE80917A26882309F446C081E064
:1017400090E00E944F080E944D088091492688230E
:1017500009F45ECF26E02093F624109249263F92AA
:101760002F920E947F500F900F9052CFCE01019682
:101770000E944E0893CF82859385D7011A968D9348
:101780009C931B978091A1249091A2240D97298569
:10179000821B91098093A1249093A2248091F62426
:1017A00081508093F6246FB6F894CF010E94C04C0C
:1017B0006FBEF7017F018ECF9F928F920E947F5064
:1017C000F80144850F900F9035CF0E944108E091B9
:1017D0007F26F09180260081118122813381DC01F6
:1017E000CB01801B910BA20BB30B893B9B40A10546
:1017F000B1050CF4A4CF5F924F920E947F500E94DB
:101800002C340E946C330F900F9099CF2091CF0110
:1018100027FDFCCF8093C0019F719093C10110926E
:10182000C20186E08093CA01EBECF1E021E030E0F8
:1018300088ED90E084BF20838091C40108952091B9
:10184000CF0127FDFCCF2091CF0121FF0BC026E364
:101850002093CA01EBECF1E041E050E028ED30E0EC
:1018600024BF408323E32093CA018093C0019F716A
:101870009093C1011092C2016093C40185E38093EB
:10188000CA01EBECF1E021E030E088ED90E084BFAC
:1018900020830895BF92CF92DF92EF92FF920F9331
:1018A0001F93CF93DF93E0917D24F0917E24C2813A
:1018B000D381EC17FD0709F46FC0C12CD12C760140
:1018C0006881798180E090E00E948548A7019601B7
:1018D0000E94BA4620E030E040E752E40E94A3476D
:1018E0009B01AC01C701B6010E94BB466B017C01A4
:1018F0000A811B81BFB6F894CE010E94C04CBFBEC6
:10190000E80180917D2490917E2480179107C1F693
:10191000C701B6010E945648F8010283138304836D
:101920001583C091200AD091210A80912A0A9091B2
:101930002B0AC817D907A0F0C60FD71FC134FDE97D
:10194000DF0718F5C093200AD093210ADF91CF91C9
:101950001F910F91FF90EF90DF90CF90BF9008956F
:10196000C60FD71F80912A0A90912B0A8C179D07CA
:1019700028F74091E1226091E2228091E3220E94C7
:10198000742FC134FDE9DF07E8F280E49DE980931C
:10199000200A9093210ADACF8F0160E070E0BCCF7B
:1019A0009C0140E460E070E08FE30E94841420E03A
:1019B00030E04AE45CE068EC70E080E090E00E9497
:1019C000E03508951F920F920FB60F9211240BB6B7
:1019D0000F922F933F934F935F936F937F938F93C8
:1019E0009F93AF93BF93EF93FF93E0E4FAE082AD50
:1019F00093AD8093E32280AD91AD8093E2228091FC
:101A00007809909179098093E1224091E4226091D4
:101A1000E5228091E6220E94742FFF91EF91BF9101
:101A2000AF919F918F917F916F915F914F913F9176
:101A30002F910F900BBE0F900FBE0F901F90189517
:101A40001F920F920FB60F9211240BB60F922F9385
:101A50003F934F935F936F937F938F939F93AF9336
:101A6000BF93EF93FF934091E1226091E222809136
:101A7000E3220E94742FFF91EF91BF91AF919F914C
:101A80008F917F916F915F914F913F912F910F9027
:101A90000BBE0F900FBE0F901F901895CF938FEF36
:101AA0008093E6228093E5228093E42288EC90E004
:101AB0008093DF229093E0228CE880938001E0E025
:101AC000FAE088E08083118281E49DE986A397A3F0
:101AD00083E08683178210A211A210A611A612A677
:101AE00013A6CFB7F89486E090E00E94284CFC0142
:101AF000CFBF80937D2490937E24108211828283B5
:101B0000938384839583CF9108951F920F920FB68C
:101B10000F9211240BB60F92AF92BF92CF92DF9229
:101B2000EF92FF921F932F933F934F935F936F9387
:101B30007F938F939F93AF93BF93CF93DF93EF9355
:101B4000FF930E94D824EC011FB7F8940E9441082B
:101B50006B017C0121E234E140E050E00E94E44B63
:101B600061312AE0720708F469C021E234E1261BE2
:101B7000370B80910A0490910B04821B930B8C15F8
:101B80009D0548F480916C2490916D24019680937A
:101B90006C2490936D248091010480FDFCCFC20ED3
:101BA000D31EC0920804D092090480910C04909135
:101BB0000D04820F931F80930C0490930D041FBF9C
:101BC000C90137FD4DC0813991054CF41216130639
:101BD0000CF04BC0809154008F5F809354000E94A2
:101BE00041089B01AC01CF71DD2764E16C9FC0010E
:101BF0006D9F900D1124BC0180E090E040ED5CE011
:101C00000E94E035FF91EF91DF91CF91BF91AF91AD
:101C10009F918F917F916F915F914F913F912F9104
:101C20001F91FF90EF90DF90CF90BF90AF900F90FB
:101C30000BBE0F900FBE0F901F90189522273327D1
:101C4000261B370BC616D70608F0A5CF80916C244B
:101C500090916D24019780936C2490936D249BCF79
:101C600088279927821B930BAECF4D970CF0B7CFE7
:101C700080915400815080935400B1CFBF92CF9295
:101C8000DF92EF92FF920F931F93CF93DF936B013D
:101C90007C01042FB52E10E0CBE3D5E01AC00E94E2
:101CA0004108DC01CB018C199D09AE09BF09893EB1
:101CB0009340A105B10500F50E944108DC01CB016C
:101CC0008C199D09AE09BF0985369105A105B1059D
:101CD00008F5E0918726F091882687898111DFCF6A
:101CE00081E0810FDF91CF911F910F91FF90EF90D5
:101CF000DF90CF90BF900895BF920F9382E595E05B
:101D00009F938F930E947F500F900F900F900F9092
:101D100080E0E8CF112331F08AE090E00E944F0884
:101D200011E0D7CFBF920F93DF93CF930E947F50E4
:101D30000F900F900F900F90EFCFCF93DF93E09124
:101D40008726F09188269789911130C091E0978B72
:101D5000108E880F8283442359F0DB0180E090E0ED
:101D60003D91EF01C80FD91F3B8301968417C0F343
:101D7000438B248B158A168A838981110DC084892F
:101D8000882301F1828181600190F081E02D8683BA
:101D900081E0DF91CF91089582818E7F0190F08163
:101DA000E02D868381E0DF91CF91089586E295E072
:101DB0009F938F930E947F500F900F9080E0DF9150
:101DC000CF91089581E0DF91CF910895E0E2F6E0B0
:101DD00080E28283858B83E080938106AFE7B4E263
:101DE000A0938726B0938826E0EAF4E0ED93FC9375
:101DF00088EF81838BE9858381E0848308959F92B6
:101E0000AF92BF92CF92DF92EF92FF920F931F9308
:101E1000CF93DF93982E5B01D42F89010E94410854
:101E20006B017C01A801C701B6010E943E0EC82FBC
:101E30008823C1F0D930B0F720E04D2FB501892DAE
:101E40000E949D0E882371F38C0F8150DF91CF91FA
:101E50001F910F91FF90EF90DF90CF90BF90AF90C8
:101E60009F90089580E0F2CF1F920F920FB60F92CD
:101E700011240BB60F922F938F939F93AF93BF9321
:101E8000CF93DF93EF93FF93E0918726F09188261D
:101E9000A081B18114968C911497982F9C7041F475
:101EA00086FD24C087FD3DC086E0808F178A0BC069
:101EB00014968C91149782FD16C093E0908F8860E1
:101EC00014968C93178AFF91EF91DF91CF91BF9178
:101ED000AF919F918F912F910F900BBE0F900FBEDE
:101EE0000F901F90189594E0908FE9CF93892489E3
:101EF00014968C91149784FD0DC08589891750F133
:101F000086898217D8F183E013968C9381E0808FC5
:101F1000178AD9CF83E013968C9385E0808F178A38
:101F2000D2CF8689883008F517968C9117979689B5
:101F3000EF01C90FD11D8B8786898F5F868B9489AE
:101F40008689891700F187E013968C9381E0808F52
:101F5000178AB9CF8589EF01C80FD11D8B811796DC
:101F60008C9385898F5F858BAECF83E013968C939E
:101F700082E0808F178AA081B181E1CF8281816068
:101F800016968C93A0CF82E013968C939CCF4FB77C
:101F9000F894E0E0FBE0318190E0DC01AA50BF4D15
:101FA0002C9120952323218328E3289FF001299F4A
:101FB000F00D1124E750FB4D17AA16AA12861386BE
:101FC0001086118616821782880F991FFC01EA5F1E
:101FD000FF4D0190F081E02D8181806481838481B7
:101FE000806184834FBF0895EF92FF920F931F93F8
:101FF000CF93DF93CDB7DEB70DB71EB780912823FF
:102000009091292301962DB73EB7281B390B2DBF80
:102010003EBF8DB79EB701967C0140912823509119
:1020200029234F5F5F4F68EE72E20E94804F6091FC
:10203000282370912923C7010E941F398FB7F89474
:1020400010922B238FBF0DBF1EBFDF91CF911F9129
:102050000F91FF90EF9008958F929F92AF92BF9251
:10206000CF92DF92EF92FF920F931F93CF93DF9364
:10207000C82FD0E098E3899FD0011124A750BB4D11
:102080001A96ED91FC911B97E730F10508F450C0CA
:102090001A968D919C911B970797A80FB91F1E96B2
:1020A0008C918093E722FE01EE0FFF1FEA5FFF4D48
:1020B000A081B1818091E7228C9388E38C9FF0010D
:1020C0008D9FF00D1124E750FB4D8285938501967D
:1020D000828793872285338586A990E00796281703
:1020E0003907C8F01482158216821782108611866D
:1020F000128613861486158616AA17AA14968C9132
:102100001497806114968C93149713968C9113975F
:102110008C7F13968C93DF91CF911F910F91FF903D
:10212000EF90DF90CF90BF90AF909F908F900895E9
:102130008827E250FF4F8F4F0C94064C88E38C9F0A
:10214000F0018D9FF00D1124E750FB4D80859185A6
:102150009093E722A8CF88E38C9F80018D9F100D7C
:10216000112407501B4DF80187A986FD5CC088E348
:102170008C9FF0018D9FF00D1124E750FB4D808561
:1021800091858093E7228FCF88E38C9FF0018D9F0C
:10219000F00D1124E750FB4D868197818093E72253
:1021A00082CF88E38C9FF0018D9FF00D1124E750C2
:1021B000FB4D868197819093E72275CF88E38C9FB2
:1021C000F0018D9FF00D1124E750FB4D8481958126
:1021D0008093E72268CF88E38C9FF0018D9FF00DFC
:1021E0001124E750FB4D848195819093E7225BCFCA
:1021F00088E38C9FF0018D9FF00D1124E750FB4D7B
:1022000086A98F738093E72287A99091E72280782F
:10221000892B8093E72287A99091E7228074892BEC
:102220008093E72240CF0E944108F801C084D18406
:102230004B015C01AA24BB24E12CF12C8C149D04DD
:10224000AE04BF04A8F020853185621B730B613397
:10225000F5E77F0710F060EF7FEF88E38C9FF001D8
:102260008D9FF00D1124E750FB4D608771877FCF64
:1022700060E070E0F2CFCF93DF9394E49093420656
:1022800084E080936206909382068093A2068FB7C3
:10229000F8949FE390937B248FBFC6E0D0E262E185
:1022A00070E2DE0148E233E020E792E0ED91FD913B
:1022B00043833583268397838481806184838481EB
:1022C000886084836A177B0789F7109289261092A9
:1022D0008A2610928B2610928C261092F624109249
:1022E000492610922B2310922A2310927B261092BB
:1022F0007C261092A1241092A22480E090E038E382
:10230000389FF001399FF00D1124E750FB4D1482E6
:1023100015821682178210861186128613861486FD
:10232000158616AA17AAE991F991248120612483C0
:1023300001968630910521F78FB7F89410927B248F
:102340008FBFDF91CF9108952F923F924F925F926E
:102350006F927F928F929F92AF92BF92CF92DF92B5
:10236000EF92FF920F931F93CF93DF93E82E4B01D1
:10237000342E222E88E2841708F4BFC060906A24AD
:1023800070906B24F12C80E090E09701082E02C041
:10239000359527950A94E2F720FDB8C0019686305E
:1023A000910599F7E301332019F1F4012FEF230D83
:1023B00030E02F5F3F4F280D391D8191C8278C2FAA
:1023C00082958C27082E869586958025082E8695E1
:1023D000802587700C2ECD2F869507948795D02D5C
:1023E000C82706948795D025C827E217F30729F751
:1023F00087E0A82E85E2B82E96EFC92E90E2D92E5E
:1024000000E010E0432C512C0BC00F5F1F4FF8E38E
:10241000AF0EB11C8FEFC81AD80A0630110541F172
:10242000C701002E02C0959587950A94E2F780FFB8
:10243000ECCF88E3809FF001819FF00D1124E750DD
:10244000FB4D87A9806287AB36AAC483D5831286E9
:10245000138666827782A201B401C5010E94804F73
:102460009091010BF6018081892B8093010BCDCFD8
:10247000E6E0F0E280E090E048E308C023601396D5
:102480002C93019632968630910521F19701082E02
:1024900002C0359527950A94E2F720FFF2CF489FB6
:1024A000D001499FB00D1124A750BB4D1D921D9224
:1024B0001D921C921397A081B18113962C911397B2
:1024C0002110DCCF226013962C9301963296863031
:1024D0009105E1F6DF91CF911F910F91FF90EF9061
:1024E000DF90CF90BF90AF909F908F907F906F9034
:1024F0005F904F903F902F9008958CE896E09F93C7
:102500008F930E947F500F900F9038CF28E3289F21
:10251000F001299FF00D1124E750FB4D87A9807C25
:10252000E301C8278C2F82958C27082E86958695E7
:102530008025082E8695802587700C2ECD2F8695B8
:1025400007948795D02DC82706948795D025C8274E
:1025500087A986FD28CF80859185C8278C2F8295F5
:102560008C27082E869586958025082E86958025B1
:1025700087700C2ECD2F869507948795D02DC82770
:1025800006948795D025C8270ECF90E078E320E009
:1025900030E060E0AC01022E02C0559547950A94E8
:1025A000E2F740FF0AC0729FF001739FF00D112403
:1025B000E750FB4D47A945FD61E02F5F3F4F2630B7
:1025C000310541F7EFE1F3E03197F1F700C000008A
:1025D0006111DDCF08954F925F926F927F928F923B
:1025E0009F92AF92BF92FF920F931F93CF93DF936F
:1025F000C82F0E94410820917B242C2309F059C048
:10260000D0E0AC2FB0E020E030E010E000E0C0E02F
:1026100048E3F42EAD01022E02C0559547950A9469
:10262000E2F740FF2FC0F29EF001F39EF00D11245F
:10263000E750FB4D47A946FF03C047A947FD3BC0F4
:10264000F29EF001F39EF00D1124E750FB4D47A9D7
:1026500045FDC2E0F29EF001F39EF00D1124E7501B
:10266000FB4D80809180A280B3802B013C014818F3
:1026700059086A087B0840E144165104610471045A
:1026800008F401E02F5F3F4F2630310519F6802F07
:10269000812B8D2B8C2BDF91CF911F910F91FF9070
:1026A000BF90AF909F908F907F906F905F904F9072
:1026B0000895D8E0A6CF14E0C3CFDF92EF92FF9247
:1026C0000F931F93CF93DF93D82EEB01142F790133
:1026D0000E94EB12823008F45EC01F928F9384E652
:1026E00096E09F938F930E947F500F900F900F90D2
:1026F0000F90112309F442C0888180528F3508F071
:102700008DC0FE0131961150212F30E02F5F3F4FD9
:102710002C0F3D1F05C0819180528F3508F07CC081
:10272000E217F307C1F7DD24D394012F10E00F5F08
:102730001F4F0C0F1D1F8FEEE82E80E2F82E12C0E7
:10274000282F082E000C330B3F938F93FF92EF92AC
:102750000E946B500F900F900F900F902196C01712
:10276000D10761F08881DD2059F3082E000C990B08
:102770000E94A7502196C017D107A1F78AEC90E2DA
:102780000E94AD5080E0DF91CF911F910F91FF909B
:10279000EF90DF9008954D2D50E0A6E0B0E280E08C
:1027A00090E068E371E09A01082E02C03595279504
:1027B0000A94E2F720FF1CC0ED91FC91119724814F
:1027C0002F7E2483689FF001699FF00D1124E7504C
:1027D000FB4D77AB002319F027A9206827AB689F32
:1027E000F001699FF00D1124E750FB4DE086F18662
:1027F0000196129686309105B1F620E0412FBE0178
:102800008D2D0E94A41181E0DF91CF911F910F9136
:10281000FF90EF90DF900895D12C87CFD12C1150ED
:1028200084CF0F9301E00E945D130F9108950F93E1
:1028300001E020E030E00E945D130F9108950F93B6
:1028400000E00E945D130F9108950F9300E020E0D7
:1028500030E00E945D130F910895AF92BF92DF9216
:10286000EF921F93CF93DF93E82E5B01142FE901C2
:10287000DFB6F8940E94EB128430E0F5103408F0D3
:1028800010544E2D50E0A6E0B0E280E090E078E3F6
:1028900061E89A01082E02C0359527950A94E2F75F
:1028A00020FF13C0ED91FC91119724812F7E24838A
:1028B000789FF001799FF00D1124E750FB4D67AB35
:1028C00027A9206427ABC087D1870196129686304E
:1028D0009105F9F6DFBE21E0412FB5018E2D0E9452
:1028E000A41181E0DF91CF911F91EF90DF90BF9015
:1028F000AF900895DFBE80E0DF91CF911F91EF9000
:10290000DF90BF90AF9008950C942D146F927F923A
:102910008F929F92AF92BF92CF92DF92EF92FF92EF
:102920000F931F93CF93DF93D82EC82FD0E08E0143
:10293000000F111F98012A5F3F4D7901D901ED91D8
:10294000FC91C0800E94410828E32C9FF0012D9F3C
:10295000F00D1124E750FB4D80809180A280B38060
:102960009B01AC01281939094A095B0949015A013F
:1029700031E183169104A104B10490F01482158210
:102980001682178210861186128613861486158683
:1029900016AA17AAD701ED91FC9124812061248306
:1029A00028E32C9FD0012D9FB00D1124A750BB4DC3
:1029B0006D937D938D939C9313971A96ED91FC9153
:1029C0001B97E730F10508F44BC01A96ED91FC9186
:1029D0001B973797EA0FFB1FC6861C968D919C911B
:1029E0001D978C25282F22952827022E269526957F
:1029F0002025022E269520252770082E892F269522
:102A000007942795902D8227069427959025822755
:102A10001C968D939C931D9788E38C9FF0018D9F4E
:102A2000F00D1124E750FB4D828593850196828736
:102A300093872285338586A990E007962817390762
:102A4000A8F4DF91CF911F910F91FF90EF90DF904D
:102A5000CF90BF90AF909F908F907F906F90089590
:102A60008827EB5FFE4F8F4F0C94064C8085918535
:102A7000892B09F04CC080E098E39C9FF0019D9F5A
:102A8000F00D1124E750FB4D97A9892B87AB2485C6
:102A900035858481958164857585A680B780409150
:102AA0006A2450916B24F7A8BF2DB074CB2EF6FC8E
:102AB000D5C0E084F184EF2809F4D0C0E084F1842B
:102AC000E1E04E155F0509F4C9C02817390709F47C
:102AD000CAC088E38C9FF0018D9FF00D1124E75050
:102AE000FB4D14821582168217821086118612867B
:102AF00013861486158616AA17AAF801EA5FFF4DF9
:102B00000190F081E02D8481806184839ACF80E1FF
:102B1000B3CF8C2D90E028E32C9FF0012D9FF00D7A
:102B20001124E750FB4D8087918776CF8C2D90E064
:102B300028E32C9FF0012D9FF00D1124E750FB4D51
:102B40008483958369CF88E38C9FF0018D9FF00D7E
:102B50001124E750FB4D848195819C2984839583C2
:102B60005BCF88E38C9FF0018D9FF00D1124E7501F
:102B7000FB4D87A99C2D907C892B87AB27A986814B
:102B80009781207C8227282F22952827022E2695A0
:102B900026952025022E269520252770082E892F80
:102BA000269507942795902D8227069427959025A2
:102BB0008227848795878C2D8F7386AB86A989326F
:102BC00008F42ACF81E086AB27CF88E38C9FF00101
:102BD0008D9FF00D1124E750FB4D808591859C2938
:102BE0008087918787A986FD17CF208531858485C9
:102BF00095858227282F22952827022E269526950F
:102C00002025022E269520252770082E892F26950F
:102C100007942795902D8227069427959025822743
:102C200084879587F9CE8C2D90E028E32C9FF001C6
:102C30002D9FF00D1124E750FB4D86839783ECCE3A
:102C400088E38C9FF0018D9FF00D1124E750FB4D20
:102C5000868197819C2986839783DECEE0E02817C2
:102C6000390709F036CF672B09F433CFA416B50620
:102C700009F42FCFE1112DCF88E38C9FB0018D9FF8
:102C8000700D1124FB01E750FB4D7F0187A987FDE3
:102C9000A1C086A9882309F435C286A9893208F023
:102CA0003AC28091A1249091A224853F914008F0DE
:102CB0003BC2C0907B26D0907C26BFB6F894809112
:102CC0007B2690917C26892B09F475C0D6011A9633
:102CD0008D919C911B97892B51F0D6011A96CD901E
:102CE000DC901B97F60182859385892BB1F788E3E9
:102CF0008C9FF0018D9FF00D1124E750FB4D86A9AC
:102D0000FFB6F89490E00D960E94284CFFBED601C5
:102D10001A968D939C931B971A96ED90FC901B9797
:102D20004701BDE08B0E911C88E38C9FB0018D9F05
:102D3000700D1124FB01E750FB4D6F0146A950E0D7
:102D4000695F7A4DC4010E94804FD70118968D9219
:102D50009C921997F60180819181A281B381F7013C
:102D600080839183A283B383D601D6968C91D69724
:102D7000848716968D919C911797848395831C96D2
:102D80008D919C911D978683978312861386D69684
:102D90002C918091A1249091A2240D96820F911DD7
:102DA0008093A1249093A2248091F6248F5F809336
:102DB000F624BFBE8ECEF70186A9DFB6F89490E068
:102DC0000D960E94284C7C01DFBE80937B26909359
:102DD0007C26A6CFCC2009F40EC186A9882309F44D
:102DE0006AC0813009F075CEC680D780808091801E
:102DF000A280B380E084F1847FB6F8948091F524BA
:102E00008111F4C08FE30E94EB12883008F0EEC00D
:102E1000FFEFEF16FF0609F4E9C0C0927D26D092BD
:102E20007E2625E0E216F10430F484E190E0AC0166
:102E30004E195F097A0155E0E50EF11C8E189F08C6
:102E4000A108B10881E08093F5248FE380937B246F
:102E500081E07FBE882309F43CCE5FB7F894A6E0FA
:102E6000B0E220E030E048E307C02F5F3F4F12960A
:102E70002630310509F431C1429FF001439FF00D26
:102E80001124E750FB4D86819781C816D90669F752
:102E90001482158216821782108611861286138676
:102EA0001486158616AA17AAED91FC9111978481B4
:102EB00080618483DACFC680D78080809180A280B1
:102EC000B380E084F1849FB7F89480912A23811124
:102ED000FCC06090200A7090210AFFEFEF16FF06F9
:102EE00009F4F3C081E080932A239FBF882309F46B
:102EF000F0CD0E94410897012B5F3F4F28193909F7
:102F0000620F731F80E090E00E94854820E030E06F
:102F10004AEF50E40E94CA4A0E9456486615770557
:102F200008F40BC12FEB621A22E6720A661A770ABE
:102F3000FFB6F89486E090E00E94284CFFBE009710
:102F400041F1E0917D24F0917E240480F581E02D13
:102F5000208131816216730640F40480F581E02DF2
:102F60002081318162167306C0F322813381D90139
:102F700014968D939C931597DC0112962D933C9398
:102F800013971496ED93FC931597828393836D9218
:102F90007C925FB7F894A6E0B0E280E090E048E36E
:102FA00006C0019612968630910509F492C0489F9A
:102FB000F001499FF00D1124E750FB4D2681378128
:102FC000C216D30671F714821582168217821086F4
:102FD0001186128613861486158616AA17AAED91F5
:102FE000FC911197248120612483DBCF812C912CCB
:102FF000540180E02ECFCFB6F89480912B2381111D
:1030000066C046A950E0695F7A4D88EE92E20E9460
:10301000804FD701D696EC91D697F0E0E851FD4D60
:103020001082D6968C91D69790E080932823909327
:1030300029238D919D910D90BC91A02D809389267F
:1030400090938A26A0938B26B0938C26F7018681D5
:1030500097818093F7249093F824D092982481E06C
:1030600080932B23CFBE882309F433CD20E030E0BA
:1030700044EF5FE065E070E080E090E00E94E035C2
:103080004FB7F894A6E0B0E280E090E038E3389FD4
:10309000F001399FF00D1124E750FB4D1482158289
:1030A000168217821086118612861386148615865C
:1030B00016AA17AAED91FD9124812061248301961F
:1030C0008630910521F74FBF04CD80E00ECF80E020
:1030D000C9CF10922A235FBFFCCC5FBFC501B401EA
:1030E0000E94062E8FB7F89410927B248FBF20E0A9
:1030F00030E043E75BE26AE070E080E090E00E944D
:10310000E035E7CC8BE296E09F938F930E947F504F
:103110000F900F90DECC84ED95E09F938F930E94EB
:103120007F500F900F90D5CC86E695E09F938F93BC
:103130000E947F500F900F90CCCC661A770AF8CE81
:103140001F920F920FB60F9211240BB60F922F936E
:103150003F934F935F936F937F938F939F93AF931F
:10316000BF93EF93FF9380E00E948614FF91EF914D
:10317000BF91AF919F918F917F916F915F914F918F
:103180003F912F910F900BBE0F900FBE0F901F908D
:1031900018951F920F920FB60F9211240BB60F9233
:1031A0002F933F934F935F936F937F938F939F934F
:1031B000AF93BF93EF93FF9380E00E94C70FFF91FF
:1031C000EF91BF91AF919F918F917F916F915F919F
:1031D0004F913F912F910F900BBE0F900FBE0F900C
:1031E0001F9018951F920F920FB60F9211240BB6D5
:1031F0000F922F933F934F935F936F937F938F9390
:103200009F93AF93BF93EF93FF9380E00E942C10A6
:10321000FF91EF91BF91AF919F918F917F916F91AE
:103220005F914F913F912F910F900BBE0F900FBE6A
:103230000F901F9018951F920F920FB60F921124A6
:103240000BB60F922F933F934F935F936F937F93A0
:103250008F939F93AF93BF93EF93FF9381E00E946F
:103260008614FF91EF91BF91AF919F918F917F91C4
:103270006F915F914F913F912F910F900BBE0F90E7
:103280000FBE0F901F9018951F920F920FB60F92BE
:1032900011240BB60F922F933F934F935F936F932D
:1032A0007F938F939F93AF93BF93EF93FF9381E0AF
:1032B0000E94C70FFF91EF91BF91AF919F918F91A6
:1032C0007F916F915F914F913F912F910F900BBE26
:1032D0000F900FBE0F901F9018951F920F920FB670
:1032E0000F9211240BB60F922F933F934F935F933E
:1032F0006F937F938F939F93AF93BF93EF93FF93BE
:1033000081E00E942C10FF91EF91BF91AF919F91AE
:103310008F917F916F915F914F913F912F910F907E
:103320000BBE0F900FBE0F901F9018951F920F921B
:103330000FB60F9211240BB60F922F933F934F931A
:103340005F936F937F938F939F93AF93BF93EF930D
:10335000FF9382E00E948614FF91EF91BF91AF919D
:103360009F918F917F916F915F914F913F912F919D
:103370000F900BBE0F900FBE0F901F9018951F92CD
:103380000F920FB60F9211240BB60F922F933F930B
:103390004F935F936F937F938F939F93AF93BF935D
:1033A000EF93FF9382E00E94C70FFF91EF91BF91CF
:1033B000AF919F918F917F916F915F914F913F91CD
:1033C0002F910F900BBE0F900FBE0F901F9018956E
:1033D0001F920F920FB60F9211240BB60F922F93DC
:1033E0003F934F935F936F937F938F939F93AF938D
:1033F000BF93EF93FF9382E00E942C10FF91EF9117
:10340000BF91AF919F918F917F916F915F914F91FC
:103410003F912F910F900BBE0F900FBE0F901F90FA
:1034200018951F920F920FB60F9211240BB60F92A0
:103430002F933F934F935F936F937F938F939F93BC
:10344000AF93BF93EF93FF9383E00E948614FF91A5
:10345000EF91BF91AF919F918F917F916F915F910C
:103460004F913F912F910F900BBE0F900FBE0F9079
:103470001F9018951F920F920FB60F9211240BB642
:103480000F922F933F934F935F936F937F938F93FD
:103490009F93AF93BF93EF93FF9383E00E94C70F77
:1034A000FF91EF91BF91AF919F918F917F916F911C
:1034B0005F914F913F912F910F900BBE0F900FBED8
:1034C0000F901F9018951F920F920FB60F92112414
:1034D0000BB60F922F933F934F935F936F937F930E
:1034E0008F939F93AF93BF93EF93FF9383E00E94DB
:1034F0002C10FF91EF91BF91AF919F918F917F9190
:103500006F915F914F913F912F910F900BBE0F9054
:103510000FBE0F901F9018951F920F920FB60F922B
:1035200011240BB60F922F933F934F935F936F939A
:103530007F938F939F93AF93BF93EF93FF9384E019
:103540000E948614FF91EF91BF91AF919F918F914F
:103550007F916F915F914F913F912F910F900BBE93
:103560000F900FBE0F901F9018951F920F920FB6DD
:103570000F9211240BB60F922F933F934F935F93AB
:103580006F937F938F939F93AF93BF93EF93FF932B
:1035900084E00E94C70FFF91EF91BF91AF919F917F
:1035A0008F917F916F915F914F913F912F910F90EC
:1035B0000BBE0F900FBE0F901F9018951F920F9289
:1035C0000FB60F9211240BB60F922F933F934F9388
:1035D0005F936F937F938F939F93AF93BF93EF937B
:1035E000FF9384E00E942C10FF91EF91BF91AF9167
:1035F0009F918F917F916F915F914F913F912F910B
:103600000F900BBE0F900FBE0F901F9018951F923A
:103610000F920FB60F9211240BB60F922F933F9378
:103620004F935F936F937F938F939F93AF93BF93CA
:10363000EF93FF9385E00E948614FF91EF91BF9175
:10364000AF919F918F917F916F915F914F913F913A
:103650002F910F900BBE0F900FBE0F901F901895DB
:103660001F920F920FB60F9211240BB60F922F9349
:103670003F934F935F936F937F938F939F93AF93FA
:10368000BF93EF93FF9385E00E94C70FFF91EF91E7
:10369000BF91AF919F918F917F916F915F914F916A
:1036A0003F912F910F900BBE0F900FBE0F901F9068
:1036B00018951F920F920FB60F9211240BB60F920E
:1036C0002F933F934F935F936F937F938F939F932A
:1036D000AF93BF93EF93FF9385E00E942C10FF916F
:1036E000EF91BF91AF919F918F917F916F915F917A
:1036F0004F913F912F910F900BBE0F900FBE0F90E7
:103700001F901895CF93DF93A0EAB6E093EF119640
:103710009C931197E0E0FBE082E0848380818360EA
:10372000808383ED87A386A389E681A783A785A7E6
:1037300087A780A782A79183C0E4D6E098E8998301
:1037400020E636E088E0F901818340E856E0FA019E
:10375000918311968C9311979E83F9018683FA01C8
:10376000968316968C93169780E48B8B8F8BF9013A
:10377000838BFA01838B878B53968C93DF91CF9148
:103780000895CF93DF9390E09C01220F331FF9013E
:10379000EA5FFF4DA081B18114964C911497FC0112
:1037A000E45DFC4D4083E0E0FBE04181EC01CB5E59
:1037B000DE4D5881652F609546234183E0EAF6E0AF
:1037C00051834481452B448314961C92F901ED5F8B
:1037D000FE4D0190F081E02DDC01A15FBE4D8C918A
:1037E00081839481809589238483DF91CF9108958B
:1037F00090E09C01220F331FF901ED5FFE4D019017
:10380000F081E02D5481DC01A15FBE4D4C91452B30
:103810004483F901EA5FFF4D0190F081E02DDC0166
:10382000A45DBC4D2C912483E0EAF6E02481DC0108
:10383000AB5EBE4D3C91932F909592239483E0E034
:10384000FBE08181832B818308951F93CF93DF93C6
:10385000CDB7DEB72F97CDBFDEBF8E879F878E8512
:103860009F858130914068F58E859F8520918D26BA
:1038700030918E262817390721F12E853F858E85B8
:103880009F8538878987932F90619A878B87932F9D
:1038900090669C878D8787E0ECEFF0E2DE01119661
:1038A00001900D928A95E1F79E012F5F3F4F46E010
:1038B000BE01685F7F4F8CE20E94FF0E182F8111BE
:1038C00007C02F96CDBFDEBFDF91CF911F91089526
:1038D0009E012F5F3F4F46E0BE01685F7F4F8EE243
:1038E0000E94FF0E882369F390E0810F911D0297DB
:1038F00041F085EB96E09F938F930E947F500F904D
:103900000F908E859F8580938D2690938E26D9CF9C
:10391000E0E2F6E08CEF828387E0858B868B878BF5
:10392000848B828B838BE0E4F2E090E2928390E1DF
:103930009183848383E180A384E081A384B5848719
:1039400085B5858781E08083E2E3F3E2108211820E
:1039500012821382148215821682178210861186B3
:103960001286138620E030E04BE75DE168EE73E0FD
:1039700080E090E00E94E03520E030E040E85DE14A
:103980006FE175E180E090E00E94193608952F9272
:103990003F924F925F926F927F928F929F92AF92DF
:1039A000BF92CF92DF92EF92FF920F931F93CF932C
:1039B000DF93CDB7DEB7362E4DB65EB6062F10E0DC
:1039C000000F111F2DB73EB74CE0649F201931093D
:1039D00011242DBF3EBFEDB7FEB731964F01ACE1CC
:1039E000B1E2AF0168E2EE24E394309161023770F6
:1039F0003093610220916102262B209361023320D3
:103A0000C9F0FA0130E0FFB6F89420916002206816
:103A100020936002209163022223E1F3609150021F
:103A20007091510261937193E0926302FFBE3F5F18
:103A30003312E9CF400F511FF1E2A132BF0711F05D
:103A40006D91D3CF540124E0A20EB11C22E3622E6B
:103A500023E2722E7C01C12CD12C3EEF232E230CAD
:103A600021C0F2E03F1609F442C00C9DF0010D9D0B
:103A7000F00D1C9DF00D1124E80DF91D8081918140
:103A8000F70180839183FFEFCF1ADF0AA00EB11EEA
:103A900022E0620E711C32E0E30EF11C46E0C41617
:103AA000D10481F032E03315E0F6622DC5010E94A9
:103AB0006231F30120813181821B930BF7018083F6
:103AC0009183E1CF4DBE5EBEDF91CF911F910F91EB
:103AD000FF90EF90DF90CF90BF90AF909F908F902E
:103AE0007F906F905F904F903F902F90089561E08E
:103AF000C5010297DCCF6DE082E393E20C94C71C12
:103B0000EF92FF920F931F93CF93DF93CDB7DEB762
:103B10002C97CDBFDEBF1FB7F8948FE30E94EB1246
:103B2000811135C08FE380937B241FBF8E010F5F0F
:103B30001F4F32E3E32E33E2F32EF701D8018081E9
:103B400091818D939D931192119283E2EE33F80748
:103B5000B1F76DE082E393E20E94C71C0BC095951C
:103B60008795F701819391937F01FEE3EF16F3E2CE
:103B7000FF06C1F0F801219131918F01F701808199
:103B80009181820F931F97FFEACF0196E8CF1FBF65
:103B90002C96CDBFDEBFDF91CF911F910F91FF908B
:103BA000EF9008958FB7F89410927B248FBFF0CFD9
:103BB000BF92CF92DF92EF92FF920F931F93CF931A
:103BC000DF93CDB7DEB76897CDBFDEBFB82E092F24
:103BD0008FE30E94EB12811166C081E08093302553
:103BE000809368258093A0258093D8258093102604
:103BF00080934826C0908D26D0908E2680E091E05C
:103C00000E94251C7E018DE0E80EF11C65E0C701D5
:103C10000E94C71C10E0812F0E94C11B1F5F16303D
:103C2000D1F7AFECB7E01197F1F700C0000065E005
:103C3000CE0101960E94C71C10E0812F0E94F81B44
:103C40001F5F1630D1F7FE01319697016B2D702F53
:103C500081919191D9014D915D919D01841B950BAD
:103C6000DB018D939D93BD01EE15FF0589F7C6011C
:103C70000E94251C10923025109268251092A025D4
:103C80001092D82510921026109248266896CDBF23
:103C9000DEBFDF91CF911F910F91FF90EF90DF90EA
:103CA000CF90BF9008958AEE96E09F938F930E94E5
:103CB0007F500F900F90EACFCF93DF93CDB7DEB751
:103CC0002C97CDBFDEBFCE0101960E94D81DFE010C
:103CD0003196A2E3B3E240E050E080E0619171915F
:103CE0002D913D91620F731F21E030E06F3F7740CF
:103CF00014F420E030E0042E01C0220F0A94EAF709
:103D0000822B4F5F5F4F4630510541F72C96CDBF58
:103D1000DEBFDF91CF91089580E090E88093812607
:103D20009093822680938326909384268093852681
:103D30009093862610926E2410926F241092702415
:103D40001092712410927224109273241092742491
:103D50001092752410927624109277241092782471
:103D6000109279241092F42480916A2490916B240B
:103D700086362CE69207E1F1813D2CEC9207D1F1D9
:103D8000813623E19207C1F1019609F0089583E09D
:103D900090E021E02093F424FC01EE0FFF1FE80FD8
:103DA000F91FEE0FFF1FEF5DFE4D80819181809323
:103DB000812690938226828193818093832690939B
:103DC000842684819581809385269093862681E040
:103DD00090E080936E2490936F248093742490934A
:103DE000752480E190E0809378249093792408955D
:103DF00080E0CECF81E0CCCF82E0CACFE0E0F8E037
:103E000081818F7C81831082E0E4F8E081818F7C66
:103E100081831082E0E0F9E081818F7C81831082D0
:103E200083E38093460683E08093660610924423E2
:103E300080914223909143230E94E13310924223C8
:103E40001092432308958F929F92AF92BF92CF9288
:103E5000DF92EF92FF920F931F93CF93DF93CDB733
:103E6000DEB72997CDBFDEBF6B019091442397FD4C
:103E70001BC1982F977090689093442360914023C2
:103E800070914123660F771F62957295707F762738
:103E9000607F7627A0903E23B0903F23AA0CBB1CE6
:103EA000A294B29440EFB422BA24A422BA2496E099
:103EB000899FF0011124DF01A65BB94D4D01DE01A0
:103EC00011967E01E7E0EE0EF11CC70100E010E064
:103ED000F401219131914F012115310509F066C09E
:103EE0001D921C921197FC01108212960196AE153C
:103EF000BF0571F700932609109327090093660800
:103F0000109367080093260810932708E981FA8127
:103F1000E0932A08F0932B08E0932808F0932908EF
:103F20008B819C8180936A0890936B0880936808CA
:103F3000909369088D819E8180932A0990932B0923
:103F4000809328099093290980903E2390903F23E5
:103F5000880C991C8294929450EF95229824852283
:103F600098245E0183E0A80EB11C20E030E040E020
:103F70003097A1F0C801821B930BB8010E94BC4B83
:103F8000413009F4A9C0423009F492C0809320085E
:103F9000909321082E0F3F1F280D391D4F5F43308E
:103FA000C9F0D501ED91FD915D01E2CFA90137FD89
:103FB0008EC0460F571F4D935C931197232F220FEE
:103FC000220B220F2F5FFC0120830A0D1B1D040F03
:103FD000151F8BCF0217130781F01F930F933F9389
:103FE0002F9385EF97E09F938F930E947F500F90C0
:103FF0000F900F900F900F900F9080E090E047E0AF
:10400000382FF70121917F01019627FD13C022234C
:1040100001F1313009F465C0323009F04EC08091B1
:1040200001098062809301091092020987E0809360
:10403000000911C0313009F472C0323009F45BC09C
:1040400020910108206120930108109202084093FA
:1040500000088330A9F69801D6010E940E4C25E095
:1040600096958795779567952A95D1F720E030E06A
:104070004EEF5EE10E94E03580934223909343230C
:10408000892B09F443C081E02996CDBFDEBFDF91C3
:10409000CF911F910F91FF90EF90DF90CF90BF9045
:1040A000AF909F908F9008958091442380E0ECCF53
:1040B00080932009909321096DCF209101082062FF
:1040C000209301081092020840930008C2CF4427B1
:1040D0005527421B530B6DCF809360089093610866
:1040E00059CF209141082062209341081092420844
:1040F0004093400885CF8091010980618093010938
:104100001092020987E080930009A5CF8BEC97E01D
:104110009F938F930E947F500F900F90B4CF209168
:1041200041082061209341081092420840934008C2
:1041300067CFCF92DF92EF92FF920F931F93CF93AF
:10414000DF93182FEB01E82FF0E0EE0FFF1FEC5587
:10415000FB4D60817181673E83E078072CF4683104
:104160009CEF79070CF043C080E090E00E94854806
:1041700020E030E04AE754E40E94A3476B017C0151
:10418000BE0180E090E00E948548A70196010E9450
:10419000A3476B017C018AE090E00E944F08C701B1
:1041A000B6010E945648F62E072F7F936F93DF9338
:1041B000CF931F921F9383E597E09F938F930E9465
:1041C0007F508AE090E00E944F088DB79EB7089616
:1041D0008DBF9EBF6F2D702F812FDF91CF911F91CB
:1041E0000F91FF90EF90DF90CF900C94231F81E907
:1041F00097E09F938F930E947F500F900F901630FF
:1042000048F48AE9C82E89E9D82E89E1E82E8FE39F
:10421000F82EB6CFC12CD12CE12C90E4F92EB0CFE2
:10422000E82FF0E0EE0FFF1FEC55FB4D608371832C
:104230000895DF92EF92FF920F931F93CF93DF9336
:1042400050E1E52EF12C8701065C194DE701269619
:10425000C7010E94060CD82EC70101960E94060CC9
:104260002D2D30E0322F2227282BF8012193319376
:104270008F01F2E0EF0EF11CEC16FD0649F77E010E
:10428000C034D10501F724EAE22E24E2F22ECE0159
:104290000E94060C182FCE0101960E94060C212FB9
:1042A00030E0322F2227282BF701219331937F0111
:1042B0002296C035D10559F7DF91CF911F910F910B
:1042C000FF90EF90DF900895CF93DF93E0E4F6E066
:1042D00083E38183A0E6B6E083E011968C93119787
:1042E000C0E0D8E018828983C0E4D8E018828983CE
:1042F000C0E0D9E01882898390E4908B918B948BF5
:10430000958B50969C93509751969C93519786838A
:1043100090E3968316968C931092442384E190E068
:10432000809340239093412388E290E080933E2342
:1043300090933F23DF91CF910C941921DF92EF925C
:10434000FF920F931F93CF93DF93C0E1D0E08E01D4
:10435000065C194D7E0186E0E80EF11CF801D08064
:1043600061810E5F1F4FCE010E941F0C6D2DCE018B
:1043700001960E941F0C2296CE15DF0579F7E70102
:10438000F0E4EF16F10419F7C4EAD4E21881698168
:104390002296C7010E941F0C612FC70101960E943F
:1043A0001F0CE2E0EE0EF11CF0E5EF16F10471F7E0
:1043B000DF91CF911F910F91FF90EF90DF900895C3
:1043C0008F929F92AF92BF92CF92DF92EF92FF9225
:1043D0001F93CF93DF9384E497E09F938F930E9482
:1043E0007F508AE4A82E86E2B82E0F900F90C12C41
:1043F000D12C99E3892E97E0992E29E3E22E21E230
:10440000F22EDF92CF929F928F920E947F500F9058
:104410000F900F900F90E50113E08881998122960B
:104420009F938F93FF92EF920E946B5011500F90C9
:104430000F900F900F9089F78AEC90E20E94AD5098
:104440008FEFC81AD80A86E0A80EB11C88E0C816FB
:10445000D104B9F68AEC90E2DF91CF911F91FF90E1
:10446000EF90DF90CF90BF90AF909F908F900C9483
:10447000AD50EF92FF920F931F93CF93DF9380E2A3
:1044800097E09F938F930E947F5004EA14E20F906D
:104490000F90C0E0D0E086E1E82E87E0F82EF8012A
:1044A000808191810E5F1F4F9F938F93DF93CF93F6
:1044B000FF92EF920E947F5021960F900F900F90E5
:1044C0000F900F900F90C830D10549F7DF91CF9131
:1044D0001F910F91FF90EF900895DA01A90130919B
:1044E000CF0137FDFCCF4115510569F04A0F5B1F25
:1044F0008BBFFB0137913D936F5F7F4F8F4F9F4F76
:10450000A417B507A9F708954F925F926F927F9213
:104510008F929F92AF92BF92CF92DF92EF92FF92D3
:104520000F931F93CF93DF9300D000D0CDB7DEB7AA
:104530002B013C016A017901902EDC01CB01882717
:104540009E7F89839A83AB83BC83232B09F487C026
:10455000AA24AA94BA2C8091CF0187FDFCCF00E059
:1045600011E0812C41C089819A81AB81BC81ABBFB4
:10457000FC01879196918D839E838D819E8101960A
:1045800011F088248394E114F104C1F089819A81A7
:10459000AB81BC8184159505A605B705C9F1898154
:1045A0009A81AB81BC81AC01BD014F5F5F4F6F4F02
:1045B0007F4F4415550566057705D9F04D815E811D
:1045C00069817A818B819C810F940F0089819A8106
:1045D000AB81BC810296A11DB11D89839A83AB83F7
:1045E000BC830150110929F19110BDCFAD82BE826B
:1045F000CACFF1E0EF1AF1082C013D0122E0420E92
:10460000511C611C711CF60181916F018E83D6CF04
:1046100081E0E81AF108EFEF4E1A5E0A6E0A7E0A90
:10462000F60181916F018D83E114F10409F0B7CF98
:10463000C5CF09811A812B813C81C901B801725013
:1046400081099109882019F12091CF0127FDFCCF24
:1046500045E20F940000E114F10409F07CCF8DE3F2
:1046600091E20E94AD502696CDBFDEBFDF91CF9183
:104670001F910F91FF90EF90DF90CF90BF90AF9080
:104680009F908F907F906F905F904F9008952091B2
:10469000CF0127FDFCCF44E20F940000E114F104A8
:1046A00009F059CFDCCF9091B10995FFFCCF8093F1
:1046B000B00981E090E00895E0E6F6E080E88183CB
:1046C00080E48283E0EBF9E083E0858387E1868301
:1046D00084EA878384818061848384818860848381
:1046E00082E190E28093952690939626109245233E
:1046F0001092462380E283838AE090E00C94A750D6
:104700001F920F920FB60F9211240BB60F922F9398
:104710003F934F935F936F937F938F939F93AF9349
:10472000BF93CF93EF93FF938091B009909147236C
:10473000913009F447C090914823911128C08D30E1
:1047400009F459C08A3009F456C0883009F43FC0D2
:104750008B3109F488C020914523309146232034C1
:10476000310509F484C0F901E75BFC4D80832F5FBC
:104770003F4F2093452330934623609195267091B7
:104780009626082E000C990B0E942F5007C08B35DF
:1047900019F481E08093472310924823FF91EF9111
:1047A000CF91BF91AF919F918F917F916F915F91C9
:1047B0004F913F912F910F900BBE0F900FBE0F9016
:1047C0001F901895813461F110924723E7CF8091B3
:1047D000452390914623009729F001978093452324
:1047E0009093462385E591E29F938F930E946B50AF
:1047F0000F900F90D3CF8AEC90E20E94AD50609161
:10480000452370914623FB01E75BFC4D108289E450
:1048100093E20E941F391092452310924623BECF87
:104820008091452390914623C82F9927FC01E75B8F
:10483000FC4D8081882369F16091952670919626C0
:10484000082E000C990B0E942F50CF5F2C2F30E0C8
:10485000F901E75BFC4D80818111EECF2093452368
:1048600030934623B1CF81E08093482397CF1F92A6
:1048700080E48F938FE298E09F938F930E947F5004
:1048800010924523109246230F900F900F900F9097
:1048900085CF2C2F30E0E2CF83E080932206E0E941
:1048A000F3E081E08083818388E08283838390E1E9
:1048B0009683E0E0F6E08FE1828387E0808B818B56
:1048C000828B838B848BE0E8F3E09683928381E193
:1048D000838389E080838183089580E28093C00090
:1048E00088B18093C30089B18093C3008AB180935B
:1048F000C3008BB18093C3008CB18093C3008DB192
:104900008093C30080B38093C30082B38093C300BD
:1049100083B38093C30084B38093C30085B3809333
:10492000C300809124028093C30080912C02809365
:10493000C300809134028093C3008091640280930D
:10494000C30080916C028093C30081E080938B232D
:1049500080E191E09093C2008150E1F784E8809378
:10496000C00010928A2310928923089590918A237F
:104970009923A1F08091C2009F5F90938A23903188
:10498000B0F020918B2390E12093C2009150E1F789
:1049900094E89093C00010928A2308958091C100FA
:1049A00080FFFCCF8091C20091E090938A2308950C
:1049B000CF930E94B624C82F0E94B6242C2F30E03B
:1049C000322F2227A901482BCA01CF910895CF92F7
:1049D000DF92EF92FF926B017C0120E030E0A901B1
:1049E0000E94994718167CF520E030E040E05FEB2C
:1049F000C701B6010E94374B28E937EF44ED5CE36D
:104A00000E94BB462EEC30EF42EC51EC0E94CA4AA9
:104A10000E941D4820E030E040E85FE30E94BB4672
:104A20009B01AC016BEB71E882E494E40E94A34724
:104A30002BEB31E044E054E40E94BA46FF90EF9043
:104A4000DF90CF90089560E070E080EC9FE7FF90EA
:104A5000EF90DF90CF9008951092D4231092D52339
:104A60001092D6231092D723ECE8F3E284ED93E280
:104A7000108211821282138214821582168217828A
:104A800010861186128613863C968E179F0781F733
:104A900010927D2610927E261092F52408952F9272
:104AA0003F924F925F926F927F928F929F92AF92BE
:104AB000BF92CF92DF92EF92FF920F931F93CF930B
:104AC000DF93CDB7DEB7CC54D109CDBFDEBF4B01EC
:104AD0005C0129013A0167017801CA01B9010E940C
:104AE000874B9B01AC01C501B40190580E94CA4A92
:104AF00029966CAF7DAF8EAF9FAF2997C301B201EE
:104B00000E949E479B01AC01C501B4010E94CA4AA4
:104B10002D966CAF7DAF8EAF9FAF2D97C701B601BD
:104B20000E949E474B015C01C701B6010E94874B62
:104B30006BAB7CAB8DAB9EAB8E010F5F1F4F39E82B
:104B4000232E31E2332ECE01C19689AB9AAB44EAD3
:104B5000442E4BE6542E48E9642E41E4742EC12CB9
:104B6000D12C50E3E52E51E4F52E0CC0D101CD90AF
:104B7000DD90ED90FC90139714964D905D906D90A4
:104B80007C901797A5019401C701B6010E94CA4AFB
:104B90006FAB78AF89AF9AAF2BA93CA94DA95EA99D
:104BA000C301B2010E94CA4A9B01AC016FA978AD52
:104BB00089AD9AAD0E94BA46D8016D937D938D93CD
:104BC0009C9313972BA93CA94DA95EA9C701B601D7
:104BD0000E94CA4A6B017C01A3019201C501B40184
:104BE0000E94CA4A9B01AC01C701B6010E94BB46A4
:104BF000F8016483758386839783085F1F4FF8E00D
:104C00002F0E311C89A99AA90817190709F0AECFF0
:104C1000ACE8B3E22596AEAFBFAF259784EA9BE63A
:104C2000A8E9B1E48BAF9CAFADAFBEAF412C512C26
:104C300090E3692E91E4792E312C23961CAE1DAEA3
:104C40001EAE1FAE23972BEA222E77C02596EEAD1F
:104C5000FFAD2597019111912596EEAFFFAF2597F6
:104C6000A3019201C501B4010E94CA4A4B015C0133
:104C70002BA93CA94DA95EA9CA01B9010E94CA4A43
:104C80002B013C01A7019601C701B6010E94CA4A47
:104C90009B01AC01C301B2010E94BB4620E030E0A1
:104CA00042EF53E40E94CA4A9B01AC01C501B40122
:104CB0000E94A3476B017C01B801110F880B990B6F
:104CC0000E9487489B01AC01C701B6010E94CA4AF5
:104CD0009B01AC0123966CAD7DAD8EAD9FAD23974E
:104CE0000E94BB4623966CAF7DAF8EAF9FAF2397DC
:104CF0003394F4E23F1609F4A3C0329C812D1124B1
:104D000086958695982F990F890F880FE32DE81BBC
:104D1000F0E0EE0FFF1FEE0FFF1FEE0FFF1FE75734
:104D2000FE4D408051806280738084819581A68190
:104D3000B7818BAF9CAFADAFBEAF329C812D11243C
:104D40008695869501E010E00C0F1D1FB8E08B9F43
:104D5000000D111D1124F80180809180A280B38084
:104D6000A501940129966CAD7DAD8EAD9FAD2997BF
:104D70000E94BB46A30192010E94BA466BAB7CAB7A
:104D80008DAB9EABD80114968D919D910D90BC91E9
:104D9000A02D8FAB98AFA9AFBAAF9C01AD012D96F6
:104DA0006CAD7DAD8EAD9FAD2D970E94BB462BADFA
:104DB0003CAD4DAD5EAD0E94BA466B017C01A301D6
:104DC00092016BA97CA98DA99EA90E94CA4A2B01B8
:104DD0003C012BAD3CAD4DAD5EADC701B6010E94AF
:104DE000CA4A9B01AC01C301B2010E94BB462B0120
:104DF0003C016BA97CA98DA99EA99058A50194019D
:104E00000E94CA4A4B015C01C701B60190582FA904
:104E100038AD49AD5AAD0E94CA4A9B01AC01C501EB
:104E2000B4010E94BB464B015C0120E030E0A901C7
:104E30000E94994787FF0ACF812C912C540106CFFD
:104E400023966CAD7DAD8EAD9FAD2397C45BDF4FD8
:104E5000CDBFDEBFDF91CF911F910F91FF90EF90FB
:104E6000DF90CF90BF90AF909F908F907F906F908A
:104E70005F904F903F902F900C94E7242F923F9299
:104E80004F925F926F927F928F929F92AF92BF925A
:104E9000CF92DF92EF92FF920F931F93CF93DF9306
:104EA000CDB7DEB7CC5ED109CDBFDEBF4B015C0113
:104EB00029013A016701780120E030E048E352E43B
:104EC0000E94994787FDDFC2D501C401B058CD5378
:104ED000DF4F88839983AA83BB83C35CD040C3011F
:104EE000B2010E94874BCD53DF4F288139814A811F
:104EF0005B81C35CD0400E94CA4ACD51DF4F6883BA
:104F000079838A839B83C35ED040C301B2010E9430
:104F10009E479B01AC01C501B4010E94CA4AC95118
:104F2000DF4F688379838A839B83C75ED040C70144
:104F3000B6010E949E47CD53DF4F688379838A83F1
:104F40009B83C35CD040C701B6010E94874B2B01F5
:104F50003C01DE01AF56BF4FCF53DF4FA883B9836B
:104F6000C15CD0408D0139E8232E31E2332EFD01A2
:104F7000F096C553DF4FE883F983CB5CD04044EA19
:104F8000842E4BE6942E48E9A42E41E4B42EC12C85
:104F9000D12C50E3E52E51E4F52E0CC0D101CD907B
:104FA000DD90ED90FC90139714968D909D90AD90B0
:104FB000BC901797CD53DF4F288139814A815B819F
:104FC000C35CD040C701B6010E94CA4AC953DF4F33
:104FD000688379838A839B83C75CD040A301920155
:104FE000C501B4010E94CA4A9B01AC01C953DF4FFD
:104FF000688179818A819B81C75CD0400E94BA46D2
:10500000D8016D937D938D939C931397A301920187
:10501000C701B6010E94CA4A6B017C01A501940137
:10502000CD53DF4F688179818A819B81C35CD040F9
:105030000E94CA4A9B01AC01C701B6010E94BB464F
:10504000F8016483758386839783085F1F4FF8E0B8
:105050002F0E311CC553DF4F88819981CB5CD04026
:105060000817190709F09ACFACE8B3E2C551DF4F32
:10507000A883B983CB5ED040FE0131961F01C35295
:10508000DF4FE883F983CD5DD040C552DF4FA88361
:10509000B983CB5DD04084EA9BE6A8E9B1E4C9526C
:1050A000DF4F88839983AA83BB83C75DD040412C9F
:1050B000512C20E3622E21E4722E10E0C553DF4F05
:1050C000188219821A821B82CB5CD040C953DF4FF1
:1050D000188219821A821B82C75CD0400BEAC1C0B9
:1050E000CD53DF4F688179818A819B81C35CD04039
:1050F0009058C153DF4F288139814A815B81CF5C51
:10510000D0400E94CA4A2B013C01C701B601905809
:10511000CD52DF4F288139814A815B81C35DD04008
:105120000E94CA4A9B01AC01C301B2010E94BB4666
:105130006B017C0120E030E0A9010E94994787FDC6
:105140003BC1C552DF4FE881F981CB5DD040619111
:105150007191C552DF4FE883F983CB5DD040072EB4
:10516000000C880B990B0E9487489B01AC01C95326
:10517000DF4F688179818A819B81C75CD0400E9422
:10518000BB46C953DF4F688379838A839B83C75C9F
:10519000D040A7019601C501B4010E94CA4A6B0123
:1051A0007C0120E030E042EF53E4C152DF4F6881E0
:1051B00079818A819B81CF5DD0400E94CA4A9B0140
:1051C000AC01C701B6010E94A3479B01AC01C352C9
:1051D000DF4FA881B981CD5DD0406D937D938D93D4
:1051E0009D93C352DF4FA883B983CD5DD040C55393
:1051F000DF4F688179818A819B81CB5CD0400E949E
:10520000BB46C553DF4F688379838A839B83CB5C1E
:10521000D0401F5F143209F4D3C0109F812D112498
:1052200086958695982F990F890F880FE12FE81B97
:10523000F0E0EE0FFF1FEE0FFF1FEE0FFF1FE7570F
:10524000FE4D408051806280738084819581A6816B
:10525000B781C952DF4F88839983AA83BB83C75D17
:10526000D040109F812D11248695869591E9E92ED5
:10527000F12CEC0EFD1EB8E08B9FE00CF11C11240C
:10528000D7018D919D910D90BC91A02DC153DF4F01
:1052900088839983AA83BB83CF5CD0409C01AD01F6
:1052A000CD51DF4F688179818A819B81C35ED04077
:1052B0000E94BB46A30192010E94BA46CD53DF4F24
:1052C000688379838A839B83C35CD040D70114961B
:1052D0008D919D910D90BC91A02DCD52DF4F888373
:1052E0009983AA83BB83C35DD0409C01AD01C951A2
:1052F000DF4F688179818A819B81C75ED0400E949F
:10530000BB46C952DF4F288139814A815B81C75D25
:10531000D0400E94BA466B017C01CD53DF4F2881FB
:1053200039814A815B81C35CD040CA01B9010E94C6
:10533000CA4A4B015C01A7019601C701B6010E9450
:10534000CA4A9B01AC01C501B4010E94BB46C152CF
:10535000DF4F688379838A839B83CF5DD040A3012D
:105360009201CD53DF4F688179818A819B81C35C33
:10537000D0400E94CA4A4B015C01C952DF4F2881CC
:1053800039814A815B81C75DD040C701B6010E9467
:10539000CA4A9B01AC01C501B4010E94BB464B0146
:1053A0005C0120E030E0A9010E94994787FF98CE78
:1053B000812C912C540194CEC12CD12C7601C1CEDC
:1053C000C12CD12C7601C551DF4F08811981CB5EEC
:1053D000D040D8016D917D918D01F10141905190A6
:1053E000619071901F01072E000C880B990B0E9491
:1053F0008748C953DF4F288139814A815B81C75C67
:10540000D0400E94A3474B015C01C553DF4F288168
:1054100039814A815B81CB5CD040C301B2010E94DB
:10542000A3479B01AC01C501B4010E94BA469B0190
:10543000AC015F77C701B6010E94BB466B017C01DE
:10544000CF53DF4F88819981C15CD040821593058D
:1054500009F0BFCFC701B601C451DF4FCDBFDEBFDA
:10546000DF91CF911F910F91FF90EF90DF90CF9040
:10547000BF90AF909F908F907F906F905F904F9074
:105480003F902F90089580E090E0A8E3B2ECCD53D8
:10549000DF4F88839983AA83BB83C35CD040812C70
:1054A000912C68E3A62E62E4B62E19CD2F923F927E
:1054B0004F925F926F927F928F929F92AF92BF9224
:1054C000CF92DF92EF92FF920F931F93CF93DF93D0
:1054D000CDB7DEB76C97CDBFDEBF898F9A8F6B8F4C
:1054E0007C8F2CE8222E23E2322E87ED93EBADE564
:1054F000BFE38D8B9E8BAF8BB88F80E090E0A0E0F8
:10550000BFEB898B9A8BAB8BBC8B80E090E0A0E8E3
:10551000BFEB8D879E87AF87B88B19861A861B864F
:105520001C8610E0412C512C3201530142014D8266
:105530005E826F82788649825A826B827C820BEA15
:1055400049C0109F812D112486958695982F990F1B
:10555000980F990F212F291B30E0E6E0F0E0E81BBF
:10556000F109CF01820F931F66E070E00E94D04BDB
:10557000FC01EE0FFF1FEE0FFF1FEE0FFF1FE75A9C
:10558000FE4D84819581A681B78189879A87AB87F3
:10559000BC8780819181A281B3818D879E87AF87EF
:1055A000B88B220F331F220F331F220F331FF90135
:1055B000E754FE4D84819581A681B781898B9A8BB2
:1055C000AB8BBC8B80819181A281B3818D8B9E8BB3
:1055D000AF8BB88FD1016D917D911D01072E000C0D
:1055E000880B990B0E9487486B017C012D893E89AD
:1055F0004F89588D0E94CA4A9B01AC0169817A810A
:105600008B819C810E94BB4669837A838B839C83B8
:1056100029893A894B895C89C701B6010E94CA4A27
:105620009B01AC016D817E818F8198850E94BB4674
:105630006D837E838F8398872D853E854F8558891E
:10564000C701B6010E94CA4A9B01AC01C501B40161
:105650000E94BB464B015C0129853A854B855C85E0
:10566000C701B6010E94CA4A9B01AC01C301B20145
:105670000E94BB462B013C011F5F143209F061CF31
:1056800029813A814B815C816D817E818F819885F2
:105690000E943A47A98DBA8D6D937D938D939C930B
:1056A0001397A5019401C301B2010E943A47EB8D03
:1056B000FC8D60837183828393836C96CDBFDEBF44
:1056C000DF91CF911F910F91FF90EF90DF90CF90DE
:1056D000BF90AF909F908F907F906F905F904F9012
:1056E0003F902F9008952F923F924F925F926F922A
:1056F0007F928F929F92AF92BF92CF92DF92EF9262
:10570000FF920F931F93CF93DF93CDB7DEB72C9704
:10571000CDBFDEBFACE8B3E204ED13E2C12CD12C67
:105720006FE3FD0120E030E04191519181E090E094
:105730004115510511F480E090E0022E01C0880F60
:105740000A94EAF780956823C40ED51E2F5F3F4F59
:105750002630310549F71C960A171B0711F7E62E6C
:10576000F12C812C912CA12CB12CE0E04091D42380
:105770005091D5236091D6237091D7230FE010E08C
:1057800066246394712C22E7222E28E0322E34C046
:10579000C301082C02C0880F991F0A94E2F7092E52
:1057A000000CAA0BBB0B840F951FA61FB71FAC01E3
:1057B000BD018093D4239093D523A093D623B09397
:1057C000D723052C04C0B695A795979587950A947D
:1057D000D2F78F709927AA27BB270F97A105B1058C
:1057E00009F48FC18FEFA81AB80A94E0890E911CB2
:1057F000A6E0AA16B10439F19501C7010A2C02C02E
:10580000959587950A94E2F7582C80FDC1CFC80181
:10581000082C02C0880F991F0A94E2F78095909592
:10582000092E000CAA0BBB0B84239523A623B723B8
:10583000AC01BD018093D4239093D523A093D623AC
:10584000B093D723BECFEE2309F457C044E664E6F5
:1058500080E00E94742F8CE291E00E944F0844E6A1
:1058600060E084E60E94742F8CE291E00E944F0871
:1058700040E064E684E60E94742F8CE291E00E948E
:105880004F080E94692F44E664E680E00E94742F6E
:105890008CE291E00E944F0844E660E084E60E94BA
:1058A000742F8CE291E00E944F0840E064E684E6A9
:1058B0000E94742F8CE291E00E944F080E94692F91
:1058C00044E664E680E00E94742F8CE291E00E943E
:1058D0004F0844E660E084E60E94742F8CE291E079
:1058E0000E944F0840E064E684E60E94742F8CE238
:1058F00091E00E944F080E94692FBE016F5F7F4FA9
:10590000CE0105960E94562AB601DD0C880B990B34
:105910000E94874820E23BEB44E050E40E94A3470A
:105920000E94E7244B015C0120E030E0A9010E94C5
:105930009947882309F4CAC0A5019401C501B4019F
:105940000E94934B8111C2C089819A81AB81BC8135
:1059500089879A87AB87BC874D805E806F8078840B
:105960007C018D01A3019201C501B4010E944F2564
:105970004B015C019B01AC010E94934B8111A6C0BD
:1059800020E030E040E352E4C501B4010E949947B1
:1059900087FDE3C0A3019201C501B4010E943E2727
:1059A0006B017C0120E030E04CED52E4C501B40114
:1059B0000E94994787FD1EC120E030E048E453E48F
:1059C000C501B4010E94994787FDE4C020E030E0A2
:1059D00048E453E4C501B4010E94FF4918160CF4D1
:1059E00075C080917D2690917E2680939F24909310
:1059F000A024C501B4010E94564860939924709375
:105A00009A2420E030E0A901C301B2010E94FF49BD
:105A10002BED3FE049E450E487FDC8C0C301B2016B
:105A20000E94BB462BED3FE049EC50E40E94CD487C
:105A30002BED3FE049E450E40E94BA462BED3FE0F5
:105A400049E450E40E94A34720E030E044E353E4FB
:105A50000E94CA4A0E944F4860939B2470939C24E2
:105A600020E030E0A90169857A858B859C850E94BC
:105A7000FF492BED3FE049E450E487FDA8C069856C
:105A80007A858B859C850E94BB462BED3FE049ECD7
:105A900050E40E94CD482BED3FE049E450E40E94E1
:105AA000BA462BED3FE049E450E40E94A34720E0D2
:105AB00030E044E353E40E94CA4A0E944F48609396
:105AC0009D2470939E2481E08093A3248FB7F89443
:105AD0001092F5248FBF2C96CDBFDEBFDF91CF9102
